:020000040800F2
:100000000050002021020008270200082B020008EF
:100010009D020008A1020008E9020008000000009B
:100020000000000000000000000000003103000894
:10003000350300080000000039030008210C000807
:100040004D0300084D0300084D0300084D03000850
:100050004D0300084D0300084D0300084D03000840
:100060004D0300084D0300084D0300084D03000830
:100070004D0300084D0300084D0300084D03000820
:100080004D0300084D0300084D0300084D03000810
:100090004D0300084D0300084D0300082508000823
:1000A0004D0300084D0300084D0300084D030008F0
:1000B0004D0300084D0300084D0300084D030008E0
:1000C0004D0300084D0300084D0300084D030008D0
:1000D0004D0300084D0300084D0300084D030008C0
:1000E0004D0300084D0300084D0300080000000008
:1000F0000000000000000000000000000000000000
:1001000000000000000000005FF808F100B583B0B7
:1001100000F0AAF9304B314A1360314A1360314B79
:10012000314A32498B4204D21168196004330432D7
:10013000F7E72A4B1A682E4B9A4200D0FEE7284B6D
:100140001A682C4B9A42F9D1234B2B4A13602B4A45
:1001500013602B4B02E000221A600433294A9342B9
:10016000F9D3254B1B6813B9244B1B6803B1FEE779
:1001700000F086F9694601A800F022F9224C234BD1
:10018000E41AA4100025AC4214DC214C214BE41AE3
:10019000A4100025AC4213DC0099019800F09CFDEE
:1001A00005461D4C1D4BE41AA410002C0EDC2846FD
:1001B00000F0E2F8154B53F8253098470135E2E797
:1001C000144B53F8253098470135E3E7013C134BB6
:1001D00053F824309847E8E7BABADECA0000002096
:1001E0008400002000000020E06500088800002056
:1001F000785634123254769888000020FC01002092
:10020000880000200002002078030008780300081E
:1002100078030008780300087803000878030008D2
:1002200008B5FFF773FF00BEFEE71EF0040F0CBF1A
:10023000EFF30880EFF309807146414A10472DE93A
:10024000F04182B004468846124B5E6B9F6B9D6AFC
:100250001B6B13F0020F03D00E4BDB6A002B0CDB81
:100260000D4800F0B5F8CDF800803B4632462946EF
:10027000204600F009F900BEFEE74BF6AB6100F046
:100280007DF90028ECD0034B4FF00042DA6202B057
:10029000BDE8F08100ED00E09C16000800BEFEE71E
:1002A0001EF0040F0CBFEFF30880EFF309807146D6
:1002B000244A10472DE9F04182B004468846084B95
:1002C0005E6B9F6B9D6A074800F082F8CDF8008056
:1002D0003B4632462946204600F0D6F800BEFEE7EF
:1002E00000ED00E0AC1600081EF0040F0CBFEFF3A9
:1002F0000880EFF309807146134A10472DE9F04159
:1003000082B004468846084B5E6B9F6B9D6A074827
:1003100000F05EF8CDF800803B4632462946204684
:1003200000F0B2F800BEFEE700ED00E0B8160008ED
:1003300000BEFEE700BEFEE700BEFEE7704700001D
:100340003F020008B5020008FD02000800BEFEE7FB
:10035000E06500080000002088000020E06500083B
:1003600000000000000000008800002000020020C3
:08037000000000000000000085
:10037800FEE7000008B503460C4A12685AB10B4A5A
:100388001068033323F003030344094A934206D851
:10039800064A136008BD054A06491160EFE700F0F8
:1003A800BBFC0C2303604FF0FF30F3E78C00002008
:1003B800004C00200002002001230360014B0B6069
:1003C800704700BF040000200FB400B583B004AB31
:1003D80053F8042B01938021064800F0CFFC002835
:1003E80003DD0146034800F037F803B05DF804EB7D
:1003F80004B07047940000202DE9F04385B004460E
:100408000F4643560BB10E461EE0042528462146EA
:10041800ABBE0446384605B0BDE8F08314F9011BAD
:1004280004AA1A4402F8101C0133AB42F6D304AAFA
:100438001344002203F8102C4FF00408E946404604
:100448004946ABBE8046761B002EE3D03546102EBB
:1004580028BF10250023E8E708B5FFF7CDFF08BD42
:1004680008B500F0FDF8024A024B9A6008BD00BFCB
:100478000000000800ED00E008B500F019F908BD1B
:10048800F8B504460D4617461E462748FFF79CFF59
:1004980021682648FFF798FF61682548FFF794FF11
:1004A800A1682448FFF790FFE1682348FFF78CFF15
:1004B80021692248FFF788FF61692148FFF784FF17
:1004C800A1692048FFF780FFE1691F48FFF77CFF1B
:1004D8001E48FFF779FF29461D48FFF775FF1D4C99
:1004E800E16A1D48FFF770FF216B1C48FFF76CFF9E
:1004F800E16B1B48FFF768FF15F0800F0AD115F470
:10050800004F0CD11748FFF75FFF06991648FFF711
:100518005BFFF8BD39461548FFF756FFEFE7314650
:100528001348FFF751FFEDE7801500089015000804
:10053800A0150008B0150008C0150008D01500085F
:10054800E0150008F015000800160008101600084D
:100558001C16000800ED00E02C1600083C160008E8
:100568004C1600087C160008841600085C16000863
:100578006C16000883691A888A4201D000207047E7
:100588000268033A012A03D80233836101207047C5
:100598000020704782B00023019300932C4A13680F
:1005A80043F4803313602A4B1B6803F40033009331
:1005B800019B01330193009B1BB9019BB3F5A06F0D
:1005C800F1D1234B1B6813F4003F06D0012300939D
:1005D800009B012B04D002B0704700230093F7E77B
:1005E8001C4B1A6842F010021A601A6822F00302C3
:1005F8001A601A6842F002021A60A3F580535A681A
:100608005A605A685A605A6842F480625A605A6856
:1006180022F47C125A605A6842F4E8125A601A6846
:1006280042F080721A600A4B1B6813F0007FFAD000
:10063800074B5A6822F003025A605A6842F00202D5
:100648005A60034B5B6803F00C03082BF9D1C2E72F
:10065800001002400020024008B5FFF79BFF08BDCC
:1006680008B5104B1A6842F001021A6059680E4A20
:100678000A405A601A6822F0847222F480321A60A2
:100688001A6822F480221A605A6822F4FE025A601C
:100698004FF41F029A60FFF7DFFF044B4FF0006230
:1006A8009A6008BD001002400000FFF800ED00E06D
:1006B8001F4B5B6803F00C03042B15D0082B17D0D5
:1006C8001BB11C4B1C4A1A6002E01A4B1A4A1A60EA
:1006D800174B5B68C3F30313184AD35CDAB21549A6
:1006E8000B68D3400B607047124B134A1A60EFE750
:1006F8000F4A53685268C3F38343023312F4803FAE
:100708000AD00B4A526812F4003F0BD00C4A02FB85
:1007180003F3084A1360DBE7094A02FB03F3054ABF
:100728001360D5E7044A02FB03F3024A1360CFE7DC
:10073800001002401C00002000127A000C0000206B
:1007480000093D0030B4830800F00300094A023371
:1007580052F8234080000F25854024EA050442F81A
:10076800234052F823408140214342F8231030BCF3
:10077800704700BF0000014008B5022201467D20F5
:1007880000F024FA014B00221A8008BD1401002051
:1007980038B50D46094C23889BB2C25C0021084637
:1007A80000F004F9238801339BB2238023889BB28D
:1007B800AB4200D038BD00222280FBE714010020A4
:1007C800012911D049B1022915D010490B6801221D
:1007D80002FA00F01843086070470C498B68012240
:1007E800824013438B60F0E70849CB6801228240BE
:1007F8001343CB60E9E7054A916801238340194315
:100808009160D1680B43D360DFE700BF000401406B
:10081800014B1860704700BFF001002008B5044B79
:100828001B689847034A536943F00103536108BDA5
:10083800F00100200004014010B4012824D018B1B0
:10084800022841D010BC7047072910D90F29F9D8C0
:10085800A1F10804E4B2A4000F23A3402A480168C8
:1008680021EA030302FA04F119430160EAE7890067
:100878000F2303FA01F0254C236823EA000302FA48
:1008880001F119432160DDE7072910D90F29D9D8CB
:10089800A1F10800C0B280000F2383401C4C2168DE
:1008A80021EA030302FA00F119432160CAE789002B
:1008B8000F2303FA01F0174C236823EA000302FA16
:1008C80001F119432160BDE7072910D90F29B9D8CB
:1008D800A1F10803DBB29B000F2098400E4C216861
:1008E80021EA000002FA03F101432160AAE7890026
:1008F8000F2303FA01F0094C236823EA000302FAE4
:1009080001F1194321609DE70408014000080140F6
:10091800040C0140000C014004100140001001408B
:10092800012815D010B1022823D0704711B1012930
:1009380007D070474FF0113303FB02F2154B1A60D2
:1009480070474FF0113303FB02F2134B1A607047E4
:1009580041B10129EDD14FF0113303FB02F20F4BE6
:100968001A6070474FF0113303FB02F20C4B1A6008
:10097800704741B10129DCD14FF0113303FB02F27A
:10098800084B1A60D5E74FF0113303FB02F2064B10
:100998001A6070470008014004080140040C014037
:1009A800000C01400410014000100140012814D03F
:1009B80010B1022821D0704711B1012907D0704722
:1009C80016490B6803F47F431A430A6070471349BA
:1009D8000B7843EA02220A60704739B10129EED147
:1009E8000F490B7843EA02220A6070470C490B68EA
:1009F80003F47F431A430A60704739B10129DED1F5
:100A080008490B7843EA02220A60D8E705490B68CF
:100A180003F47F431A430A60704700BF0C08014083
:100A28000C0C01400C10014008B51E4B1A6842F22C
:100A380010739A422ED91B4B1A6843F697239A4291
:100A480028D8002309E0012202FA01F116480278A9
:100A58000A43D2B202700133DBB2072B17D819460A
:100A680003F111000F4A52F82020B2F57A7FEAD933
:100A78000C4A52F8200040F2DB529042E3D801229F
:100A88009A400948017821EA02010170E3E7074B1F
:100A98001B6898470023034A1360054A1370054AE8
:100AA800137008BD1801002016010020F401002071
:100AB800E0010020E101002070B506460F4B1B78CD
:100AC8009BB10F4C2578EDB200F09EF80D4B43F822
:100AD800250001220C490D4800F078F823780133ED
:100AE800DBB223700A4B1E6070BD0122064907481D
:100AF80000F06CF8014B01221A70F3E7E0010020C6
:100B0800E101002018010020310A000840420F00CE
:100B1800F40100201F2809D92038C0B21B2804D8A6
:100B2800012303FA00F0044B18607047012303FA0D
:100B380000F0024B1860704704E100E000E100E0BB
:100B48001F291CD801280BD010B1022810D07047DB
:100B5800012303FA01F10A4A13680B431360704733
:100B6800012303FA01F1074A13680B431360704726
:100B7800012303FA01F1044A13680B431360704719
:100B8800141002401C10024018100240064A136854
:100B980043F0010323F002031360043A136843F49B
:100BA80010231360704700BF04100240064B1A68F8
:100BB80022F001021A601A6822F004021A601A6808
:100BC80022F002021A60704710E000E010B40B4BEC
:100BD8001C6824F001041C6000249C60586018689C
:100BE80040F002001860186840F001001860044BDB
:100BF8001960044B1A7010BC704700BF10E000E089
:100C0800F8010020E2010020024B58689B68C01AD6
:100C1800704700BF10E000E008B50B4B1B78012BB4
:100C280005D00A4B1B689847094B1B6808BD084B41
:100C38001A6822F002021A601A6822F001021A6089
:100C480000225A609A60ECE7E2010020F8010020D7
:100C580010E000E008B5114B1B780C2B12D009D915
:100C6800182B15D05E2B12D141F683010C48FFF7E3
:100C78008FFD0CE0082B0AD141F279310948FFF7C2
:100C880087FD04E041F20B310748FFF781FD08BDFD
:100C980040F6DC710548FFF77BFDF8E716010020F8
:100CA800B039000834520008C8160008D4290008D2
:100CB80008B50248FFF760FD08BD00BF5D0C0008DD
:100CC80008B50248FFF7F8FE08BD00BFB90C0008D8
:100CD80008B5FFF75BFF02210846FFF731FF022244
:100CE80000210846FFF71CFE042208210020FFF718
:100CF800A3FD00210820FFF725FD1720FFF70AFFB5
:100D08000448FFF785FD01210820FFF759FDFFF78B
:100D18004DFFFEE7C90C0008014B1868704700BF7B
:100D28002000002030B5141E05469BB0184605DA91
:100D38008B234FF0FF302B601BB030BD4FF4027394
:100D4800ADF80C300CBF234604F1FF330293059332
:100D58004FF6FF7300910491ADF80E3002461E9BCA
:100D68006946284600F072F8431CBCBF8B232B60F1
:100D7800002CE1D00022009B1A70DDE707B5009334
:100D880013460A46014603480068FFF7CBFF03B045
:100D98005DF804FB200000202DE9F0478E688246AC
:100DA8009E420C469046994637D88A8912F4906F2D
:100DB80031D00223256809696F1A656905EB450575
:100DC80095FBF3F509F101033B449D4238BF1D46ED
:100DD800530530D5294600F035FB064650B90C239B
:100DE8004FF0FF30CAF80030A38943F04003A381D5
:100DF800BDE8F0873A46216900F0B4FAA38923F4E4
:100E0800906343F08003A38126613E4426604E46EA
:100E18006561ED1BA5604E4500D94E4632464146F8
:100E2800206800F0AAFAA36800209B1BA36023682F
:100E38001E442660DCE72A4600F05EFB06460028D2
:100E4800E2D12169504600F0B1FAC8E72DE9F04F28
:100E58009DB003938B8980461D060C4616460FD518
:100E68000B696BB9402100F0EDFA2060206128B9C8
:100E78000C23C8F800304FF0FF30C7E0402363610F
:100E88000023099320238DF8293030234FF0010BDC
:100E98008DF82A3037463D4615F8013B0BB1252B16
:100EA8003ED1B7EB060A0BD05346324621464046A0
:100EB800FFF772FF013000F0A480099B53440993A7
:100EC8003B78002B00F09D8000234FF0FF32CDE9E6
:100ED8000523049307938DF853301A932F46052260
:100EE80017F8011B4F4800F02FFA049BD0B9D90618
:100EF80044BF20228DF853201A0744BF2B228DF8B7
:100F080053202A782A2A15D02F4600200A25079A26
:100F1800394611F8013B303B092B4DD9B8B10FE0E8
:100F28002F46B8E73F4A3D46801A0BFA00F01843AF
:100F38000490D3E7039A111D12680391002A01DB7C
:100F4800079204E0524243F00203079204933B786D
:100F58002E2B0CD17B782A2B33D1039B02371A1DF9
:100F68001B680392002BB8BF4FF0FF3305932E4D3B
:100F780003223978284600F0E7F938B14023401BAE
:100F880003FA00F0049B01370343049339780622DF
:100F980026487E1C8DF8281000F0D6F9002838D095
:100FA800234B13BB039B073323F007030833039337
:100FB800099B4B4409936DE705FB023201200F465C
:100FC800A6E700230A25194601370593384610F885
:100FD800012B303A092A03D9002BC8D00591C6E75E
:100FE80005FB012101230746F0E703AB00932246E6
:100FF800104B04A94046AFF30080B0F1FF3F814693
:10100800D6D1A3895B063FF536AF09981DB0BDE878
:10101800F08F03AB00932246064B04A9404600F02C
:1010280081F8EAE7AD650008B3650008B765000810
:1010380000000000A10D00082DE9F04791461F4669
:101048008A680B6906469342B8BF1346C9F8003050
:1010580091F843200C46DDF8208012B10133C9F81D
:1010680000302368990642BFD9F800300233C9F826
:101078000030256815F0060507D104F1190AE36860
:10108800D9F800209B1AAB4229DC94F84330226837
:10109800003318BF012392062ED404F143023946C7
:1010A8003046C047013021D02368E56803F00603C5
:1010B800042B18BF0025D9F800204FF0000908BFFD
:1010C800AD1AA368226908BF25EAE5759342C4BF33
:1010D8009B1AED181A344D451AD1002008E0012357
:1010E800524639463046C047013003D14FF0FF30F1
:1010F800BDE8F0870135C2E73020E11881F84300E8
:101108005A1C94F845102244023382F84310C4E76D
:101118000123224639463046C0470130E6D009F15E
:101128000109D8E72DE9F04301F1430C0C46097E8B
:1011380085B06E291746064698460C9A00F0B3808B
:1011480022D8632936D00AD8002900F0B980582956
:1011580000F0838004F1420584F8421032E06429EB
:1011680001D06929F6D120681368050603F1040146
:101178002AD51B681160002B03DA2D225B4284F804
:1011880043206F480A2239E0732900F09D8008D86F
:101198006F2920D07029DDD1236843F02003236014
:1011A80003E0752917D07829D4D17823654884F8C5
:1011B800453055E0136804F14205191D1B6811609C
:1011C80084F8423001238CE01B6810F0400F116056
:1011D80018BF1BB2CFE713682568181D10602806D2
:1011E80001D51B6802E06806FBD51B886F2914BF70
:1011F8000A2208225248002184F843106568002D0D
:10120800A560C0F29580216821F004012160002BBF
:101218003DD1002D40F08E806546082A0BD1236809
:10122800DB0708D5236962689A42DEBF302305F8D8
:10123800013C05F1FF35ACEB05032361CDF80080D7
:101248003B4603AA21463046FFF7F6FE01304DD152
:101258004FF0FF3005B0BDE8F083394884F84510F9
:10126800136821681D1D1B6815600A060BD5CA077F
:1012780044BF41F0200121601BB9226822F02002FE
:1012880022601022B7E74D0648BF9BB2EFE76546DC
:10129800B3FBF2F102FB1133C35C05F8013D0B46C9
:1012A8000029F5D1B9E713682568181D6169106030
:1012B80028061B6801D5196002E06A06FBD519806B
:1012C800002365462361B9E71368191D11601D687D
:1012D80062680021284600F037F808B1401B6060BA
:1012E80063682361002384F84330A7E723692A460B
:1012F80039463046C0470130AAD023689B0713D42B
:10130800E068039B9842B8BF1846A3E701234A4602
:1013180039463046C04701309AD00135E368039A10
:101328009B1AAB42F2DCEBE7002504F11909F5E75B
:10133800002BACD1037804F1420584F842306CE705
:10134800BE650008CF65000810B5C9B202449042D6
:10135800034601D1002303E01C7801308C42F6D10A
:10136800184610BD10B5431E0A44914200D110BD65
:1013780011F8014B03F8014FF7E7884210B501EB6C
:10138800020307D8421E99420AD011F8014B02F80D
:10139800014FF8E78342F5D98118D21AD34200D118
:1013A80010BD13F8014D01F8014DF7E738B50546B2
:1013B800002943D051F8043C0C1F002BB8BFE41897
:1013C80000F0D0F81E4A1368104633B96360146001
:1013D8002846BDE8384000F0C6B8A3420BD92168BA
:1013E8006218934201BF1A685B68521822606360F2
:1013F8000460EDE713465A680AB1A242FAD919689F
:101408005818A0420BD1206801445818824219602C
:10141800DED110685268014419605A60D8E702D9D1
:101428000C232B60D4E7206821188A4201BF116879
:1014380052680918216062605C60C9E738BD00BF66
:10144800E401002070B5CD1C25F0030508350C2DEE
:1014580038BF0C25002D064601DBA94203D90C2311
:101468003360002070BD00F07DF8214A14682146E1
:1014780091B9204C23681BB9304600F063F820600E
:101488002946304600F05EF8431C24D10C23304630
:10149800336000F068F8E4E70B685B1B18D40B2B8B
:1014A8000FD90B60CC18CD50304600F05CF804F131
:1014B8000B00231D20F00700C31AD3D05A42E25074
:1014C800D0E74B688C4216BF636013600C46EBE7AD
:1014D8000C464968CCE7C41C24F00304A04205D09C
:1014E800211A304600F02EF80130CFD02560DBE716
:1014F800E4010020E8010020F8B5074614460E462E
:1015080021B9BDE8F8401146FFF79CBF22B9FFF7A3
:101518004DFF25462846F8BD00F026F8A0420FD218
:1015280021463846FFF78EFF05460028F2D031469F
:101538002246FFF717FF31463846FFF737FFE9E73E
:101548003546E7E738B50023054C054608462360CD
:10155800FEF710FF431C02D1236803B12B6038BD8E
:10156800EC0100207047704751F8043C181F002B0D
:10157800BCBF0B58C0187047537461636B20667208
:10158800616D653A0A000000205230203D20202578
:101598003038580A00000000205231203D20202514
:1015A8003038580A00000000205232203D20202503
:1015B8003038580A00000000205233203D202025F2
:1015C8003038580A0000000020523132203D2025D2
:1015D8003038580A00000000204C52203D202025B9
:1015E8003038580A00000000205043203D202025B4
:1015F8003038580A0000000020505352203D202562
:101608003038580A000000004653522F4641523ADB
:101618000A0000002043465352203D202025303840
:10162800580A00002048465352203D2020253038D3
:10163800580A00002044465352203D2020253038C7
:10164800580A00002041465352203D2020253038BA
:10165800580A0000204D4D464152203D2025303883
:10166800580A00002042464152203D2020253038AB
:10167800580A00004D6973630A000000204C522F7D
:101688004558435F52455455524E3D2025303858F1
:101698000A0000005B486172644661756C745D0AFB
:1016A800000000005B4275734661756C745D0A004A
:1016B8005B55736167654661756C745D0A0000006F
:1016C80080807F7F7F80807F7F807F807F80807F1A
:1016D800808080807F80807F7F8080807F80807F07
:1016E8008080807F8080807F80807F808080807FF6
:1016F80080807F80807F807F808080807F7F7F80E8
:101708007F807F807F7F8080807F807F807F807FD9
:101718007F7F7F8080807F80807F80807F7F7F80C9
:101728007F7F8080807F807F7F8080807F7F7F80B9
:101738007F80807F7F807F80807F807F807F7F7FAA
:1017480080807F80807F7F80807F7F807F7E808198
:101758007E7F81817D7F817E7E81827E7E81807E8B
:101768007F817F7D81807E80817F7E81817E7F8178
:10177800807D80817F7E80807F7F80807F7F807F6B
:101788007F8080807F807F7F7F80807F807F817F58
:101798007F80807F7F81807E7F817F7F80807D804A
:1017A800817E7D83817D7F82807C8181807E818234
:1017B8007F7C80817C8081807D81817F7E80817E2D
:1017C8007F81807E7F80807E7F817F7E8081807C1C
:1017D80080817F7E81827D7E81817D7F817E7E800A
:1017E800827F7E81817F7D81817E7F80807E7F80F8
:1017F800807F80818080807E7D7F7F7F7E808280E9
:101808007F82807E80807F7E81817D81817F7E7ED8
:10181800817E7E817F7E8080808081807F80817FC5
:101828007F7F7F7F7E7F807E7D8081808081817EBB
:10183800808281808081818080807E7D7E807E7DA7
:101848007F7F7E7D807F7F7F808280818181828093
:10185800818180807F807F7D7D7D7E7D7E7F807F92
:1018680080828283828483818280807E7D7E7B7B6E
:10187800797B7B7B7D7E7E7E828386888C8A86854B
:1018880082837F7D7B7B7876767575717070849E98
:10189800A096908E7E7280908E858883776B707408
:1018A8006C686767658CA6A0908C896E697C91933B
:1018B800949A957E6A6A71747B848174645D5777A3
:1018C8009DA299999679636E868888939D8B73718A
:1018D80075716E7C84806C605970989E99959A8514
:1018E8006A6C7C86848B9A967E74767971747F7F15
:1018F800736463637F97999997957E6E75838686DF
:10190800929D8E7B7372746F7578796D646374942D
:101918009C98939689716C7C89898895968475734F
:101928007D7672737B74625A648A9E9A9598937DC9
:101938006A73868D888D9A947F6F787B756F7478BB
:101948006857557B9BA094929588736B7C8E8E8983
:1019580093998D746D74766E6E777563556E939FDB
:10196800928A93927A6B758B90868C999A8270730F
:101978007C786B6C6D6655638CA59D8D9094867094
:1019880070818F8A888F978C7771787D746B666287
:101998005863859FA093908F8676737B888A898EFB
:1019A800938E7F76787D7970655F545F819D9F9275
:1019B80090938B7972778689898F94918277787DD5
:1019C800786E645F525B7E9EA39490938E7B717554
:1019D800848A888A8E8F8477767E7E76675E545B6B
:1019E8007B98A1979495907C70748187878A8F8E55
:1019F8008278777E7E756961555D7E9AA19691930E
:101A08008D7D7374808686898C8B827A787E7D76CC
:101A18006A62595E7D9BA29590928D7B70738088D7
:101A280088898B8A8179777C7B746A625960819C0A
:101A3800A1938E94917E7073808A89868789827833
:101A4800767C7E75676159607F9BA2969195927F9F
:101A58007172808B8C888688817874787B746961D0
:101A68005A61809CA2959096948171717E8B8C8925
:101A780087878279737678756A60575F7E9DA295AD
:101A88008E95978573707D898C898789867D747416
:101A980077776D61575D7D9BA3958D93968775715B
:101AA8007C888B878588877F747277786E62575AAF
:101AB8007797A2978E93978B78717A878B8784878D
:101AC800898478717477716457577192A39B909247
:101AD800978E7B6F76858C8882858B867A737579ED
:101AE80074675A56698AA09E959498917E70728000
:101AF8008988838689877D767779756A5E555E7D64
:101B08009AA29994989686716B7885898584898933
:101B18008379767979706256566F91A39E96989BD1
:101B28008E796B7080868582868A877D787A7C76C6
:101B3800675B5462819AA19A98999482726F7982AC
:101B48008483858A89847C7A7B766C6159596D8B0C
:101B5800A0A29C99968D7C6F707B838585868888EA
:101B6800827C7A7873685F585E7895A6A399959178
:101B780085766E727D848787888885807A77736E8C
:101B880066605D66829EA9A094908D82736C727F58
:101B9800878988888A867E7674716C6360616D89AE
:101BA800A2A99E938F897D6F6B74828B8B88888A9C
:101BB80084797272716C666565728CA3A79B918E2D
:101BC80087796B6A77878E8B88898981746F72733E
:101BD8006F69696A748BA0A69D918B83756B6B7A0C
:101BE80089908C898A887C706D7476716B6D6F743E
:101BF800859CA69F92887E6F676A7A8B92908D8B60
:101C080084756A6E787B746E7073717C95AAA795DB
:101C1800847B6E626377919A958F8E8675656979F4
:101C2800807872757A706E89A6AD958078726661D3
:101C38007291A19B8F8B8674636375837F77797D9F
:101C48007565769CAF9F8379766D646E8CA3A1923F
:101C58008A8475625D72888A7D797E7C675E7FA6DC
:101C6800AD907A78786A657B9CA7998B877D655853
:101C7800648390877C7F8376595D88ADA585797F5D
:101C88007A676884A7A89382827761586E8F938752
:101C98007B8380694E5E93B19F827F857962698C70
:101CA800ACA48B7F80745E5A79989683787F785D30
:101CB8004A6CA0B39A808385735E7098AE9B837DCF
:101CC8007E715E63839E967E72766F5B4E71A6B759
:101CD800A0827E7E6F5D7098AFA0857D7C6E5D650D
:101CE800849C957F71716C5E536DA3BBA784797BCF
:101CF800705D6B95B5A887797B725E5F7D9E9C81D0
:101D08006A6F706455679DBDAF8773767160689020
:101D1800B7B28F76736E5B5A799FA2866C6E7467C2
:101D28005A6392BAB59174737164678AB0B595783D
:101D3800706A5B57749AA78F736D756C5F5F7BAA27
:101D4800B9A58070706D687B9CB1A4836F66615C77
:101D58006B89A19C84726F706561678DB3B89A783E
:101D68006F6E6B6C87A6AF9473646463637696A892
:101D7800997C676A6A6562719FBEB68E70696B6985
:101D88007492ACA886685F65686E84A0A88F6D6041
:101D9800686C69687EADC4AF7F64636A6C7A99AF1A
:101DA800A57E615B666D788FA3A184645D6B757198
:101DB8007086B1BDA0745F686F727F9BAE9D755DC4
:101DC8005E6A737F91A1997C6261747977748BAE36
:101DD800B3946B5F6B7478889EA68F6F5E636F7821
:101DE80083959D907564697B7E797684A0A89574A7
:101DF800696E767681929E927867657078849199FB
:101E08008F78666A797F7B777F9BA69776676E79EE
:101E1800797A8A9B99816A666F7A848C948F7E6BB3
:101E28006975817E7B7C94A59A7B6369787E7D86C3
:101E3800979B876B636D7C83868E9087736C727EAD
:101E48007F7D7889A0A0856665737F7E84919B8E4F
:101E58007464687683888E8F8979706F797E7E79CD
:101E6800809AA2926F626A7A7F838C999780686160
:101E78006D7F8A8F908B81746E717A7E7C7A90A147
:101E88009D7D62637381848993998B726267778879
:101E98008E908C857B716E757B7A778DA2A2856515
:101EA8005F6E7E858991998F78646373868E908D35
:101EB800877E746E71787C7B8A9FA28C695D677A55
:101EC800858A9199927C656270838C908E8B8276DC
:101ED8006B6D757D7C869DA6946E5A617683898F1D
:101EE8009A968369606A7F8D908E8C857A6D6A7305
:101EF8007B7C8196A299776060717F888E9797899D
:101F08007162677A8B918F8B867C716B72797D7D1C
:101F18008F9D9B8166606C7D878E93978D7A6666B0
:101F280074878E8F8C887F756D71767A7A889A9D82
:101F38008B6D62687B858A8F9590816E6870808CC6
:101F48008E8C878179717174787782969F93756585
:101F5800667782898C929288756A6B79888E8C856F
:101F6800817B75717375767D919E99806965707FA7
:101F7800868A9194907F6F6870808A8C8784807934
:101F880072717372778DA1A1886D636B7A84888E64
:101F980095968770656A7B878B8886857F756C6B5D
:101FA8006C7790A4A58D706468747F878F96968BE4
:101FB80075676776838887878782786E6A69799478
:101FC800A8A58C706468737F879296968A776765F0
:101FD80071818B898783817A6E6467809DAB9D82CE
:101FE8006D696D767E879296948776676571848C25
:101FF8008A838180786B606F90ABAC9176696A71E7
:10200800777F8A93978F7D6D686D78848A878181C1
:102018007E7768697F9DAA9B816E6B6F757A8691C2
:1020280096908172696D7782888984817E786D69DE
:102038007C97A99D846F6B747A7A7C869396877453
:10204800686E7985878783837F776C687890A39F8C
:102058008D746C6C767A7F8790968F7D68667486AF
:10206800898681827F776C69768D9E99877B77795F
:102078007E81807B838F9181726C747C81817E7D6F
:102088007E7E7471768A969B8F7F777B7F7C7B823E
:102098008B8A8780776E707982817C7B7C7A797A6B
:1020A800808B928F8681807C797D82868686837CF0
:1020B800727075797A7A7C7A777B848B8E8B86843A
:1020C80086847E7C80868784807C7874767979772C
:1020D8007779787B838C9290847E808687838286CA
:1020E8008986807A757274777874717179838D8F27
:1020F8008A857E7D81898A87848687827C7A7C7CB2
:1021080077716F70717986908E82787B8085898EE1
:102118008E857B7A8185847D7B7A7774757B8289CD
:102128008B887D726F7B898E898483837E797A7DA3
:102138007F7E7F808183888B887D7372787B797BB3
:102148008084837F7C76737A8A9796897F80888D4E
:10215800887D7472757B7D776F6E777F807E828ACB
:1021680092918C8583838484817D7977757270746C
:102178007D8584807F82868B8D8980797A7F827F36
:102188007A797B7E808185878683817E78777C805B
:10219800807B7774747B8791938B817D82888A8713
:1021A800807A767576746E6E78868F8F8C8783804A
:1021B8008183837D77777C7F7D7879808789867F27
:1021C8007879838B8B847E7B797776777A7E83891F
:1021D8008D8D87807D7E807F7B7672747C838686FA
:1021E800868784807D7D8081808081817D787679F5
:1021F8007F8384827D7D858B8A837D7A78767676E7
:102208007B80868B8E8B847D7D81837E77716F75D5
:102218007E8585868A8E8B837C7A7F82817C7A799B
:102228007978787B80858785807F858A8A837C78A2
:10223800767474777D84898D8C8984807F807D779E
:10224800706D6F77838B8C89898A88827D7C7E7E8E
:102258007C7A797B7D808284837F7B797A7F86898B
:10226800857F7C7E807E7D7E82858481808182815F
:102278007E7A7675777B7E81868B8B878482807C5D
:102288007877797A7C7F84898B878381817F7C7654
:10229800706D727B8386888B8D8A85818080807E35
:1022A8007D7C797675787E828484807D7F83858342
:1022B8008181807D79787C828789898885807B790E
:1022C8007878777675767B858C8C88868685817D0F
:1022D8007C7C7B7A7B7E828483828282807C787419
:1022E800747A82858382858786827F808283827FD3
:1022F8007D7C7B7B7C7E7F7F7D7B797C83898A86E6
:10230800827F7D7A787A7F838585858483817E7DC7
:102318007C7B797775757A83898A88878684807BC0
:102328007A7C7E8181818181807F7E7E7D7B7A7AC5
:102338007B7F838483828383817E7E7F8182818188
:102348008181817F7C7B7B7C7B7B7A7D8287888592
:102358008282817F7C7B7C7E808081828383817F77
:102368007E7D7B7878787C828788848281817F7D76
:102378007C7E818281808082817F7E7E7C7B7A796F
:102388007A7D838787848382817D7B7B7E8182823D
:10239800828282807E7D7E7E7C7B7A7A7D82878740
:1023A800848281807D7B7C7F8283828282817E7D24
:1023B8007D7E7E7C7B7C7B7C8186888683817F7D1D
:1023C8007A7B7E8283838382807D7C7D7F7E7C7B1B
:1023D8007C7D7C7F85898783807F7C7A7B7F8384F3
:1023E8008382817F7C7A7C7F807F7E7E7E7B7C82FD
:1023F800888883807E7D7A7A7E8587858282817DC2
:1024080078797E81807E7E7F7D7A7F868985807ED1
:102418007E7B797C8287868382817D79797D8182C2
:10242800807F7F7E79787F8788837F7F7E7B7A7EB7
:1024380085878582817E7A777A8083827F807F7C98
:102448007779838987817F807E7A7B818888848178
:10245800807D78777D8384817E7F7E7A757B858B8E
:10246800868180807C787B848A8782807F7B77796D
:10247800808584807E7E7C77757E898B8581807F50
:102488007A787D878A85817F7E7A777A8286847F4B
:102498007E7D7A76757F8A8C8680807E7A787E8744
:1024A8008A85817F7E7A777A8287847F7D7D7A7735
:1024B800767E898C87807F7E7A787D868B86817E02
:1024C8007E7B777A818785807C7D7B78767D888D19
:1024D80088817E7D7A787C858B88827E7D7A777903
:1024E800808786807C7D7C79777A858C8B837E7DDE
:1024F8007B797B838A8A837E7C7A78787E868882D9
:102508007D7C7D7B7878808A8C877F7D7C7B7A7FD9
:10251800868B87807C7A79777C8388857F7B7C7CB7
:102528007A797B848C8B837D7C7C7A7C82898A8394
:102538007C797A797A7F8689847D7A7B7B7A797EC1
:10254800888D8A817B7A7A7A7E848A88807B797A78
:102558007A7C828887817B797B7B7B7B818A8D876C
:102568007E797A7B7B7F868A867E79787B7C7F847E
:1025780088867F79797C7C7C7D838B8C847B797A57
:102588007C7D818789847B78797C7E808486847D44
:10259800797A7E7E7D7E848A89827A797C7D7E8244
:1025A8008687817B787B7E7F808385837C797B7F30
:1025B8007F7E7E828888827B7A7C7E7E818486820A
:1025C8007C797B7E7F808384827E7A7B7E807E7E20
:1025D800808788847C7A7C7E7F7F8285847F7B7AF3
:1025E8007D7F80818383807C7B7E807F7E7F8588E2
:1025F800857D797B7E7F7F828585807B7A7C7F80E5
:10260800818383807C7B7D7F7F7E7E8387867F79C5
:102618007A7E807F818385817C7A7C7F81818283B9
:10262800817E7C7D7E7F7F7E818586827B7A7D7FB1
:102638007F808284837F7B7B7D80828282817F7D95
:102648007C7D7F7F7E7F8486847D797B7E80808190
:102658008384817C7A7C7F82818282817E7C7D7E7C
:102668007F7E7F8387857F797A7D8080818384825E
:102678007D7A7B7E81828282817F7D7C7D7E7E7E6B
:10268800838686807A797C8081818284827E7A7A48
:102698007D8182828281807D7C7D7E7F7F8186862E
:1026A800827B797B7F8181828483807B7A7C808234
:1026B800828281807E7C7C7E7F7E808586837C7919
:1026C8007A7E8081828383817C7A7B7F8283828207
:1026D800807E7C7C7E7F7F7F8386847E7A797D8006
:1026E80081828384827E7A7A7E81838382817F7DE0
:1026F8007C7D7E7F7E818585817B7A7C7F818182DE
:102708008383807C7B7C8082838281807E7C7D7ECB
:102718007E7E818486827C7A7B7F818181838381AE
:102728007D7B7B7F82838281807F7D7C7D7E7E7FB7
:102738008385847F7B7A7D8081818384837F7B7B93
:102748007D8082828181807E7D7C7C7D7F83868581
:10275800807C7A7C7E8081838484807C7B7C7F8182
:10276800828181817F7D7B7B7C7E838787827C7A67
:102778007B7E8081838584827D7A7B7D8082828254
:10278800817F7D7B7A7B7F858887817C7A7B7D7F53
:1027980081848584817D7A7A7D80828282817F7D31
:1027A8007B7A7C828788857F7B7A7C7E8082838423
:1027B80083807C7B7B7E80828181807F7D7B7A7E2B
:1027C800848887827D7B7C7D7E80828484817E7CF8
:1027D8007B7C7F818281807F7F7D7B7C81868884F2
:1027E8007F7C7C7D7E7E808284827F7D7C7C7E80F7
:1027F800818180807F7E7C7C7F858784807C7C7DD6
:102808007E7E7F818383807D7B7C7E8181818080C9
:102818007F7E7B7B7F848785817C7B7C7E7E8081BD
:102828008484827E7B7A7D818281807F7F7E7C7BAF
:102838007D838685817F7E7E7F7F7F7F8183838086
:102848007D7C7D7F80807F7F7F7E7C7C7E8284858F
:10285800827F7E7F7F7F7F80818181807E7C7D7E7D
:10286800807F7F7F7F7E7E7F8082848381807F7F61
:102878007E7F80818181807E7C7C7E7F7F7F7E7E63
:102888007D7F81828382808081817F7F808181803A
:10289800807F7D7D7E7E7E7E7E7E7E7F818383823D
:1028A800807F8081818080818181807E7D7D7D7E29
:1028B8007E7D7C7C7F81838381807F808182818013
:1028C800808181807F7E7F7E7E7D7D7C7C7E818312
:1028D80082807E7F8081818282807F7F8081807EEE
:1028E8007E7E7E7D7D7E808282817F7C7C7F8283EE
:1028F800818080807F7E7E7F7F7F808080808182D4
:10290800817F7D7D7E7F7E7F8081807F7E7D7D7FD4
:10291800828584817F808282817F7D7D7E7F7F7EAC
:102928007C7D7E807F7F808283838281808080809F
:10293800807F7E7E7E7D7D7E8081807F7F8081829C
:1029480082817F7E7F80807F7E7E7F7F7F80808187
:102958008180807F7E7E7F80807F7E7D7E7F818379
:1029680083817F7E7F818281807F7E7E7E7D7C7C6D
:102978007E8183838281807F8080807E7D7E7F8050
:102988007F7E7E808182817F7D7E808282807F7E45
:102998007E7E7E7E7E7F80828383817F7F7F808034
:1029A8007F7D7C7D7F818181818180807F7F808028
:1029B800807F807F7F7E7E7F808080807F80818215
:1029C80081807E7E7E7E7D7E7F8080008181808288
:1029D800817F807F7F8381807C7C7E81847F7E7EF7
:1029E8007E81807E807F81817E7A7E8281817D7DED
:1029F80081838180818381807E7D7D7E7F807F7ED3
:102A08007E7E83827E7E82807F808080817F7F82BF
:102A18007D7E817D7D807F807F818484807C7C7ABF
:102A28007E7F7F81818184817F7D7F7E7D7E8084A2
:102A3800807E808483807E85817C7F7D7E7F7E7F93
:102A48008180817E7D7E7F7F817F7F7F8082818183
:102A58007D80817D7F817F7E7E82807D8083838073
:102A68007C7D807E7C7F7F7D8080818081817B7979
:102A78007D8284828181807D7B827F7E8582808346
:102A8800837E7E7C7F817C7C7F7E7D817F7F847F4F
:102A98007A7C7D7F7E7F7D85897D7882817783833F
:102AA8007D84857F7D82847D80827A7F847D788223
:102AB800847D7D7C8186847B7C7E7D87817B7F860F
:102AC800827C847F7C7E7C768287817E81878181FF
:102AD800817E80867C7B85828286847D7F867E79E6
:102AE800808280848475777F7F7474827E7E7F8005
:102AF8007B727B7C747C7C80837F7F7E8284757B09
:102B08008B8A7C88877876838D7B8686907E7D8984
:102B1800857D7D8D7C7C848A7D8081807A7C8580A2
:102B28008681777477747A89807E797F80707A83DA
:102B38008973898B817683827688838A838A7A836C
:102B48007E8D82768B887B7B8D746F7E81667382A7
:102B5800827B817F74797E757A88778B7C7F8A8285
:102B68008683857F8085847B878E7A79797C7C7162
:102B780083817D7F7B737C897B7B83867F7D8B8A4A
:102B8800828A84838480828787848B8D8275808BF8
:102B98007E797F7B8F8A706C84847475777E757A72
:102BA800777C7F7D7D7C7C807F787F7C737B86775C
:102BB800848288807A827F807B837D887F7D808203
:102BC800897F75878A7E7F848C808085867A7A84DF
:102BD800878183898283837D7F777E807B7D7E8BDF
:102BE800827A7A817C756F858C7A86847C79807804
:102BF800728283888884807B827E6F7E927F7688CB
:102C08008B7877867972757C877E7F848088876BDE
:102C180074817E6E808984928E81777E71757887C3
:102C2800898482949A7D777870618D8B7F8D8C8171
:102C38007E8682797D7C70828C7C7D8E756D7D84AC
:102C4800888474768D89757A83807B6E7B898C7A8B
:102C5800747D7C7E6B6B8A7F6D8A8076938983898D
:102C680080848574869C9A9BAC95859979696E72E7
:102C780061617074867F767C8A7B5F6264636D783D
:102C88007B7D887F73857F7475869193B1BFC1A75B
:102C98009073737E6F6A73848C8F7B868A7A595D92
:102CA8006B66797B8287857677736C777990AAB71C
:102CB800B1917D76747264697D8C8A808484826E19
:102CC8005C6A75797F7F848679767D7F8B9EAEADD1
:102CD800917F797B786A6E81848080838B7D70692F
:102CE8006B7174747E7D7B8A7E89A8B598797A7AAF
:102CF8007B736B7A8F8D81778186786A6E76747A2A
:102D0800757F87808FAC9E827D77777365718B9195
:102D1800887B7F85796C7073767678878EA7AF917C
:102D28007D797A715F667E8A8C8B87837B6D656817
:102D38006C6F8392A6B29B8677716866738390974F
:102D48008F87837368646A6D7488A7AB8F82787382
:102D58006B647487959B918C857261626F717594B1
:102D6800B3A38E7A6E6C6064788E9B9C91877B652A
:102D78005F65707589B0A894846E6A6666758A9571
:102D88009A97897D686165717887AFA7937F68682E
:102D980063677B8F979F9A8776645D66777A99AF2A
:102DA8009990786564626F848D94A192816E5F6159
:102DB800707787B1A695826B6963687C8B939F98BF
:102DC8008674615E6E7380ABA79586696863647963
:102DD800888D9C9D89736061727981A7A896896D99
:102DE80067666A7C878E9A9888726061717880A419
:102DF800A492886C68686B7F8A909A998A726066D8
:102E080073797DA1A7938C68616E6C78898D959490
:102E1800836F616A747B7E9EA8948E70606E757EE7
:102E2800898E9797876C666971767A9CA291876E6E
:102E38006469727F888E95978770696F757783A6A6
:102E4800A6948467626A727B82899593816F676AA8
:102E5800737484A9A09286696A7176818A8A979424
:102E68007868656D797686AB9D8F7B6069727884AA
:102E78008A8D998F7268656D777799B09C8D72622B
:102E88006D7279858A949D876C64677278789CA93D
:102E9800938869636F767F898C979C856E63687B5E
:102EA800767EA49D93806168777A8083899C9374E9
:102EB800676A727B778DA99989725E6B787D88893C
:102EC8008F9B8C6E656A777D7A9CA69280675F700F
:102ED800797F8B8996977C68676E7C8082A3A28BAA
:102EE8007D635F747B848D8A9A9473626B73807E32
:102EF80084A6A086716366797D868A8F9B8A6A63B9
:102F0800727B827C89AC9C7C6D63717C7A858A93A8
:102F1800967E6665787F7E7889AD9773686A7B80D0
:102F28007C858F918A7568717E857D7490AD8E6A77
:102F3800646C82847D858D8D83706A7B857F7D7BC3
:102F480094AC876B6972838179828E8B7F6B6E7E7E
:102F5800837C807F85A58B6C6F737F857D7F8D8853
:102F68008579727D83807B807A8CA1826F73738070
:102F780085767E888587776F7E877A797984AD981C
:102F8800706F6F798777778B8E8B786C74847B768C
:102F98007284B09B75686A7D8A7A7B8D8A8F7D6B17
:102FA80075817E7B7E7899A87B696D738786788327
:102FB8008A888B786F7780797D8185A5956E707109
:102FC80076867876898E8E84706E787B7E837E8C0A
:102FD800A28B78746A78817B828F8E8D7F6A6C7100
:102FE8007C8881809B9B827663697E80808A8B92B5
:102FF80092756A686F848C83879D9381715E697C02
:1030080083878B8E95866B62687B88898496A28974
:103018007866606E8086919C958B6B5E6F7D8183F0
:103028007F8EA990745F5E7491938586838E776294
:103038006E7884898B7F8C93806F667081918C8A7F
:1030480084808071767C7F7B8581809A917D6F6793
:103058006E84928D867C7C867C7372737C85838873
:10306800958F85726C727D878B8F86827D7475755E
:10307800797D7F7B939E8A7F6365778788857F814B
:103088009582766A6B7F8C8E7E848D8C897B6C6949
:103098007A84888C898F816F6864718189909E9405
:1030A800867D6367737D908F8B928A7672646A7F60
:1030B800808A9699918B70646D6C7F8B91918F7DCE
:1030C800756D65757A7E8A9F9F9880605E68798C39
:1030D80093908C897E7164656F7E8E95A9938879AB
:1030E80062656A8187908F92947C6B626573838E28
:1030F80099A19089745F626B7E839498998E7568A4
:103108005F697285929FA59A82645B6071798A9AD9
:103118009E9784715C61677A8593A1A19F7E6B5DA0
:103128005F6D788E989F98887762626375829AA699
:103138009D997B6E5D5F69778C919D958F7C6462AC
:103148006073829AA0A09C81786161686E828C9C71
:103158009A92826C5F596D79929FA4A18977656470
:1031680065727E8997979A8F70615F6973879BA252
:10317800A6887A6E666B6B74818F9698917B706661
:1031880065737C90989D9683796E706C6F7A838A4C
:103198008B928781776A6C6E818E98998F86797504
:1031A8006D6D747A85868D8C858379746F767F864C
:1031B800929089847D797272777B818287888A81EF
:1031C8007A79727C7E86938A8B82767872757A7D1C
:1031D8008182858A8A7D7A79757D7E878F8E897AC4
:1031E8007A767276788484868A857D7B7B747B7D0B
:1031F8008692888A817C797276797D8084898783B2
:103208007D7C77767F818C8888867C7C7376797BD9
:1032180082848486847D7C797B8488908A83827882
:10322800777875767C828385847F7C7C7A7C7D86C2
:103238008C878283807C7A757E7D7F84828481817D
:10324800807F7D7B7B7C848687897F807977767396
:103258007B7C85858A8C84817877737D8787908845
:10326800857C727773777D7F85878686827B7A7A7D
:1032780083878A8C83847A727171797D8089908C36
:103288008A7E777471757F868B8E86877F7978754D
:10329800787D848385867D827B777E7C878B8A8612
:1032A800837B75786F747A7E8885848686837F7C35
:1032B800797F8383847F83847E7D7C7D7B7A7C7B1E
:1032C80082868286817E7C80817E8382898B827DD4
:1032D80078767674747E8784888482867D797C7D0E
:1032E800818A8684817A797877787E8186898885CB
:1032F8008078777779868884857F7D7E7E7A7A7DE7
:103308007F838283807E7A797D8086838186807DB3
:103318008182807F7B7C817D7E7B7C7F7F808083B8
:103328008081807E838283868081837D777C7A7F9B
:10333800817D83817E817D79807F848A8281827D7F
:103348007A7B787D858584847D7C7C767C80848B83
:103358008481827C7A79767F898783837C7879787F
:103368007A7E83878985817C79797B828789858440
:103378007F7A767A8281828386837C7A787578836D
:1033880087888882807A77777F8483848488847C1E
:1033980076787E83838386857E7879797D82838635
:1033A8008480817E76747D81838583817F7A7D7E2A
:1033B8007B7E8188867E818279797E8185858380FE
:1033C8007D7B7D7E7E7F808287827D7D74787F8114
:1033D800838787827B7A7D817E80838488817E7ED5
:1033E8007E7C7F817E8082827F797A7F7D828682E1
:1033F800807C7E7C7B7B7F88858184857F7C7C7DCF
:103408007B7D8686847C7A7C7A7B7D84847F817AC6
:103418007E7E7A7F81888784837F7E7E7B7B8084A3
:1034280089847D7B7B7E797B8282868585807A789C
:10343800777C80818586807F7D7F807E7D84838286
:10344800827B82817C7C7F81807D7C81807C7D7F8A
:1034580080808083827F808082807C7D7D80808167
:103468008484817F807F7C7D7C7C7F7E8283808258
:103478007E7C807D797F8184867E7F87847E7F7F46
:103488007F807D85827F7E797C808380807D7D8240
:10349800807E7D7D7E7E7E7E818381807F8182822B
:1034A800807C7D808483807F80807E7B7A7D817F25
:1034B8007E7D82897F7C7A7A7F8286828282827F01
:1034C8007D7F807F817F7F87847C7C7D7E808080FC
:1034D80081807F827E7D7F7A7E818081837F7D7EF1
:1034E8007F8682787E8886807D7D807E787D7D7CE3
:1034F800838081827D82817A7D84827F7F7F847DC3
:103508007B7E7E8787807D83807D7F7B7F7F7B7FBF
:1035180083807E7D7D7F7E7D82837B7C83838583A4
:103528007F86857E7D807B7A7E8184818081837E93
:10353800777C7D7F848083817C7E827E7C827B8495
:103548008781817F8182807A7F837F7C797E817C7D
:1035580080837D7C7D7D7E8181827F7D8284817C6C
:103568007A7E86817C8381807E7F83858082807C51
:103578007E7C807E7E7D82857D7D8080817D7F844E
:103588008280817F7F827E7C7F8283847D7B7D7E3B
:103598007D7D7F8388827F7E7B7C7D7D8082838426
:1035A8007E7B7E7F807F7D7D828484857C7A7E8021
:1035B800807D8082807D7C7F7E7D7D7E838283830B
:1035C800807D7B7D7B808481828286817D7B7D83FB
:1035D8007D838685827C7C7C7E7C7F817F7F8484E2
:1035E8007E7B7D807E7B8087818081817F7B7D80E3
:1035F800807F808283807B7F807F807E7F80807BCE
:103608007D80817C7881827F858582807F7E7B7FBB
:103618008182807E82807F807F7E807E7E7F8282A4
:103628007D80857E7F827D7B7F83807C7C8081819D
:10363800808082827A7C8080827E83807E7F7D7E8D
:103648007F84817E7E8083817E7F7F7F807F83866B
:103658007E787E7E7D7E7E84807E82827F7C797984
:103668007F838283817E7F7D7E7F7E7F8284828549
:103678007F7E7F7C81807E7F828183827A797D7D57
:103688007D838482807E7F807E7B7C828584838329
:10369800837E7B7D7F807F81808381807C7A7C7C38
:1036A8007E818682807E7E7D7C7F7E8181807F8117
:1036B800827F7C7D8281807D7D8283827C7C80810B
:1036C800817E8089867F7C807F7D7B787C7B7E780D
:1036D8007376777B74757B838685878E928D9093BE
:1036E8009D9A9293928E89837872736D69686568E2
:1036F8006D716D7277777974767B7C7E7C7D808046
:103708007B7A8084847D7D838B909293979998931C
:10371800929190897F817B7D7D76797B7F807B7894
:10372800797D7A787B81827C7D7E7A76706D6C710A
:10373800777877716F6E73787A7E81828388868BCB
:10374800918A898E96A19E979E9E94908A8A898353
:103758007B77726869666062606466686B6D7077B3
:103768008081888A8A8E898D8D8C8B8989858787C7
:1037780084808182838381807C77757B7A7A79756E
:103788007776797E7B7E8282808688868987878C19
:103798008D8A8D8C8C8B8A8B8A827E84807E7F7AC0
:1037A8007B766F6F72717075747A797A7F7C7D7CA5
:1037B8007D808B8B8A87888A83828084827E7C75D1
:1037C800787474726A6B69707374767174767978C8
:1037D8007B7E7C807F838A8C8B8E8C909692908D5A
:1037E8008F9391908E9294928E8A8D8C898C8A85F3
:1037F800878281817C817D7D7B7C7C77756B6F6E18
:103808006D726E6A6D726F6868696D6C6B717577D1
:103818007877797E80817E808285898887898E887D
:1038280086898E918D8E8E8C8D8887898F8B8A8ED6
:103838008C8C88878686878382888A818085838125
:103848007A757C7A7D7A767975736F737271757112
:10385800727675747877757876797E7F807F7F7CCD
:103868007D7F7F8384868285858585858885868713
:10387800898C8984848A87858688888288868285D7
:103888008383817D7A7E7E7D7D797979797A747476
:103898007A7C7B7575787A7A777578817F797A8082
:1038A800847C747E87817E83858488878485827FF3
:1038B800828687888787848082827E7E83848584C7
:1038C8008384807F7F807D7D7F8082837E797B7B00
:1038D800797F7F7F807C7B7A7D7D7C7E81827E8103
:1038E8007E7C7D7F817C808383817F7F7F827C7DDE
:1038F8007F80827F7F7D7C7C80817C7E8286847EC7
:103908007F8484807B7E8481808181817C797E80B4
:103918007C80827F7F7C7C7D7C7C7F8284838180AD
:103928007D807D7D81807F80827F807F7E83848093
:103938007F808082808182807F84837F8080807E78
:103948007C7E8081828180817F7C7F7D7F82838273
:103958008282817D7A797C82808181837D78787C7E
:103968007E7D7E7E8482807E7E81807D7F83827F55
:103978007E7D817F7D818081807F807F8080817F47
:103988007F8284807F8181827F81817D7F817F7C2E
:103998007C7C81837F7D7D7F7E7B787B81837E803D
:1039A80087857F81827F7F8180827F7D7D7E828007
:1039B8007F7F807F807E7E7F7E7E7E8081817D7D11
:1039C8007E7F81807F8280807E7F7F807E7E7F7FFA
:1039D800827E7C7D7D80827F817E81817D7E7F7FEE
:1039E800817D7E827E81807F827D7E7F81827E7DD9
:1039F8007E8080817E8081817E7E7F7F7F7E8080C9
:103A0800837D7D7E7F807D7D81827E7B7B808284BD
:103A1800817F7D7B7C7D8383807D807F807E7B82B0
:103A28008384807B7D817D827E7E827E7F7D7C819A
:103A3800807E817F81807E7D7C7F7E828181827D88
:103A48007E7F7C7F7F818280837F7E7C7F7D818279
:103A580080827D807F807F7D7D7F7F7F7C7D817F71
:103A68007F7F828283817D7D7F81828282817F7E4A
:103A78007E7E7F81827F7F7B7C7E80837E7B7D8153
:103A880082807B7E8585837E7D828284828083801E
:103A9800817F7B808183817E808082807D7C7D7D2B
:103AA8007E7C7B7D7F8384848385888580828489EE
:103AB8008A827E7F82857E78787B80817D7B7D7D12
:103AC8007C77777C7F848688878484879194908D9F
:103AD8008784837E7776777B7A75716F7375767551
:103AE800767D858B8F88838890999A98979186712F
:103AF80063657486887F746B6764606873828D8879
:103B080083848B898A9098A8A69D91715A5864825B
:103B18008E8B837571685D5A6075878A8479777F23
:103B2800878C838496ACB8AE9B674A5467888C822E
:103B380084817E6A5051627A8E8A847F7A7F7B85FF
:103B48008B8998A7B1B6A26B4C4C67898888858405
:103B5800826C544F5F7C8E8B85817F7D797B8B92C5
:103B680099A1A5B2B68D5A47547D8D8885818780E5
:103B78005F4B4D6A8B938E847D80817A828893A077
:103B8800A9B4BAA36A4B4D6F8C8483818B8E6E5512
:103B98004C5E7E8A858182898177707B929CA2A700
:103BA800ADBEA66A4D486F8982827D878D6C524C66
:103BB8006082888985838D80706C7F969C9DA5AF77
:103BC800BE9F6552517482767A7E8F8C6954506498
:103BD800818384818590806F6A7B959797A0ADC318
:103BE800AC6F585471827375788B91725C59637796
:103BF8007C7A828993856E6A738C979097A9BEC3E5
:103C08008C62556784766B72809180655D66797C7D
:103C1800767A888E88726D6F7E8F8C8F9DB2BEB3D8
:103C2800856C687777656773848471646A757A725E
:103C3800717A898B8174747981898992A3AAAFA9D1
:103C48008B7C7374726B6E72767771707578746F23
:103C5800737B84807B74787A7D8487909AA5ADACD9
:103C68009A897A7A766D6A686C71706F70757773F5
:103C780075797F807D797A7A7B7F848A909AA1A8EA
:103C8800A595877F7C746E6D6A6D6C696E747875A6
:103C980072777C81807B7A7B7B7C82878C92989BF5
:103CA800A09D9188857F7775706D69696B6E78794D
:103CB800787B7B7D7C7B7B787D7C7C7E82878A930E
:103CC800999AA09E9390877C7C78716A666A6E74D4
:103CD800767376777A7E7F7F7B7B7C7D7D8183861A
:103CE8008F969B9FA49A929084807C726D6A686973
:103CF8006D727476797B8083837F7D7E7D7D7C7E0B
:103D080084868D93969CA39A928E81807C746C6530
:103D1800686A6F7674797B7F8481827D7D7E7C7C06
:103D2800797C8383878C94999FA195918D827F7AE2
:103D3800726B68686970747475757B8081827C8128
:103D4800887F7B7D828988878D949A9F9D91908AB0
:103D58007F7E78726E69696971767579797E8383F9
:103D6800837E80807D7D7A7C81878A8D92969BA0D8
:103D780098938E83827D79716A6B6A6F7474777990
:103D88007C7F7F827F7E7C7B7B7B7B7D7F86898B34
:103D980092969DA399928F85857D756D6769696DEA
:103DA800737275787B80828381807E7E7D7B7A7A50
:103DB8007E84858B8F919A9F9C928F858181787064
:103DC8006866676A717274797A808382817F7E7C83
:103DD8007A7A7778797D83838B8F949BA19D929152
:103DE800878180756E676467696F7173777A7E8182
:103DF80083817E7E7C7A7A7776797D8384898D91BA
:103E0800989E9F95908A82817A716A6567686C70BE
:103E18007075797E8282817E7C7D7C7977747677F5
:103E28007D8282888C92999EA095918C82837B71E9
:103E38006B6665676C706F75787A808182817F7D2B
:103E48007A7A797777787B8082878D90969B9F9B0B
:103E5800939187837F756E676566676D6E717578F8
:103E68007D8081817F7E7C7A7A777677797F82857B
:103E7800898E92989D9E99938F87837E746D6866CC
:103E880067696E6F73787B80828281807E7C7A79A5
:103E9800767576787C8184878D92969B9D9D969287
:103EA8008D85837B736E6968696B6F72767A7D82A4
:103EB800838383817F7C7A77757676787C80838824
:103EC8008D92979B9D9E98928F87837E75706B6964
:103ED8006A6A7073757A7D8183848482807D7A783A
:103EE80075757575797D82868B9095999B9D9D9644
:103EF800938D85827B736F6B68696C7173777B7F39
:103F08008485868683817F7B7977757676787D81CF
:103F180085898D919598999A96918D87837F7873E5
:103F28006F6C6C6D6F7274797C7F828384838180FF
:103F38007D7B79777777777A7E8185888C8E919368
:103F48009596948F8C8883807C7774706E6F70736D
:103F580075777B7E8082838383807E7D7B7978788A
:103F680079797B7E8286888B8D8E909191918D89CF
:103F78008683807D7976747372727477797B7D7F9E
:103F88008283848382807F7C7A78787978797B7D54
:103F9800818486888A8B8C8C8D8D8D898583817FA1
:103FA8007D7B787877777777797A7C7F7F80818255
:103FB80081817F7F7E7C7B7A7A7A7A7B7C78777D39
:103FC800878E8D89878A8E8E8A85818081807C798B
:103FD8007778797978797B7E808180808282828007
:103FE8007E7E7D7D7C7B7B7C7C7E7E7F81818180EB
:103FF80082868987858485878784807E7E7F7F7D8A
:104008007B7B7B7D7D7C7C7A7776797E81807F7EE9
:104018008082827F7973747A7F7E7A787C838786C0
:104028008080858B8C888585898C8D898582828224
:10403800807D7A79797A7A79797A7D7E7F7F7E7EBA
:104048007D7D7C7B7A7A7B7B7C7C7E808285878881
:104058008989898A89898989898683807E7C7B7B0D
:1040680079797978797A7B7C7D7E808181807F7E81
:104078007C797978787879797B7D7E808285878864
:10408800898A8A89898A8B8C8984807E7E7C7A77E2
:10409800767778797A7A7B7E8081828281817F7D4A
:1040A8007B797877767577797A7C7E808285888A3D
:1040B8008A898989898989898884817F7C7A7877BE
:1040C80077777879797A7B7E7F80808080807F7D22
:1040D8007A78767676757678797B7C7E8184868820
:1040E800898A8A8A8A8A8B8B8883807D7C7A78768B
:1040F80076787A7A7A7C7E818182818282817F7DDC
:104108007B7A78777473747577797B7D80838486FE
:10411800898B8B8A8A8B8C8D8D898280807E7B7837
:104128007676797A797A7C7F8182828284858381A6
:10413800807F7F7C797776767777777A7D7E8083C4
:1041480085888A8B8C8D8F8F90918F8782807E7ADD
:104158007775757779797A7D80828383838585847D
:1041680081807E7E7E7B777576767776777A7D7F9F
:10417800808284878A8C8D8E8F8F91938D85807FA6
:104188007E7A767476797A787A7E81848483848656
:104198008582807F7E7D7B7B797777787877787961
:1041A8007A7C7F818184888A8B8D8E8F9295918786
:1041B80082838079757375777977787D8282818338
:1041C800858685817F807F7D7A797B7C7977787910
:1041D8007978797A7C7E80808387898B8D8F919599
:1041E800968D8584837B757272747675767C8182F0
:1041F80082858788858281807F7B797B7C7B7B7CBD
:104208007B7A7A7978777A7B7A7B7E828485878CC9
:104218008F919094948A8383817873747575757679
:104228007A7F807F828685848382807F7E7C7B7C88
:104238007B7D7C7D7E7D7C7A7A797877797A7A7BCA
:104248007E818486898D8E9196978C8486857872F6
:1042580076777273777B7E7F808286858282838081
:104268007E7E7D7C7B7C7C7C7B7E7F7F7D7C7C797D
:1042780078797978797C7C7D818383868B8C8E9321
:10428800989387878A80727578746F73797B7C7D41
:10429800818386838385837F7F7E7C7B7B7B7B7D1D
:1042A8007C7D7E7F7D7D7E7C7A797A7A7A7A7B7D49
:1042B8007E7F82838485878A8E8F93958883868282
:1042C800737379746F757A777A818281858685842C
:1042D8008380807E7B7A7C7B7B7D7E7F8081807FF4
:1042E8007F7F7B7A7A7A78787A7B7B7D7F818283FD
:1042F80084858685888C8D8E8F8982848077767B6D
:104308007774787C7A7C80828184858383827F7FBE
:104318007F7C7C7D7C7C7E7E7C7D7C7A7B7B7A7BD3
:104328007B7B7C7D7E7F818284858687898E8F8E4C
:1043380088858781787A7D76747B7A777C7F7E80A2
:1043480084838383838181807E7E7E7D7D7E7D7F65
:104358007F7D7C7D7B79797A7A7A7C7E7E7E80818E
:104368008182848383858787898C8D8B8586857DEB
:10437800797C7975777A797A7F807F818583838460
:10438800827F7F7E7C7B7C7C7C7A7B7C79797B7B63
:104398007A7C7D7E7F818082838384858586888AF6
:1043A8008C8B898686837E7D7D7A787C7A797D7F01
:1043B8007E80838282828181807F7E7D7D7C7D7DFF
:1043C8007E7E7B7D7D7B7B7D7C7C7E7F7D7F83810C
:1043D8008183858486888A8B8F8E8789897F7C8074
:1043E8007A777C7B787D7F7C7F83818285848282DB
:1043F800817F7F7F7D7D7D7D7D7E7D7D7E7D7C7BDC
:104408007C7A7C7D7C7D7E7E7F81808083848587AD
:10441800888B8D8F8C888B847D7F7C767979767973
:104428007D7B7C8181828584838381807F7E7C7C87
:104438007C7D7B7C7D7D7B7D7D7B7D7E7D7C7E7DAB
:104448007B7D7F7D7F818182848586878A8B8B892E
:104458008887817F7F7A797B79797B7C7C7F808074
:104468008182828281807F7D7D7B78787977787A76
:10447800797A7D7D7D7F7F7F808182828384848538
:1044880086868786858581817F7D7D7D7C7D7D7C17
:104498007D7D7E7D7E7E7E7D7D7C7B7B7B7B7B7B4D
:1044A8007B7C7C7D7D7E7E7F7F808182828384830E
:1044B8008385858585848382807F7E7D7D7C7D7DE7
:1044C8007D7D7D7D7D7C7D7D7B7C7C7B7C7C7B7C20
:1044D8007D7C7D7E7E7E80807F81818082838284D8
:1044E80085848485838181807E7F7E7D7E7D7D7DC0
:1044F8007E7E7D7D7E7C7C7D7C7C7D7C7C7D7D7CE8
:104508007D7E7D7E8080808181808281818383839E
:104518008384828182808080807F7F7F7E7E7D7E93
:104528007D7C7D7C7D7D7D7D7D7D7E7E7E7E7F7FAD
:104538007F80808082818283828283838383838257
:1045480081828180818180807F7F7E7F7E7E7F7E69
:104558007E7E7E7E7D7E7D7D7E7E7E7E7F7E7F7F73
:104568007F8181818282828282828182818182812D
:1045780080818080818080818080807F80807F7F33
:104588007F7E7E7E7E7F7F7F7F7F7F7F7F80808034
:1045980081818181818181818181818080807F8009
:1045A8007F7F808080807F7F807F80807F7F7F7F0C
:1045B8007F7F7F7F7F7F7F7F7F7F7F7F807F808000
:1045C8007F80808080818080807F7F7F7F7F7F80E9
:1045D8007F7F807F7F80808080807F807F7F7F80DB
:1045E8007F7F807F807F7F80807F807F7F7F7F7FCE
:1045F8007F7F7F7E7E7F7F7F7F7F7F80807F7F80C2
:104608007F7F807F7F7F807F7F7F7F7F7F7F7F7FB0
:104618007F7F7F7F7F7F7F7F7F7F7F7F7F7F7F7FA2
:104628007F7F7F7F7E7E7F7F7F7F807F7F7F7F7F93
:104638007F7F7F807F7F7F7F7F7F7F7F7F7F807F80
:104648007F7F7F7F808080807F7F7F7F808080806A
:104658007F7F7F7E7F7F7F7F7F7F7F7F7F7F7F8062
:10466800807F7F7F7F7F7F7F7F7F7F7F7F7F7F7F51
:104678007F807F80807F8080807F7F7F7F7F7F7F3C
:104688007F7F7F7F7F7F7F7F7F7F7F7F7F7F7F8031
:104698007F7F7F7F7F7F7F7F7F7F7F7F7F7F7F7F22
:1046A8007F7F7F7F7F808080807F7F7F7F8080800B
:1046B800807F7F7F7F808080807F7F7F7F7F7F7FFD
:1046C80080808080807F7F7F7F8080808080807FE7
:1046D8007F8080808080807F8080808080808080D4
:1046E80080808080808080808080808080808080C2
:1046F80080807F807F808080808080808080807FB5
:1047080080808080807F7F7F7F7F7F8080808080A7
:104718007F7F7F7F7F80807F7F7F7F7F808080809B
:1047280080808080808080808080807F7F7F7F7F86
:104738008080808080807F807F7F80808080808074
:104748008080808080808080808080808080808061
:104758008080808080808080808080808080808051
:104768008080808080808080808080808080808041
:104778008080808080808080808080808080808031
:104788008080808080808080808080808080808021
:10479800807F7F7F807F80808080807F7F7F808018
:1047A8008080808080808080808080808080807F02
:1047B80080808080808080808080808080808080F1
:1047C80080808080808080808080808080808080E1
:1047D80080808080808080808080808080808080D1
:1047E80080808080808080808080808080808080C1
:1047F800808080807F807F7F7F7F7F807F807F7FBA
:10480800808080808080807F807F7F7F7F7F7F7FA8
:104818007F7F7F7F7F8080807F807F7F7F7F7F7F9C
:104828007F7F7F7F7F7F7F7F7F7F7F7F7F7F7F7F90
:104838008080808080807F7F7F7F7F7F7F7F7F7F7A
:104848007F80807F7F7F7F7F7F7F7F7F7F7F7F7F6E
:104858007F7F7F7F7F7F7F7F7F7F7F7F7F807F7F5F
:104868007F7F7F7F7F7F7F7F7F7F7F7F7F7F7F7F50
:104878007F7F7F7F7F8080807F808080807F807F38
:1048880080807F807F7F7F807F7F7F7F7F7F7F7F2C
:104898007F7F7F7F7F7F7F7F7F7F7F7F7F7F7F7F20
:1048A8007F7F7F7F7F7F7F7F7F7F7F7F7F7F7F7F10
:1048B8007F7F7F7F7F7F7F7F7F7F7F7F7F7F7F7F00
:1048C8007F7F7F7F7F7F7F7F7F7F7F7F7F7F7F7FF0
:1048D800807F7F7F7F7F7F7F7F7F7F7F7F7F7F7FDF
:1048E8007F7F7F80808080808080808080807F80C4
:1048F80080808080808080808080808080808080B0
:10490800808080808080808080808080808080809F
:10491800808080808080808080808080808080808F
:10492800808080808080808080808080808080807F
:10493800808080808080808080807F808080808070
:10494800808080808080808080808080808080805F
:10495800808080808080808080808080808080804F
:104968008080808080808080807F7F808080808041
:104978008080807F7F8080807F8080808080808032
:104988008080808080808080807F807F7F80808022
:104998008080807F7F807F7F7F7F807F7F7F808018
:1049A8007F7F7F7F7F7F7F7F7F7F7F807F7F7F7F0E
:1049B8007F7F7F7F7F7F7F7F7F7F7F7F7F7F7F7FFF
:1049C8007F7F7F7F7F7F7F7F8080808080808080E7
:1049D800807F8080807F80808080808080808080D1
:1049E80080808080808080808080808080808080BF
:1049F80080808080808080808080808080808080AF
:104A08008080808080808080808080808080807F9F
:104A1800808080808080808080808080808080808E
:104A280080808080807F808080807F807F80807F82
:104A38007F7F7F7F807F7F80807F80807F80808076
:104A4800807F7F807F8080807F7F80808080807F64
:104A58007F7F807F7F7F7F7F7F7F7F7F80807F7F5B
:104A68007F7F7F7F7F7F7F7F7F7F7F7F7F7F7F7F4E
:104A78007F7F807F7F7F7F7F7F8080808080807F37
:104A8800808080808080808080808080808080801E
:104A98008080808080808080808080807F7F808010
:104AA8008080807F7F7F7F7F7F7F807F80807F7F08
:104AB8007F7F7F7F7F7F7F7F7F7F7F7F7F7F7F7FFE
:104AC8007F7F7F7F7F7F7F7F7F7F7F7F7F7F7F7FEE
:104AD8007F7F7F7F7F7F7F7F7F7F7F7F7F7F7F7FDE
:104AE8007F7F7F7F7F7F7F7F7F7F7F7F7F7F7F7FCE
:104AF8007F7F7F7F7F7F7F7F7F7F7F7F7F7F7F7FBE
:104B08007F7F7F7F7F7F7F7F7F7F7F7F7F7F7F7FAD
:104B18007F7F7F7F7F7F7F7F7F7F7F7F7F7F7F7F9D
:104B28007F7F7F7F7F7F7F7F7F7F7F7F7F7F7F7F8D
:104B38007F7F7F7F7F7F7F7F7F7F7F7F7F7F7F7F7D
:104B48007F7F7F7F7F7F7F7F7F7F7F7F7F7F7F7F6D
:104B58007F7F7F7F7F7F7F7F7F7F7F7F80807F7F5B
:104B68007F7F7F7F7F7F7F8080808080807F808045
:104B78007F807F808080808080808080808080802F
:104B8800808080808080808080808080808080801D
:104B9800808080808080808080808080808080800D
:104BA80080808080808080808080808080808080FD
:104BB80080808080808080808080808080808080ED
:104BC80080808080808080808080808080808080DD
:104BD80080808080808080808080808080808080CD
:104BE80080808080808080808080808080808080BD
:104BF800808080808080807F7F80808080808080AF
:104C0800808080808080808080808080808080809C
:104C1800808080808080808080808080808080808C
:104C2800808080808080808080808080808080807C
:104C3800808080807F8080808080807F7F807F7F71
:104C48007F7F7F7F7F7F7F7F7F7F7F7F7F7F7F7F6C
:104C58007F7F7F7F7F7F7F7F7F7F7F7F7F7F7F7F5C
:104C68007F7F7F7F7F7F7F7F7F7F7F7F7F7F7F7F4C
:104C78007F7F7F7F7F7F7F7F7F7F7F7F7F7F7F7F3C
:104C88007F7F7F7F7F7F7F7F7F7F7F7F7F7F7F7F2C
:104C98007F7F7F7F7F7F7F7F807F7F7F7F7F7F801A
:104CA8007F7F7F7F7F7F7F7F7F7F7F7F7F7F7F7F0C
:104CB8007F7F7F7F7F7F7F7F7F7F7F7F7F7F7F7FFC
:104CC8007F7F7F7F7F7F7F7F7F7F7F7F7F7F7F7FEC
:104CD8007F7F7F7F7F7F7F7F7F7F7F7F7F7F7F7FDC
:104CE8007F7F7F7F7F7F7F7F7F7F7F7F7F7F7F7FCC
:104CF8007F7F7F7F7F7F7F7F7F7F7F7F7F7F7F7FBC
:104D08007F7F7F7F7F7F7F7F7F7F80808080807FA6
:104D18007F7F7F7F7F7F7F807F7F7F7F7F7F7F8099
:104D28007F7F7F808080808080808080808080807E
:104D3800808080808080808080808080808080806B
:104D48007F80807F8080808080808080808080805D
:104D5800808080808080808080808080808080804B
:104D68008080808080807F80807F8080808080803D
:104D78008080807F807F808080808080808080802D
:104D8800808080808080808080808080808080801B
:104D9800808080808080808080808080808080800B
:104DA80080808080808080808080808080808080FB
:104DB80080808080808080808080808080808080EB
:104DC80080808080808080808080808080808080DB
:104DD80080808080808080808080808080808080CB
:104DE800808080808080807F807F808080808080BD
:104DF80080808080808080808080808080808080AB
:104E0800808080808080808080808080808080809A
:104E1800808080808080808080808080807F80808B
:104E2800808080808080808080807F7F7F7F807F7F
:104E38008080807F7F7F7F807F807F807F807F7F73
:104E48007F7F7F7F7F7F7F7F7F7F7F7F7F7F7F7F6A
:104E58007F7F7F7F7F7F7F7F7F7F7F7F7F7F7F7F5A
:104E68007F7F7F7F7F7F7F7F7F7F7F7F7F7F7F7F4A
:104E78007F7F7F7F7F7F7F7F7F7F7F7F7F7F7F7F3A
:105128007F7F7F7F7F7F7F7F7F807F807F7F7F7F85
:105138007F7F7F7F7F807F807F807F807F7F7F7F73
:105148007F7F7F7F7F7F7F7F7F7F807F7F7F7F7F66
:105158007F7F7F7F7F7F7F7F7F7F807F807F7F8054
:105168007F807F807F7F7F7F7F7F7F807F7F7F7F44
:10517800807F7F7F7F7F7F7F7F807F7F7F7F7F7F35
:105188007F7F7F7F7F7F7F7F7F7F7F807F7F7F7F26
:105198007F807F807F807F7F7F7F807F7F7F7F7F13
:1051A8007F7F7F7F7F7F7F807F807F7F807F7F7F04
:1051B800807F807F807F807F7F807F7F807F807FF0
:1051C800807F807F7F7F7F7F7F7F7F7F7F7F807FE4
:1051D8007F7F7F7F807F807F807F807F807F807FD1
:1051E800807F7F807F807F807F7F807F807F7F80C0
:1051F8007F807F807F807F807F807F807F807F80AF
:10520800807F807F7F807F7F807F807F807F7F809F
:105218007F807F807F807F80807F807F7F807F808E
:105228007F807F807F7F807F807F800080808080FC
:1052380080808080807F7F7F7F808080808080806A
:105248008080808080808080808080808080808056
:105258007F7F7F7F8080808080808080808080804A
:10526800807F7F7F7F7F7F8080808080808080803C
:1052780080808080807F7F7F7F7F7F7F7F7F7F7F31
:105288007F7F7F7F7F7F7F7F7F808080808080801F
:105298008080808080808080807F7F7F7F8080800A
:1052A80080808080808080808080808080808080F6
:1052B8008080808080808080807F7F7F7F7F7F80EC
:1052C80080808080808080807F7F7F7F7F7F7F7FDE
:1052D80080808080807F7F7F807F7F7F7F7F7F7FD0
:1052E8007F7F7F7F7F7F7F7F7F7F7F7F7F7F7F7FC6
:1052F8007F808080808080807F7F7F7F7F7F7F7FAF
:105308007F7F7F7F7F7F7F7F7F7F7F7F7F808080A2
:1053180080807F7F7F7F7F7F7F7F808080807F7F8F
:105328007F7F7F7F7F7F7F7F7F80808080807F7F80
:105338007F7F7F7F7F7F7F80807F7F7F7F7F7F7F73
:105348007F7F7F7F7F7F7F7F7F807F7F7F7F7F7F64
:105358007F80808080807F7F7F7F7F7F7F7F7F7F50
:105368007F7F7F7F7F7F7F7F8080807F7F7F7F7F42
:105378007F7F7F807F7F7F7F7F7F7F7F7F7F7F7F34
:105388007F7F7F7F7F7F7F7F7F7F7F80807F7F7F23
:105398008080808080808080808080808080808005
:1053A800808080807F7F7F808080808080808080F8
:1053B80080808080808080808080808080808080E5
:1053C8008080807F7F7F80808080808080808080D8
:1053D80080808080808080808080808080808080C5
:1053E80080808080807F7F7F7F80808080808080B9
:1053F80080807F7F80807F7F8080808080808080A9
:10540800807F7F7F7F7F7F8080808080808080809A
:105418007F7F7F807F7F8080808080808080808089
:105428008080808080807F7F7F7F7F7F808080807A
:10543800808080808080807F808080808080807F66
:105448007F7F80808080808080807F7F80807F7F5A
:105458007F80808080808080808080808080808045
:1054680080807F7F7F7F7F7F7F7F7F7F7F7F7F7F42
:105478007F7F7F7F7F7F7F7F7F7F7F7F7F7F7F7F34
:105488007F7F7F7F7F7F7F7F7F7F7F7F7F7F7F7F24
:105498007F7F8080807F7F7F7F7F7F7F808080800D
:1054A8008080807F7F7F7F7F7F7F7F7F7F7F7F8000
:1054B800808080807F7F7F7F7F7F7F807F7F7F7FEF
:1054C8007F7F7F7F7F7F7F7F7F7F7F7F7F7F8080E2
:1054D80080808080808080808080808080808080C4
:1054E80080808080807F7F7F7F7F7F7F7F7F7F7FBF
:1054F8007F7F7F7F7F7F7F7F7F7F7F7F7F7F8080B2
:10550800818181828282828282828181818181817C
:105518008080807F7F7F7E7E7D7D7C7C7C7B7B7BAB
:105528007B7C7C7C7D7F8182828383848383828170
:1055380081818182828383838383828281807F7F4A
:105548007F7F7F7F7F7F7F7E7E7D7D7D7D7D7D7D73
:105558007D7D7D7C7C7C7C7C7D7E7F818283848557
:105568008584838382828282828383848484838203
:105578008281807F7F7F7F7E7E7D7D7C7B7A7A7A49
:105588007A7A7A7A7A7A7A7C7E8183848585868526
:105598008483828181818283838483828180807FE6
:1055A8007E7D7D7E7F80818181818180807F7F7FFC
:1055B8007F7F7E7E7D7C7B7A797978787878797937
:1055C8007B7E8185878888888785838180808081A4
:1055D80082838383828181808080808080818181B1
:1055E800807F7E7D7C7B7A79797878787877777711
:1055F8007777797D8186898B8C8C8B888682807F72
:105608007F7F808182828281807E7D7C7C7B7C7EA4
:1056180080838586868584838281807F7E7D7B7971
:1056280078767473727272727375777A7E82878BEA
:105638008E908F8E8B8885827F7D7C7C7D7D7E7F22
:105648007F7F7E7E7E7F818284868889898987851F
:1056580082807D7B797775747373737373737475D4
:1056680076787A7C8084898E9295969694908B85AC
:105678007F7A767372727476787B7E80828486886D
:105688008B8D8F90908E8B87817C7774716F6E6E07
:105698006F71737577797A7B7B7C7C7E8083878B4F
:1056A8008F929494928E89827D77737170727579D6
:1056B8007D818587898A8A8A8A8C8C8C8B8885806B
:1056C8007C7773706F6F70727577797B7B7B7A7874
:1056D8007877787A7E83899095989A98958E867E41
:1056E80076706C6C6D71777D83888B8D8E8D8C8BCD
:1056F8008989878784827E7A777473727476797CD5
:105708007E7F7E7C7874706C6C6C70767F89929CDE
:10571800A1A5A39D94877A6D655F5F646B77828D81
:10572800959A9B99948D867F7B78777778797A7C20
:105738007D7F80818281807D79746F6B6664646708
:105748006D74808A98A1AAAEACA597887363554DED
:105758004F57687B91A2AEB2ADA2917F6D615A5A44
:10576800636F7F8E9AA1A29E94897C7067615F5F48
:10577800646A71787D80807F7C7B7C818A939FA519
:10578800A8A295836D5B4C4A51647E98AFBBBDB1AE
:105798009D836A584D4F596B7F92A3ACB0ABA090D4
:1057A8007E6E615B5A6068737D8386837D746B64EB
:1057B80060636C7D92A7B9C1BFB1997A5C433639F1
:1057C8004A688AACC4CEC8B39574584540475A72E3
:1057D8008B9FAFB7B6AF9E8B746456535965788765
:1057E800949794877564504A4855647D9BB1C9CE97
:1057F800CEBBA17D563C2429375A85B0D5E4E5CAED
:10580800A6774D31242E45698EADC2C9C5B59F8492
:105818006A564A4B556A8198A7A99F8A705542399A
:105828003C4D637E98B0C2C9CBBCA8886847302776
:105838002E4B71A1C9E5EAD9B583552F1F253E65C1
:105848008EB1C6CCC2AE957A6556515563758A9DA0
:10585800A7A79B866A53413A404E657C92A2B2B98B
:10586800BDBAAD987B5F40332F41648EBAD8E6D875
:10587800BB8D5D3A252A3F648AACC3C7C3AE977A0D
:1058880062514A505D7991AAB7B5A5876847362F06
:10589800394F698598A5AAB0AFAEA89883694F3CDF
:1058A8003945648BB2CFD8CCAC855B3E32384F6E6D
:1058B8008FA9B8BDB7A7917761504C5366809BB14B
:1058C800B8B39D7F5E4232313F56728C9EA5AAA91D
:1058D800AAA6A0927C654C4140557399BACDD0BD1B
:1058E800A07958403740557491ABBABEB7A68F74AB
:1058F8005E4F4C576B869FB0B4AB96785B42373897
:10590800475F788F9FA6A4A39E9B938777665A527A
:105918005A67829AB1BCBAAB91765949424B5F7AC1
:1059280096ADB9BAB19F876E5A4D4D5A6F8BA2B3D7
:10593800B6AE977A5C433637465D778FA0A5A6A0AA
:105948009E979287786A5C585B6B7F98ABB6B5A7D1
:1059580092786150494F5F7791A8B4B7AC9B846C3B
:105968005A50535F778CA3AFB1A692785E4B3E43F3
:105978004F657A8D979A9690919194928C7C6F61ED
:105988005D63718799A9ABA99A87725F54505B6B65
:10599800859DAFB6B1A186725E56566170879CA888
:1059A800B0A79A806C554C4A536474848C9089864D
:1059B8007E8289959A998C786A5E626C808F9EA3A4
:1059C800A0988A7B695E565B697F98ACB5AE9E8469
:1059D8006B5B535A677B8D9EA8AAA4907A62555038
:1059E8005B6979848785807B727169738096A4ADC1
:1059F800A48F7C666060707B8C949899958D7F717C
:105A0800605E64778DA2AAA898826D5F5E637280DB
:105A180090989E9D978B796A5D5F6979878B877D62
:105A2800756D696564656D839DB3BEB59C7D635373
:105A3800535E6E7E8D99A3A8A3927A6052556882B0
:105A48009AA6A398877A706D6A70747F8B949794DE
:105A58008A7C746C6F747F8389857F756A635C5CEC
:105A68005E6A7A97AFBFBCA98B6D594F535D6E7F45
:105A780093A4B2B4A98F70564A51668094A1A4A287
:105A88009C91806B59515B6C869BA5A49D90847BEF
:105A98006F696468707F878981776E6C6D6E7070CE
:105AA8007D8FA7B0B09B836D615D616A717F8EA0A9
:105AB800ABAF9F886C5A576272818C93999E9E9265
:105AC8008068595866788E9BA1A09B8F8374655B0C
:105AD8005A6271838B8E888379736A63606C839C46
:105AE800ADADA29184776F635D5A687D99ADB4AA14
:105AF80097816E635D5E616C7D95A8B2AA98816D91
:105B0800625F616A778597A1A49C8E7C6E646163ED
:105B180069727B83878781786E66677689979FA28B
:105B28009E9B9384705F575C6B7E8E99A0A19F9714
:105B380089786A615F6672808D969999948B80776F
:105B48006F6C6E727A838B8E8F8B857F797572718D
:105B5800727477797B7C7D7C7978777A828A8E8F6C
:105B6800908F8C89837B7473767B80838586878707
:105B78008683807E7D7E7F7F7F7E7F7F7E7D7E7F2A
:105B880081828383838585827D797777787A7C7F24
:105B9800808183838483817E7C7A7878797A7C7E1D
:105BA800818588888684817F7C7A7978797C8085EC
:105BB8008A8C8B8986817C797776797E84898B89B2
:105BC80086817D7977757576797E838687868481E7
:105BD8007E7A777575777A7E828586858482807EDF
:105BE8007D7C7D80838789898784807D7B7A7A7AAA
:105BF8007C7F828587888785817C77747273777DBF
:105C080082848586858482807C777474767A7D80A8
:105C18008182858686848382807F7E7E8082848559
:105C280086868684827E797676787C7E8185898B65
:105C38008B87827C79787676797E82868888868456
:105C4800827D77737173777B8084868684817E7981
:105C5800767471717A868B8B8F93948E867C74722E
:105C680075767579818A90918D8A87858179737324
:105C7800787E807E7F828586827D7B7C7E7D79753D
:105C8800757777757374777C838B90929192918CEA
:105C9800837B75716F7173778089909291908E89EB
:105CA8008178706D6F73787B81898F918E898580FB
:105CB8007974717072777D82848687847F77716D3D
:105CC8006B6B6C74849398999A9E9A8D7D706866B4
:105CD800676B717A88959B9995928F86796C6769BD
:105CE8006F757A7E879196938B84807C77737072B8
:105CF800787E828181838481776F6D707372747E00
:105D08008D95959191928E8378706F707376798066
:105D18008B9496918B8887827B737073777A7B7E5E
:105D2800858C8E8B85807D7B7A7876767B8081806A
:105D38007F7F7F7D787371747778787A8492969074
:105D48008A8E928C7E737276777575798189909038
:105D58008B898C8E887B7271757674757B848A8C3E
:105D68008A868384827C7470747A7D7E7F8385843E
