:020000040800F2
:100000000050002021020008270200082B020008EF
:100010009D020008A1020008E9020008000000009B
:100020000000000000000000000000003103000894
:100030003503000800000000390300080D0900081E
:100040004D0300084D0300084D0300084D03000850
:100050004D0300084D0300084D0300084D03000840
:100060004D0300084D0300084D0300084D03000830
:100070004D0300084D0300084D0300084D03000820
:100080004D0300084D0300084D0300084D03000810
:100090004D0300084D0300084D0300084D03000800
:1000A0004D0300084D0300084D0300084D030008F0
:1000B0004D0300084D0300084D0300084D030008E0
:1000C0004D0300084D0300084D0300084D030008D0
:1000D0004D0300084D0300084D0300084D030008C0
:1000E0004D0300084D0300084D0300080000000008
:1000F0000000000000000000000000000000000000
:1001000000000000000000005FF808F100B583B0B7
:1001100000F0AAF9304B314A1360314A1360314B79
:10012000314A32498B4204D21168196004330432D7
:10013000F7E72A4B1A682E4B9A4200D0FEE7284B6D
:100140001A682C4B9A42F9D1234B2B4A13602B4A45
:1001500013602B4B02E000221A600433294A9342B9
:10016000F9D3254B1B6813B9244B1B6803B1FEE779
:1001700000F086F9694601A800F022F9224C234BD1
:10018000E41AA4100025AC4214DC214C214BE41AE3
:10019000A4100025AC4213DC0099019800F0F0FB9C
:1001A00005461D4C1D4BE41AA410002C0EDC2846FD
:1001B00000F0E2F8154B53F8253098470135E2E797
:1001C000144B53F8253098470135E3E7013C134BB6
:1001D00053F824309847E8E7BABADECA0000002096
:1001E0008400002000000020509C000888000020AF
:1001F0007856341232547698880000202801002066
:10020000880000202C0100207803000878030008F3
:1002100078030008780300087803000878030008D2
:1002200008B5FFF773FF00BEFEE71EF0040F0CBF1A
:10023000EFF30880EFF309807146414A10472DE93A
:10024000F04182B004468846124B5E6B9F6B9D6AFC
:100250001B6B13F0020F03D00E4BDB6A002B0CDB81
:100260000D4800F0B5F8CDF800803B4632462946EF
:10027000204600F009F900BEFEE74BF6AB6100F046
:100280007DF90028ECD0034B4FF00042DA6202B057
:10029000BDE8F08100ED00E02813000800BEFEE795
:1002A0001EF0040F0CBFEFF30880EFF309807146D6
:1002B000244A10472DE9F04182B004468846084B95
:1002C0005E6B9F6B9D6A074800F082F8CDF8008056
:1002D0003B4632462946204600F0D6F800BEFEE7EF
:1002E00000ED00E0381300081EF0040F0CBFEFF320
:1002F0000880EFF309807146134A10472DE9F04159
:1003000082B004468846084B5E6B9F6B9D6A074827
:1003100000F05EF8CDF800803B4632462946204684
:1003200000F0B2F800BEFEE700ED00E04413000864
:1003300000BEFEE700BEFEE700BEFEE7704700001D
:100340003F020008B5020008FD02000800BEFEE7FB
:10035000509C00080000002088000020509C0008ED
:100360000000000000000000880000202C01002098
:08037000000000000000000085
:10037800FEE7000008B503460C4A12685AB10B4A5A
:100388001068033323F003030344094A934206D851
:10039800064A136008BD054A06491160EFE700F0F8
:1003A80001FB0C2303604FF0FF30F3E78C000020C3
:1003B800004C00202C01002001230360014B0B603E
:1003C800704700BF040000200FB400B583B004AB31
:1003D80053F8042B01938021064800F015FB0028F0
:1003E80003DD0146034800F037F803B05DF804EB7D
:1003F80004B07047940000202DE9F04385B004460E
:100408000F4643560BB10E461EE0042528462146EA
:10041800ABBE0446384605B0BDE8F08314F9011BAD
:1004280004AA1A4402F8101C0133AB42F6D304AAFA
:100438001344002203F8102C4FF00408E946404604
:100448004946ABBE8046761B002EE3D03546102EBB
:1004580028BF10250023E8E708B5FFF7CDFF08BD42
:1004680008B500F0FDF8024A024B9A6008BD00BFCB
:100478000000000800ED00E008B500F019F908BD1B
:10048800F8B504460D4617461E462748FFF79CFF59
:1004980021682648FFF798FF61682548FFF794FF11
:1004A800A1682448FFF790FFE1682348FFF78CFF15
:1004B80021692248FFF788FF61692148FFF784FF17
:1004C800A1692048FFF780FFE1691F48FFF77CFF1B
:1004D8001E48FFF779FF29461D48FFF775FF1D4C99
:1004E800E16A1D48FFF770FF216B1C48FFF76CFF9E
:1004F800E16B1B48FFF768FF15F0800F0AD115F470
:10050800004F0CD11748FFF75FFF06991648FFF711
:100518005BFFF8BD39461548FFF756FFEFE7314650
:100528001348FFF751FFEDE70C1200081C120008F2
:100538002C1200083C1200084C1200085C1200083B
:100548006C1200087C1200088C1200089C1200082B
:10055800A812000800ED00E0B8120008C812000850
:10056800D81200080813000810130008E812000841
:10057800F812000883691A888A4201D0002070475F
:100588000268033A012A03D80233836101207047C5
:100598000020704782B00023019300932C4A13680F
:1005A80043F4803313602A4B1B6803F40033009331
:1005B800019B01330193009B1BB9019BB3F5A06F0D
:1005C800F1D1234B1B6813F4003F06D0012300939D
:1005D800009B012B04D002B0704700230093F7E77B
:1005E8001C4B1A6842F010021A601A6822F00302C3
:1005F8001A601A6842F002021A60A3F580535A681A
:100608005A605A685A605A6842F480625A605A6856
:1006180022F47C125A605A6842F4E8125A601A6846
:1006280042F080721A600A4B1B6813F0007FFAD000
:10063800074B5A6822F003025A605A6842F00202D5
:100648005A60034B5B6803F00C03082BF9D1C2E72F
:10065800001002400020024008B5FFF79BFF08BDCC
:1006680008B5104B1A6842F001021A6059680E4A20
:100678000A405A601A6822F0847222F480321A60A2
:100688001A6822F480221A605A6822F4FE025A601C
:100698004FF41F029A60FFF7DFFF044B4FF0006230
:1006A8009A6008BD001002400000FFF800ED00E06D
:1006B8001F4B5B6803F00C03042B15D0082B17D0D5
:1006C8001BB11C4B1C4A1A6002E01A4B1A4A1A60EA
:1006D800174B5B68C3F30313184AD35CDAB21549A6
:1006E8000B68D3400B607047124B134A1A60EFE750
:1006F8000F4A53685268C3F38343023312F4803FAE
:100708000AD00B4A526812F4003F0BD00C4A02FB85
:1007180003F3084A1360DBE7094A02FB03F3054ABF
:100728001360D5E7044A02FB03F3024A1360CFE7DC
:10073800001002401C00002000127A000C0000206B
:1007480000093D00012815D010B1022823D07047B8
:1007580011B1012907D070474FF0113303FB02F2A2
:10076800154B1A6070474FF0113303FB02F2134B1D
:100778001A60704741B10129EDD14FF0113303FBE5
:1007880002F20F4B1A6070474FF0113303FB02F26D
:100798000C4B1A60704741B10129DCD14FF011337D
:1007A80003FB02F2084B1A60D5E74FF0113303FB45
:1007B80002F2064B1A607047000801400408014025
:1007C800040C0140000C01400410014000100140DD
:1007D800012814D010B1022821D0704711B1012985
:1007E80007D0704716490B6803F47F431A430A6021
:1007F800704713490B7843EA02220A60704739B1FF
:100808000129EED10F490B7843EA02220A607047AA
:100818000C490B6803F47F431A430A60704739B1E7
:100828000129DED108490B7843EA02220A60D8E799
:1008380005490B6803F47F431A430A60704700BFF9
:100848000C0801400C0C01400C1001401F291CD859
:1008580001280BD010B1022810D07047012303FAE9
:1008680001F10A4A13680B4313607047012303FA26
:1008780001F1074A13680B4313607047012303FA19
:1008880001F1044A13680B431360704714100240C7
:100898001C10024018100240064A136843F0010376
:1008A80023F002031360043A136843F4102313601F
:1008B800704700BF04100240064B1A6822F001027C
:1008C8001A601A6822F004021A601A6822F00202FA
:1008D8001A60704710E000E0074B5860186840F055
:1008E80002001860186840F001001860034B196096
:1008F800034B1A70704700BF10E000E0240100208D
:100908001401002008B50B4B1B78012B05D00A4BAE
:100918001B689847094B1B6808BD084B1A6822F0EA
:1009280002021A601A6822F001021A6000225A6054
:100938009A60ECE7140100202401002010E000E098
:1009480010B50B4C23889BB20A4AD25C002108469A
:10095800FFF73EFF238801339BB2238023889BB295
:1009680048F6C802934200D010BD00222280FBE75F
:10097800160100205413000808B5FFF78DFF022167
:100988000846FFF763FF022200210846FFF7DAFE58
:10099800FFF792FF022202497D20FFF79DFFFEE745
:1009A80049090008014B1868704700BF2000002063
:1009B80030B5141E05469BB0184605DA8B234FF058
:1009C800FF302B601BB030BD4FF40273ADF80C3014
:1009D8000CBF234604F1FF33029305934FF6FF73D0
:1009E80000910491ADF80E3002461E9B69462846D8
:1009F80000F072F8431CBCBF8B232B60002CE1D0A5
:100A08000022009B1A70DDE707B5009313460A46DB
:100A1800014603480068FFF7CBFF03B05DF804FB0D
:100A2800200000202DE9F0478E6882469E420C4641
:100A38009046994637D88A8912F4906F31D00223AC
:100A4800256809696F1A656905EB450595FBF3F596
:100A580009F101033B449D4238BF1D46530530D57B
:100A6800294600F035FB064650B90C234FF0FF30FD
:100A7800CAF80030A38943F04003A381BDE8F0879A
:100A88003A46216900F0B4FAA38923F4906343F04D
:100A98008003A38126613E4426604E466561ED1BB6
:100AA800A5604E4500D94E4632464146206800F0C2
:100AB800AAFAA36800209B1BA36023681E44266033
:100AC800DCE72A4600F05EFB06460028E2D12169F1
:100AD800504600F0B1FAC8E72DE9F04F9DB00393F6
:100AE8008B8980461D060C4616460FD50B696BB9D7
:100AF800402100F0EDFA2060206128B90C23C8F8E5
:100B080000304FF0FF30C7E04023636100230993B2
:100B180020238DF8293030234FF0010B8DF82A302F
:100B280037463D4615F8013B0BB1252B3ED1B7EBB7
:100B3800060A0BD05346324621464046FFF772FF5D
:100B4800013000F0A480099B534409933B78002BA3
:100B580000F09D8000234FF0FF32CDE90523049378
:100B680007938DF853301A932F46052217F8011B67
:100B78004F4800F02FFA049BD0B9D90644BF202271
:100B88008DF853201A0744BF2B228DF853202A785A
:100B98002A2A15D02F4600200A25079A394611F827
:100BA800013B303B092B4DD9B8B10FE02F46B8E7D0
:100BB8003F4A3D46801A0BFA00F018430490D3E7E9
:100BC800039A111D12680391002A01DB079204E0C1
:100BD800524243F00203079204933B782E2B0CD128
:100BE8007B782A2B33D1039B02371A1D1B6803928B
:100BF800002BB8BF4FF0FF3305932E4D03223978F1
:100C0800284600F0E7F938B14023401B03FA00F00A
:100C1800049B0137034304933978062226487E1C37
:100C28008DF8281000F0D6F9002838D0234B13BBD4
:100C3800039B073323F0070308330393099B4B44B3
:100C480009936DE705FB023201200F46A6E7002352
:100C58000A25194601370593384610F8012B303A12
:100C6800092A03D9002BC8D00591C6E705FB012145
:100C780001230746F0E703AB00932246104B04A973
:100C88004046AFF30080B0F1FF3F8146D6D1A3893B
:100C98005B063FF536AF09981DB0BDE8F08F03AB92
:100CA80000932246064B04A9404600F081F8EAE783
:100CB8001C9C0008229C0008269C000800000000DC
:100CC8002D0A00082DE9F04791461F468A680B69EE
:100CD80006469342B8BF1346C9F8003091F843203E
:100CE8000C46DDF8208012B10133C9F800302368C2
:100CF800990642BFD9F800300233C9F80030256898
:100D080015F0060507D104F1190AE368D9F800209F
:100D18009B1AAB4229DC94F843302268003318BF91
:100D2800012392062ED404F1430239463046C047C7
:100D3800013021D02368E56803F00603042B18BFAF
:100D48000025D9F800204FF0000908BFAD1AA368A4
:100D5800226908BF25EAE5759342C4BF9B1AED18BE
:100D68001A344D451AD1002008E00123524639466D
:100D78003046C047013003D14FF0FF30BDE8F0875F
:100D88000135C2E73020E11881F843005A1C94F875
:100D980045102244023382F84310C4E70123224657
:100DA80039463046C0470130E6D009F10109D8E795
:100DB8002DE9F04301F1430C0C46097E85B06E29FC
:100DC8001746064698460C9A00F0B38022D8632945
:100DD80036D00AD8002900F0B980582900F083805D
:100DE80004F1420584F8421032E0642901D06929EF
:100DF800F6D120681368050603F104012AD51B689B
:100E08001160002B03DA2D225B4284F843206F48DF
:100E18000A2239E0732900F09D8008D86F2920D074
:100E28007029DDD1236843F02003236003E075298E
:100E380017D07829D4D17823654884F8453055E00F
:100E4800136804F14205191D1B68116084F84230CB
:100E580001238CE01B6810F0400F116018BF1BB213
:100E6800CFE713682568181D1060280601D51B6890
:100E780002E06806FBD51B886F2914BF0A220822E6
:100E88005248002184F843106568002DA560C0F21F
:100E98009580216821F004012160002B3DD1002DAF
:100EA80040F08E806546082A0BD12368DB0708D5F9
:100EB800236962689A42DEBF302305F8013C05F1D8
:100EC800FF35ACEB05032361CDF800803B4603AA50
:100ED80021463046FFF7F6FE01304DD14FF0FF3086
:100EE80005B0BDE8F083394884F8451013682168D7
:100EF8001D1D1B6815600A060BD5CA0744BF41F0C3
:100F0800200121601BB9226822F0200222601022F1
:100F1800B7E74D0648BF9BB2EFE76546B3FBF2F172
:100F280002FB1133C35C05F8013D0B460029F5D1DE
:100F3800B9E713682568181D6169106028061B68E1
:100F480001D5196002E06A06FBD5198000236546C1
:100F58002361B9E71368191D11601D6862680021D3
:100F6800284600F037F808B1401B606063682361C9
:100F7800002384F84330A7E723692A4639463046D8
:100F8800C0470130AAD023689B0713D4E068039BAD
:100F98009842B8BF1846A3E701234A463946304667
:100FA800C04701309AD00135E368039A9B1AAB42D7
:100FB800F2DCEBE7002504F11909F5E7002BACD1C9
:100FC800037804F1420584F842306CE72D9C000850
:100FD8003E9C000810B5C9B202449042034601D1B4
:100FE800002303E01C7801308C42F6D1184610BD6E
:100FF80010B5431E0A44914200D110BD11F8014BAF
:1010080003F8014FF7E7884210B501EB020307D850
:10101800421E99420AD011F8014B02F8014FF8E735
:101028008342F5D98118D21AD34200D110BD13F8E2
:10103800014D01F8014DF7E738B50546002943D0C1
:1010480051F8043C0C1F002BB8BFE41800F0D0F88E
:101058001E4A1368104633B9636014602846BDE819
:10106800384000F0C6B8A3420BD9216862189342F1
:1010780001BF1A685B685218226063600460EDE77C
:1010880013465A680AB1A242FAD919685818A042F8
:101098000BD120680144581882421960DED11068CB
:1010A8005268014419605A60D8E702D90C232B60B2
:1010B800D4E7206821188A4201BF116852680918CC
:1010C800216062605C60C9E738BD00BF180100207C
:1010D80070B5CD1C25F0030508350C2D38BF0C253F
:1010E800002D064601DBA94203D90C2333600020FA
:1010F80070BD00F07DF8214A1468214691B9204C52
:1011080023681BB9304600F063F820602946304652
:1011180000F05EF8431C24D10C233046336000F005
:1011280068F8E4E70B685B1B18D40B2B0FD90B602E
:10113800CC18CD50304600F05CF804F10B00231DAC
:1011480020F00700C31AD3D05A42E250D0E74B68C8
:101158008C4216BF636013600C46EBE70C46496887
:10116800CCE7C41C24F00304A04205D0211A304661
:1011780000F02EF80130CFD02560DBE71801002001
:101188001C010020F8B5074614460E4621B9BDE8F3
:10119800F8401146FFF79CBF22B9FFF74DFF2546DF
:1011A8002846F8BD00F026F8A0420FD2214638465E
:1011B800FFF78EFF05460028F2D031462246FFF79A
:1011C80017FF31463846FFF737FFE9E73546E7E7C7
:1011D80038B50023054C054608462360FFF7CAF8D2
:1011E800431C02D1236803B12B6038BD20010020C5
:1011F8007047704751F8043C181F002BBCBF0B58B0
:10120800C0187047537461636B206672616D653AEC
:101218000A000000205230203D2020253038580A8E
:1012280000000000205231203D2020253038580A87
:1012380000000000205232203D2020253038580A76
:1012480000000000205233203D2020253038580A65
:101258000000000020523132203D20253038580A45
:1012680000000000204C52203D2020253038580A2C
:1012780000000000205043203D2020253038580A27
:101288000000000020505352203D20253038580AD5
:10129800000000004653522F4641523A0A0000000F
:1012A8002043465352203D2020253038580A00005C
:1012B8002048465352203D2020253038580A000047
:1012C8002044465352203D2020253038580A00003B
:1012D8002041465352203D2020253038580A00002E
:1012E800204D4D464152203D20253038580A0000F7
:1012F8002042464152203D2020253038580A00001F
:101308004D6973630A000000204C522F4558435F13
:1013180052455455524E3D20253038580A00000099
:101328005B486172644661756C745D0A0000000078
:101338005B4275734661756C745D0A005B55736139
:1013480067654661756C745D0A00000058373A316C
:1013580035363B414A50656259514E525F6061765D
:1013680087989B9995989A989AA3B1C0CED2CBC6E4
:10137800C0C3C4C1C0C2C9CFCAC6C8CBD2D0C6BBFD
:10138800BCB7B3B0AEB6B8B7B0AFB1B6B3A69F935B
:101398008574685D6466676F767D7A7C78746C6244
:1013A8005E5C5A5A595B5F5E5A565A5146423C3205
:1013B800312F343F413C39393938363D4345414175
:1013C800444D4E505462716A554E4E57645A657377
:1013D8008B94928682837E7A707E8E9D9CA5ADBB0F
:1013E800C3C7C8C8C7B4A3A0AAACBEC2C2CAD3D216
:1013F800CAC6C2B5AFAFA8B2B0A9ACB9BCCBCDB262
:10140800A9A1927E6E676F727979716A63625E6470
:101418006E6B6A706D6E7A6B646B645E5A5B55585E
:10142800494D52574E44494141302F313E42444C78
:10143800546463676B5D5554545A686D72858F8A1E
:101448007F7C797E7E6D65676770758196A7A49DA0
:101458009E94857C6C72818692A1ACB7C3C0C8D1BA
:10146800D4CDC7C6C6C8C1C3CBCDD0D3CCBCB6AE0D
:101478009D9D9FA1A6A6A2ACAFA69E928C8B8274BE
:10148800726C6969646B73726B6F6F706B585E61B5
:10149800615E605E5D615D585F6060594B454B46BB
:1014A800424F4C4D4C52455148363938332C313621
:1014B8004A526067787B7A6F5C5648454950576551
:1014C8006A757A7D89827B674F463D3E4B5B6F85A7
:1014D80098A5ABADA89987817A7C828E9FB2BACA4B
:1014E800D5CCC5B5A29896888691A1B3C7CED4D7D6
:1014F800D0C4B09D857C706D788895A8B6B4B3AA21
:101508009C887F7673767C8C9DA9B4BFCBC2A68E4F
:101518007D726D67788994A0AAB6B4A992816A5E33
:1015280053504C596B758F95999486756C675F55B8
:10153800575F6670767A6E62554E4B382A3239425A
:101548004F5056595B5A534C4A4A4E555A676C7617
:1015580078757276766C69686B727B7F7E767E7B37
:101568007A746F77797A7C7F82867A77716A615A22
:101578005A59626F8086838687827D71757D7580F2
:101588008B94A0A4A4A9B1AB9F989293978EA3B073
:10159800A4A2A8A8A09281848F928D9BA5AEB2AB7D
:1015A800B5BFB2A1A1A59D9692969D9791999C923F
:1015B8008A868C86877F7A82817A7E7977766D694A
:1015C80070746C7577787B7F7E8483838A8D8B8635
:1015D800858486878B8B8982837F7B7878786E6811
:1015E8006667645A596062635F57585C5553545232
:1015F8005253515D696268756F6E7774787B747643
:10160800827F80807F81817B777D807F81878C8DC1
:101618008B908C858078746E73797E8790979B9F6A
:101628009B9C98908E928B848E8C84847E77766F28
:101638006E737174787D8187888B918785827B7CB6
:101648007E7F858D939A9D9F9C9B9D9D9A979B9944
:10165800969695938F88888B898380857E7E817CFA
:1016680077756F686762646261666E6F6F767274B1
:101678007A7A818584898A8689867D7C817C797D50
:101688007D818286898C8786837E817E847E787A36
:101698007B77777E777B827D7D8382868A8B8D8C34
:1016A8008981817D7A7A746B6A6A6662646A666720
:1016B8006F7275787D8280808485818286878C8D23
:1016C800898F89858A87838783808989878B8B8897
:1016D8008E918D8B88858682838078757168635F2B
:1016E80059585860676A6F75787F888B8E918E938A
:1016F800918D928E84847E737676717276767F85EC
:10170800858C8E8A8F908C918E8F959D9B989390C7
:101718008C878884837E82868A8989897F81817B78
:101728007F817A7E867D7A7D736E6F676565616677
:101738006D6D7A7E7D818283868E8C93999C9F9A2B
:1017480096958C8180726E72787878858B8587897A
:1017580082807C78787A7372726969655C5D564DAF
:10176800555A5E666E787F83828B887F83878686EC
:10177800898689888582817C7679787C817F858E47
:101788008F8F99A09AA0A89FA3A79D9F9D938C88AF
:101798007A72726C696A6C697374767B7A7D7A7B0B
:1017A8007C858384887F797B766E716E7175777A94
:1017B80080868E999A989D9F94959C9690939086F2
:1017C8008C8B807F787474716C6E7270787673719C
:1017D800716B656B69696C727072777373716C6F1A
:1017E800726B6E72767C8084868B888A89858589FF
:1017F800858791898A928B8081867D7F8A8A939357
:101808009A9E9B999898868583787579776E77786C
:101818006D6D71706E71767C7B7987868086857D2B
:101828007C817C7A7D7C7F7F858885868D8E858985
:101838008F8A87898B858889838987847E7F7C7A4C
:10184800817B7B7A787675716C7172737274777834
:101858007D76797C737275706B71716A707370764E
:101868007A7E7F7F8586827F888A828485817F864B
:10187800807E888D918F999EA2A3A5AE9F9B9F94F1
:101888008A8B89797D776C716D67666C6D717472FE
:10189800797A7F818685827F7F7D7E817D7D7C7957
:1018A800797D7A77787E8080848389909293949BDF
:1018B80094939495928C8C85817B7D766D6A646215
:1018C80063696C6E72797A78818786808183747097
:1018D80073655A625F595D5D5D646E767C7D889143
:1018E8008D8F96958D91968E8C94978E929B9691CE
:1018F80091918A8B929394959D988C8B8881787A14
:10190800726A696969636A6A69696C6C6670727817
:10191800808A96969B9CA1A19C9A939389807D7CB2
:1019280073727771727478777F878B90939693939D
:1019380096958D87837F72676B6B5F63676063665D
:101948006C717A81868383877E78797A6D6A6F670E
:10195800625D686C656973716C757B7C828E939629
:10196800A0A6A8A6B2B0A4A4A49B8F8E88867C75D6
:1019780077746A6C756F757F7F7F818780858D85A9
:10198800888A877C78716A6E6D6A727875788285C4
:101998008A908F91938D8A8B857F8686827F7E7DC4
:1019A8007A7D7E797A808180848B90908E8F8E82EA
:1019B800807E737779777976767C7A70766F6465CE
:1019C800645959636367697676797E7B7873777132
:1019D8007571737A8083889591999D9D9A9FA49D2E
:1019E800A2A3A4A5A29E959089887E766E6C747039
:1019F8006C7479767C7E7B797F79787C7C75717B59
:101A08007875797F7D7F827F878D898B948B868B94
:101A180081797E817B85857C8188847E82808386AE
:101A28008786898E8F8B8B8B807E7B7070737475A5
:101A38007778757774706C6966616364656A7176C6
:101A480079817B7476716769726D71787776808633
:101A5800888D8F989DA6A6A8AEB1B4B0B0A29D956A
:101A680086827B716D6A62606364636C71787F845F
:101A7800918D8F95958C88867A7879756D75777341
:101A88007777767879767E7E808A9597939B9994F6
:101A98009294878284797878797278787675707379
:101AA80072797C858D8F949298958F8F837E746AD6
:101AB800615B524C4F4F51535A5F616A747E818CFF
:101AC8008F8F94928E8C93898684817E8080839078
:101AD8008D90979999A0A2A4A7A3A098948D837F8D
:101AE8007E756E6C6362635F5F64676C7074777B2E
:101AF800818A96959B9B9D98908F89867D7A726A3C
:101B080068676568706C6F7981878D9898A0A5A1C2
:101B1800A39B9A918E887C746D6A60616161696A21
:101B28007179838A898E9496918C86817A70696698
:101B38005E5856534B4E53565D6369707E8386924A
:101B48009CA3A6A8ADAFA8A5A4A095908C88817CDD
:101B58007F7C7F7C7B7E82837C84898D908E928B38
:101B68008984837E75726D6B636365636A6E727850
:101B78008383848E93999B9896938C88867F7570BF
:101B880071706A6C6D72787E8689939692979F9D24
:101B98009A97948E8780807C6C6C706A5F666B679E
:101BA8006F737271756B697473797B787D786E6CFD
:101BB800716861696964656F74777F8B94979EA17A
:101BC800A6AFB5B9B0B3B4A59D9D95817B78736A6E
:101BD800626969656974766F767F858D99978F9745
:101BE8008F7C7A786E676B6F736E6E797A737B848D
:101BF8007976828A8A9B9B98A2A0948D89817B7131
:101C08007276747179827C7E878278758282868CFE
:101C18008B91938C86827B786F6769665D6164615E
:101C28006267696864636F77777E898D8889867F44
:101C38008078757B8080888E8E96969496958E9502
:101C4800A19C9EA7A099978F847D71666865666A36
:101C580070767A7D787F80797C87898A93928E9650
:101C68008C86807A7472737079767A7B7C72747AD7
:101C7800777A81868B93918C8F8E838584827E81FF
:101C880080828281847F75727976777F848B97933F
:101C980093908A7C756F675F56606566656D685F4F
:101CA8005F60605F676B7481858D9399969195925B
:101CB8008C818B9393939E9C979995958B87848A17
:101CC80088838A8A89877E767A7D72777E7D7A8311
:101CD8007F74777576726C6F7C7B7C838785878051
:101CE800787C7F7C7A84868789888482817C7D79E8
:101CF8007C8583888F948E958D868384857C82836A
:101D0800877F84837D7D77726E69686F706D71756A
:101D1800746F6C666A6D67676C736C6F747A7B75C9
:101D2800757A72748386878F9B9D9F9B9C9D9F9AD3
:101D38009A9A9A9B9393928A7F817C6B6A6C696862
:101D48006F757E7F808A8C8D8D8C8185877E80875C
:101D58007C787E767474757479777A807B828A8DC4
:101D6800919B8D89918B8588877A7D737176706E4A
:101D78007B7E78818282858C858A918688909186FF
:101D88008C887A75716D655D5E6764666C6B6A6F69
:101D9800766E70737278807B787E7E7874747471D6
:101DA8007076858A95A4A2A6AAAC9F9C9795998FD0
:101DB8008C8F8A7F83796F7372686C707A8283875D
:101DC80090918D918B89847F817E73717770666D18
:101DD8007473777A818388878B86878787958D89BF
:101DE80094938283837773747079797B86847D85F5
:101DF8008F86908B8F9492898D89737471696063D3
:101E08005E605C5F64645B626B6C7A777B7E898101
:101E18007B7C78726D6E72797E888A959C9B9B9884
:101E280099A3AAAFA1A2A8A08F87837868575A5907
:101E38006164757F85858184827F8A877C85867BBE
:101E4800797E7A81857F8388828485878681757D7E
:101E580083858C888A8E8D81897B7271726973788B
:101E68007884848B8C86768083908C8692999297DE
:101E78009C958A81817771666E69645D6156596344
:101E88006D75737C767163666765606668767A7C63
:101E98008E92918F8B8C98A3ADABB1A9A59B8681AF
:101EA8007E717376707A7F87868A8480736C7A8471
:101EB800818D948B94897C74716E7C7D7B8A9595D9
:101EC8009088807B65676E7171808793938C897E1B
:101ED80078767E7C81848E9184807C747472808D07
:101EE800969CA2ABA3918880736B6B6D6A707377B5
:101EF800766A62675D595E72757A7A807D686C6110
:101F08005C5F696D7C828F99968E9F938C928E9977
:101F1800A09B94947C7F7972707D737E908B8E9257
:101F2800827A7561706C727D8E8B918E909A8D8C91
:101F38008C98879696898B807F775F5D6A6D7184B0
:101F48008C7C87787B796E6D6C7878918698948D87
:101F5800898077788889A2A39C9A9C89887C7168F3
:101F6800666773798598968C867F626B5D6B6C6704
:101F780065606055575355565F62767C98A59C9767
:101F880094897E82869A9495919C9089887A7779AB
:101F980073758C87A79B8B86856662737186898823
:101FA8008B92829284827E81747D888EA3928C7EAD
:101FB8007D64717078898D8E8B84747865626065B4
:101FC8006E7C9199A79E91857E777D7F8B9D9C9E47
:101FD800938D787B6D67686E76859698A6948672E1
:101FE8006E61646774807D7771655B57444856639A
:101FF8006C88939C9E94887B706A6E7890A09C995C
:1020080094897E70626973778E97A4A69D92806E7C
:10201800686C6F829C9D9B988F857869697980919F
:10202800949E9FA2998774685F606778908F8B836E
:10203800826B625561697D81879297A38B7D767DDE
:10204800727B81A0ADACA29B91766B5F6F7C91880F
:1020580090989B8F77655F635A5F668A94907976CC
:1020680069574E51647080708484847766606A71A1
:102078006E7790B4B2AA959582746C7585958E8B9F
:10208800968C8A7166646B68677195AAA7958D8A24
:102098007B7B7480959C949795978C776E6E727104
:1020A8007183A19F8B7469645F5B617F8F958B8857
:1020B80085827B6F707780768098AEA28D7B7D7CE1
:1020C8007A788199A29C898D83836D6664716C6E20
:1020D80082969C836F626B5E5F597B8D9181797765
:1020E8007A6D4F5459665E7A8FB0A5908188847D49
:1020F80075799E9689767E7D826D666F817B8397E2
:10210800A4AA907E7B8781847CA1A7A0857B878BEE
:102118007F6D727E8478828FA38F77687270695E14
:10212800798F867D6D7B8487757380928D8D96A55A
:10213800977B67636B6E6F86A1A5A38B8D908E7D51
:102148006B707E7F797F8F927A6961676669717D2E
:102158008482726D6E787C69696E777276818C8004
:10216800736669777E8A8894968A78797982786C9A
:102178006D7A81798D9AA49692868C8F8C818088CD
:102188007D756C7887938786909B959C9C998B7BB3
:102198006D717D6F706E7B736C5D66727876767D1F
:1021A800869299AAA59B8B928B817878777D767297
:1021B800747C88838A84847F83929F907E7D7C79D7
:1021C8006D646B7D857D737377756C65696C666806
:1021D8007A8D8D847F7C7F7A6A7179817C7675753A
:1021E8007D7575798A8184868D9D9282757A818ABA
:1021F800858E989C8D817C7A747470808D8C8D9A74
:10220800AB978E798483897F7D7F7F7A676B6774CC
:1022180074798291948F7B7F82806F6B738D978F97
:102228008E8C978381757C7E8273939E7B6A6E9178
:102238008F836976818C75696F8089787D8E978F99
:102248009289846956607B7A6A575A6B7B70667389
:10225800818676767B958D8775716D707F90A08667
:102268007F717B7B77757A83828588A4A2A19A8BFC
:1022780087868D929E93806C6A707A858D8B888410
:102288007F7C73737F7971737E92A0A08E816B6B54
:1022980061727687868A8D777877959389747B8142
:1022A8009E9B8C897D7466626B8590A68E7A6D6C18
:1022B80086877C706D79828D8893938D785A566461
:1022C8008B877A61595E76757675747269607396D4
:1022D800919E7B786A799294968E8E7888787980A8
:1022E8007A7A72727B99A8AB9E867B74737D889785
:1022F8009D91938272687B7C777B7A90969882799D
:10230800707B6D607D87A9A39487716662798087E9
:102318007F848E959882828676594C6688A0A28A98
:102328007F74777683858C8F8B948089858E847073
:10233800585D7F8797866E5852596F7D7F83797D68
:10234800776D718184857462687880858679767006
:1023580074838D97948B888781828A8E867E7E830C
:1023680084878882847D767776819599A0A29585E1
:102378007D7D8391897F7E878C8A75686E7881756B
:102388006C7785897D7170757D878C92928E837547
:1023980084858178727F8782787B92928876708331
:1023A8008E96908784928C8372777E78675D626D53
:1023B8007A758381736259586F797F8989807769C3
:1023C80064797A807D7A7E838B8F918B7F807E760D
:1023D800788089897F7A817B7C979D9D897D8676A7
:1023E800777C879BA397897F7A8787848481828576
:1023F800828484838680857F71717273706F6A624C
:102408006D738294A09F94948D8D8186898D8F8819
:102418007B6B838D9291919484746C6A5D5862642D
:10242800677380837B7272697283878D8D979492AC
:10243800918C877F7367645A5A5A555658677574D2
:102448007E827D7E868C9DAEAAAAA3989080808984
:1024580085867F8B907F7C76716A626E7678848EB3
:1024680094939A919493959C98908C847D83858479
:10247800737C6C5E57636159616E837F8B849C9B10
:10248800938B8D9D9B9F928B8F887B7D7E817E8495
:102498008484736B756C746C5E5E686C6D76807822
:1024A80082978D898D8887867F808786849491819D
:1024B8007361585533445A65756D807D788286946A
:1024C80098859D9E9B99919FA6999D979A8F878A9B
:1024D800717566605F6C50606E727A808F8B98A69B
:1024E800B1A79C958C889C8287948D7B7D6D68654F
:1024F800495C676C616E858F908B909CA69B8A92D5
:102508008478727B797A888D94938D6E817B726AD8
:102518006A696B8071807768777572897E858B822E
:102528008B776C868C8A8D7C7B868772786A595CFF
:10253800635D5A6B6980847B868C898A867F8282F8
:1025480085979AA4BFA5A7A38880736E6970786ED3
:1025580070787C856D7F8B858B8C98968892968B0E
:10256800878789828C7871796E61656C6471787BF4
:102578007B7B808C958F909E95928E7E8D747190CA
:10258800929191848C7E7568616C5E655B6F657BEA
:10259800837F8F9089828E7F84798776848E7F8AE5
:1025A80088866472554D5B4A77736779737381784F
:1025B800788B8B8390969090888D8F838F929DA730
:1025C800999982978B78836D6C7170687D7F72881A
:1025D8008F8E89837F7889838698919C98938E8F34
:1025E8007D66705F5E68656A887772808387878B8F
:1025F8007A958E8286959C7A95A28D92847D746A4E
:102608006668786F726C6E5D64826C899089988F49
:1026180097839382737D7F78728D777B7166585C20
:10262800605160686A7477838E7F8F81908B7D8319
:102638007F867E91949DADA493A3877883777575E3
:1026480080747C84778080797F8D86808C8B988A53
:10265800959680869182958576825C76667E787876
:10266800706B76697C7F8E89898E956E8A82798D6A
:10267800818F8E8F949F8C8A826D6566676A6F7969
:102688007879777C76758A7A8B7F768383828A904D
:102698008A847B7E6D6A6860646063695A6E696665
:1026A8006F71827B8D8E918D919B8A8E97988F9E6C
:1026B800A99F9A8C8A6F766C72776C807281787F0A
:1026C800819291968E8D8A7B8A7B8B86948B8E8B5A
:1026D800927C6E84675E77746A7F8B7D828E748746
:1026E800778384717981737E8F8E928B989293838E
:1026F800937872767B765E85676D7B626C7D7E856E
:102708009B837C8A8584808D8583997E77856559AE
:1027180076594E57625966746F7F708A72918D7FB1
:10272800888C8B8692859B9CA598AD8C958D83868D
:102738006B7D74797A7A7C7978867A8D8B8C8382B2
:10274800837F7F80A08C90988D918C74856A60754A
:102758006865827668936B6F807580807F828587D5
:102768007B94908E9796A493938088736D746D6410
:10277800686A6D7B71857C78898C8F87878F7F8568
:102788007697816C956B756A5D665D5E5067676A62
:102798006C747C7A8074908B838D8F907F85928CFB
:1027A800999CA19D9D9B8F83857877706B677489B1
:1027B8007589818983877489818C9083A4898E9F88
:1027C80095919D728379756E686F6972657A637B7E
:1027D80080718F87837D817E80898D879B92899484
:1027E80089898489837F717B5E7E736E7F6D787241
:1027F8008672807D808180797E8D7B858A81927FBB
:102808007676646D625E63575F6160815E807D6825
:1028180089868385A0818DA0A7909AA18C968D909A
:102828008D888A8B6C827D7C80798179777B8F7F9C
:102838008E737A8B799590908F9193879D867E82FF
:102848006D7E6E6B71796B6F7170746A72797F8847
:10285800807F8881938B9086989F8B917E90847BD4
:102868008B78667A81667F7C7A7E5E5B6C72708715
:1028780083837B81968D8B867D81796A7374777764
:102888006E75816C5E65474E47495C669AA09E8C62
:1028980089857E77786B6E918DA2BBCFCDBD9D92D9
:1028A800836C5B4D4C4C6F678A9EA3CCBBB09190F8
:1028B800819098919F79969C9D9B706A64717E6BBC
:1028C8004D4F66646F6C7D98816C6F7E7E888B99A6
:1028D80099A8AB8A79647C8E86726F6870899FAF7D
:1028E800A99E8A7E74967868753F416475948F5462
:1028F8003D3440557B9E958B6239678FBFBA99737B
:10290800658B7D838C84656C505F79838F7771814B
:1029180089779299918191AAD0BB9FB38A7C8E893D
:10292800614A4C54889F827C6B555951515C638530
:1029380081717F99C0BBB1B0A49C797DA5B8AA7FED
:102948005E577277676E75939894A8A5A0938E9337
:102958008E6A47506FB6D1C4AC8289839F8F696BEA
:10296800594762727B99807E55584B5A71657770CA
:102978007E6F8E84908C5E5061847F7A72776C74DF
:10298800625563596A6E84786994A5B096756D7AB4
:102998009496A3B5ADA59F9687908D83785861824C
:1029A800968B8C5D515550685F5D646A6C7989843B
:1029B800779178738684938D82858E79859BA6AD71
:1029C800A38D6E8D9E8D7D82869DAF8C79636A8680
:1029D800967B6B606792A187726260736D6B6F7C88
:1029E8008EA07E656580988668534F649296866C43
:1029F8007485776C767B998D6662678ABACFA5985D
:102A08008E8EA19CA0A298919A96788C8F958E6AAA
:102A1800645D7C9FA58B7F72798987736C6B6F7EF1
:102A28007A897574807C6952456B8E868D847E7D2B
:102A380088949F988D91908473706FA4A98D766205
:102A48007B707B61566067797F858186878F766921
:102A58006E7C88807058596E7D8384797081796F17
:102A68007B7C938F64544F58677A8D847570737329
:102A78008488808683818E97A8AB9C8276838C9885
:102A880098A38E796F5E718E98A5A397898D9C986F
:102A9800997B78696D8A80939E958579686D809118
:102AA8009788867883897D9282796C6A6E6B87862F
:102AB8008A8E775E4F5B748D8D868C869595978D03
:102AC8008175697F74867F7B967B726260818F9542
:102AD800847467677F827877686C6C6C70646F88C1
:102AE8007C6D5C567D879F90817A7F9E94977A72E1
:102AF8007B728686838F9994877769829DAB9B8347
:102B080074818B84846F707A7A7F8380868B907AC5
:102B18006F6F81978E887470778F8B8B80737772C5
:102B28007D77848A8A978E848085837F8382858F48
:102B38009E96988478797185908D8884858E7F8912
:102B48007C6D706B6F66737681847F73635D5F667F
:102B5800595E5661797D93867C76748079818390FD
:102B68008D8C7A6B75889C8F937D79859996817702
:102B78006E7D7E7F87828C8A828471738C94908527
:102B880076718AA1958A736F797D849090898A7508
:102B980074636B86808D7D7C808C99857C63616590
:102BA8006B7B89928E8D87817E7F90878C817484E0
:102BB8008A999897908075728592948A777C6567D0
:102BC8006E73736D6A5F75757E837E7C6864617AE7
:102BD800897E7E6D7F71828D868E787F76898882E8
:102BE800988C92847472809A97967977767D8D877F
:102BF800868388899792888D8E888667626F859488
:102C08008E856F7D7F818273716A7B7F827E7A8CED
:102C180081856C6C6D8196898B6473808399867FBE
:102C28007B878E9082749591937D65717C998D8652
:102C38006A6A8482946A635C6B7A75756783848533
:102C480072645F7287857A5F5A7C879B8C737B83FB
:102C580090848071808E8B826F6F81899287747265
:102C68008F979C8D71807B8C82828D8DA69E9B8395
:102C78007483849E897D7A8899948A6F867C80740F
:102C880067706C878183716F8382978A87827D835F
:102C9800857D7B736C6B6D7D858AA1A4988E747A13
:102CA800818B8C81807C858F8E8D7875666C7A7629
:102CB80082868E7F715F5F676F756C6C676E858EBD
:102CC80084655959707F7E9195A2947E695B696E7F
:102CD8007871778187ACAE9C847670808987969D61
:102CE800A19281757278818B898B8383A8A48C6E5D
:102CF80058546B73718A889A8A7C706F75798C7B4B
:102D0800857993ADA1927167647A77848E848A7B82
:102D180074646C718A9788847C9A9B9278635C71DE
:102D28007E7E95929995866E6C62747F8283778297
:102D38008492786D515367697D7A807E806A5E518E
:102D48005D868D968F93939B96766A5C727C88924B
:102D58008F9FA28C7C756F88939791939A979A8985
:102D68007C6E6E79808B91928D87716B6B78867F84
:102D7800838182787C736C706A7B7B92949C9D8142
:102D8800746E7B828D79777E817F76776F7F808F77
:102D98008590A4A89E806A587D828B8289919189AA
:102DA800736E68776D756F7F8B91845C47455B6345
:102DB80070707B81858077797F8683867A90A6A4D8
:102DC80099766568798286888B908F8B7E858C85CD
:102DD8007D707687958E8A71728589918E8D8A9499
:102DE80083877D8A89888D77838D8D807456676DFA
:102DF80081878A897D817D78718071857383908FC1
:102E080089786A5F797C898C95858A83817A908EA6
:102E180090937B8A859488785B63697881767375EB
:102E2800776E6A687377816E6C6E75716B61678394
:102E38008A8F908B8B8E8279707F8C977D797C7D41
:102E480087776E71918DA2A08F8D8D8F7F7D848CF9
:102E5800958C888C84817269738891A69A8B827606
:102E68007665606979828A868683857F79797D88A7
:102E78009CA197887C7973696C748395887F757039
:102E8800777E74747E8E92858082807E6C6E85914A
:102E98009F8C7C6E7787817D717D8781725E676D7F
:102EA80069585F728F96806A54676E7579748D9CC5
:102EB800977D717B7B735F6B89A8A2968A819999AC
:102EC8009683889D9C9077828C866F6C7E97A18E66
:102ED800826F7B838E806E8486836E6B7D877C7128
:102EE80074869C9185797780959484929083715F9C
:102EF800646F726E75819AA094817074808F8184DA
:102F080090918C7E76757D767277919D8C7F635DCE
:102F1800657A77727D878C7977696E6E60596C8374
:102F2800878B79767487867F827D84757167676EF3
:102F38007F7C80948F968C8477859492998A8D90E3
:102F4800928C847D858B909E90887978727883881E
:102F5800978E897C6D6B635968737F9C9F928C8573
:102F68008186837F848082857E7D7969767B829B5A
:102F78009E8F807A7A7A768482888A82848578702D
:102F88007A7879848F837A70747E7E8A7F78796C78
:102F980068655956666D73869385746A6A7D79800B
:102FA80084859292897F6B5C6A6F727D9DA39585FB
:102FB8007785929F9F959494918E705F676E7F7FBF
:102FC80092A99B90878B8E888374838E8588726480
:102FD8006C676D72789392847B7B8D948B808283EF
:102FE8008081786A69676E7A8291948880828C92EF
:102FF80090878D938F93837C7B797778747A847E9E
:103008007B70747C79726D787A817B6A5D4E515DD4
:10301800676B7F888F8D9396929183817A7F7B7B74
:10302800776B666E74737D899592A2A390968C894E
:103038008A8A898787817B7A7D7B7B829B9BA0A8F4
:103048009391816F696866717672706A797A7F7A0E
:10305800808992A59890918077716B717C82827F2C
:10306800737B76737E85889D9B888F867F7C7C7931
:103078008383838276767771727D809497898A7F3D
:10308800716B6F5C62686B73635D5D6568767A8689
:1030980090939A9884787A78747C7D8284787E7EFE
:1030A800828594A2A5A09C9785797C726C7376869C
:1030B8008E8E8E8F8C858D9290918C8D807371728F
:1030C8006E6C6F727A7D8381908A8D968F8F878BD5
:1030D800807166656764646D7480838D96919D9C2C
:1030E8009E9F969289807775716B65686B6B777513
:1030F800797D868A8493969490837269675F5A581B
:1031080052586970757B87909296948E8B878381CD
:103118007A6F676D6D6E7372747C8085888B9699F3
:10312800A3A49A9697968C88817B81878583807ED5
:103138007D7F7C767A7B7A7C82847F80857F7F78AE
:103148007278747E7D7B797C8A8A8C86898E8E8E55
:103158008E8B858D898277706F7075736F707375BC
:103168007E828A898D8F828685827C7B756D727757
:10317800787F827D7D818382898982817E7D7A7D47
:103188007A7B787371716E6E7679807C80848082A8
:1031980080848185888587898A85857F84888B8FC7
:1031A8008F91897E7675767B7D7C7D81848486850A
:1031B80083837F7A787A787C7D72757B787D868444
:1031C8008B83828A929797918682777872707574CA
:1031D8007679787985858A868185848889857C78D9
:1031E800747777787B7C7D7A7F85868E90878580DB
:1031F8007A75716E7170737A7B8185858E938B88F1
:103208008982858981766D6A676971747780848916
:10321800959894968C878580807978747471747386
:103228006B747F858586878E90908F88827D7D7967
:1032380074737677777B86888B8D8A8482827D7992
:10324800767D7D7D7C7B7F81808585837D7E7F7893
:1032580079787A7375797C8182828186919997943D
:103268008E908F867D6F696B696B6D696F747982DB
:103278008A8789949496968E877E77716F6E6C6A2A
:1032880068697380878E8D8D8C8787878988888801
:10329800837F7C8080828A82808383828179757033
:1032A8006E6D6A73777F82817D7F82879093918C20
:1032B800878387827B726B696C717A858C91959212
:1032C8008B8A8C8C8B867E78737570706E686A6F4B
:1032D800797D878A8A8C86828185837E807E7F80BD
:1032E800828489867F7E7B808487817E82827F7AC2
:1032F8007A7F7E7A77797F848A88888280787A7BD9
:1033080074716B72777D857F838C8D8C898D8D90A0
:103318008D88857D7B7C7E79767072777E888080CB
:10332800807E7D797B7B7F80807D79787B868A88AB
:10333800838184868A878381828076777A7F817B7E
:1033480074727B82838683868B8B8281827E7E7772
:10335800736E728087817D7C7B80808487868C8A6F
:10336800808489898886807978787E807B75757471
:1033780073797A78787E8283898B8D908F89817B27
:10338800808B8E93938F807B7A6E73727274838531
:1033980084837D685B625C62738986868D8E8B8A86
:1033A8009590837D83837A7C8B8E8D8C8D8A9BA66A
:1033B800ABB0ACA8ABB09C9A8F89827F6C555A5839
:1033C800484344372A2D34343F4047475663718079
:1033D8009CA8ACBCC4C2B5C9BDAEAEB4ACB0BABF93
:1033E800BEC0C9C6CDD4D8C8C0BAB4A5A9998E8B59
:1033F8008E867F85888C909C95928E9077716A5A7C
:1034080051463C322F32312E373834363E413D4911
:103418004E433C3A3B332C292F363F3C4D595B6495
:103428006F796E6C7F857575827D6D6E7C858E92E9
:1034380099ACACB0B8C6CAC7CBD9CFC7C9D0CEB97A
:10344800B2B6BFBAB5BEC0BABFC8CDC7C4C4CDBC7A
:10345800ADACB1A19A9DA39E909197958D8A9198B4
:103468007A6A60635140483A2D2C323D3537342F03
:103478003537374C433D3C3F493239332A362D2FB7
:10348800352A39343F53526B7E777C79867B778136
:103498006E6E676876625F6F5566757F9199A0AAB0
:1034A800B6B2ADB3A5999C9A9D979AAEB4B9C6CB5E
:1034B800CCC9C7BEBBABA4A9A09C95AABFB2B5BDD9
:1034C800BEBFBCC7D3D3D1B6BEB49EA48C7E706732
:1034D8007362596B636B626170717971747458614E
:1034E80064554A495B53424444434D485F64616AAA
:1034F800667066676D5B4B4C51493C383E3F3C35C6
:103508003E505B6869646260666662687571717076
:1035180077869186889699A5A3B4A7A5AAADA99DF3
:10352800A69E998C939DA8B4BBC6CCD7D3CAC7BB5B
:10353800B8BAB3B8B9BBABA6A6A8B0B2ADAEBBBE5D
:10354800C9B6ADA8A5AEA99EA18970624C46474EE2
:103558004F5B67685B6356483E3C474658614C3E44
:103568003030343D43454E473F3636272F464B4D86
:103578004A504A312727283A5167807E7765594E45
:103588004C606972857B695A3C41415064778B98DD
:103598009A92817D7F94A6B0B8B09B8C7663696956
:1035A8008AA0C0C5BAA98F7E8699A1B2C4C2B7A2A3
:1035B8008D86879AA6B8C9D3D4C6AA938EA9B8C946
:1035C800D2D4CDB29B85747C93AAC7CDC9BBA19038
:1035D8007C8299A7B7B8BAAA907C78747B8397A4A1
:1035E800A69A7C665A5C71909B9B9587674E40466D
:1035F8004D5E6E7A7C6F5B483C383F5773717269D9
:1036080052392927324254616965523F35363F5451
:103618007377726854402C2A3449617482857F75A7
:10362800645D5A6C88A4A9A19A8C766A6E788D9488
:103638009E9E9D958A888289959CA29D989588765C
:103648007378929A928C7F7667635E6479808A90A9
:10365800888D8A837F818FA6A7A9A9A7A79F9494FD
:10366800A5ABAAADA5A6A7998E8792A5ACA3A2A53E
:10367800B3B6B2ACB0ACA6A19EA4A09887756D7085
:10368800706C6E747E848A9098998C7B6E7E7E872F
:103698008A7C706B625A545367747F7676736A5F5C
:1036A8004A586A738E8D8C8575695F5857606F7F2D
:1036B8007C7466543932363F5764727C777067651C
:1036C80063687481898D867C685E67738D9598962A
:1036D800887061646B8095ABBAC8C6B69B7D7B7AEF
:1036E800848F97A09E835E4B485165717881898548
:1036F800755F58606B7B859298927C64586070897E
:1037080099A9AFA88C6C6267707E8DAAC3C3BAA44E
:103718009B99A3A3ADB5BCC0A9887675787B839126
:10372800AAB1AA998B86848A8894949B92765B55D1
:103738005A656E7689978973645B5B626472858A61
:103748008E7C66595A5E6B718B9DA18C7463544F45
:10375800535C748B8F928377695C565862747F864A
:103768007C7C7B746F6E778786807A6C6D6B6A68F9
:103778006D80919B95838383818291A3ABA395856B
:103788007C74736D6E7B86949B9A93948B80777B05
:10379800828177675857575D5C65728492908881FB
:1037A8008275747887979B92887B7B7B7B818691D7
:1037B800A0A3A39A918976777C8E999EA29C9291D8
:1037C8008786827D8689979C99978E8484878E8B3D
:1037D8008E968E8A837A766D707470777E7870652F
:1037E8005F6672746E736D64605F6060677785830F
:1037F80098A4948C796D6F706E707975685F5F5658
:10380800545B687A84A8B2A5A2978C878079818C4A
:10381800877E82847B78797B81879C9E958F8A8836
:1038280087888891948D7E7D7A706A6B6C70787DBC
:103838007C6E625B5857636E7B8C89827E76737070
:103848006E737E929B9F95888272686E767F8A8956
:103858008D8E9292919C9FA0A5ADABA59688807CF9
:10386800858F929090816E615B5765737F92A0A758
:10387800A6A0918274757D8A8B8F8C8A7D757472EF
:103888007372777D8A797D7D7675747988887B7681
:10389800696052504B545C656D7D7F7378747468B1
:1038A800707E8C8B8D8E8B8A7A77757F7B7A7B8501
:1038B8007975827C786D76899491979E9F968F9280
:1038C800979F9A9098A4959095847E72707E877C35
:1038D800777A756C5C5D576261606C7871747A6F29
:1038E800706869737C67677176756F7A808F909856
:1038F800A3A79A94A1A4AEA2A7ABB1A48B88817701
:103908006D71748A93949D9C8B7F898E857871786C
:1039180087846C727B7A71676F7A82798289817504
:103928007D848275676F72766062787F7D767C842D
:10393800888180858376737F8D87797D7F7E7867A0
:103948006A7A797570778588818180756669727BF6
:10395800736B72848E887C8A9C9385777D83837B46
:103968007D82827B89959A8B878891908C8A9AA090
:1039780094877C83827B70746C6662777B837375B3
:103988007986837C788791847E76837E7F72796C52
:10399800716F8283867C83858A8877757884777649
:1039A8006B817E8887908D9C969A9E988E7E777084
:1039B8007A71808496979B93928D8A847B79797F9C
:1039C8007A8981818070605E4F4C464F636B78784E
:1039D8008E969E9292969990878F88978278727722
:1039E8006C6C74828B88888187807D757A747F750A
:1039F800818D9CA19CA0968D7377797E7375727A60
:103A080083817B7A7F74715F6C727A807D7D807C24
:103A1800798B929C898678787D6C697C817C868C90
:103A2800A7A0A4A499837363686D6D6F656F6D7E9D
:103A38007E7E828A7E8380798E9CA2A0938C8576F6
:103A480074716E665F65726F706D726D7378829057
:103A5800A4ACACA4998979807D786E7B79887C79CF
:103A680073746D6F7171868BA19CA2978F82807F12
:103A78007C7484898A948379756F675B58666974E6
:103A8800707782837672717B747A8492A59B889012
:103A98009B8772677D7B877E888D989284787679FC
:103AA8007376758F8F8D86908A847A797A8A8277F1
:103AB8007E8A9C9185797F73675868685F5D6369C2
:103AC8006F7B7888999C9196A4A197918A7F80753D
:103AD80071757B7E7E7E73797C746D828A8B859509
:103AE8009B9A94857A76786B7380948B8E8288857E
:103AF8007775777A6D686B72666B61656A6E7177D8
:103B08008D9EA09C9C959B8C8684857974777C89F6
:103B180085837C887D715D6D7C7C76767E858882E8
:103B28008A8B8B848A889B8F8C848B81736B788D2E
:103B380087776F746A6C596C71757A888B9D918DD3
:103B4800918E85716B677C7B78747E8392858F8F6D
:103B58008B8C8286918F838B908976706C8080762F
:103B680079828A887989867C7C7785847F7479795B
:103B7800664E49576D6E787F8A978D86929192949A
:103B880091999094898B908979757A837B726E6DFF
:103B980070676A737E827D828E8C938F959D9886DE
:103BA800797E83767278838B85817D7D755F5C678E
:103BB80062676A78868A7F8389918E8A8D908D86DE
:103BC8008583828181878E86858180776C686F7511
:103BD80081889093908D827D7E7F7F7D7F86817C9A
:103BE8007C807F787679777571706F727277818251
:103BF8008688898E8C898C909490857C76716B6B85
:103C08006F757C81858788837F7E7D7A7D818A8FA9
:103C18008D8D8F8B858288877E7B7F7E7B7D80865E
:103C280086847B75736E6766666769707B82868536
:103C3800878D8C888B8B86827F74747A8387899230
:103C480099968F8682827E7B7E8283807D7A7B7C3A
:103C58007775777C7A7A7E7A787A7F848685858686
:103C6800857B736E6B6E6F747B858F8D8B89817A84
:103C78007D82828385838587878683888A88867EF6
:103C88007A7C7C7E7C797A7E817F7C8084888B8D2F
:103C98008E8D8F877A7374777C7E84817C77716B45
:103CA800686463656E79828B8D90918C8C8C898821
:103CB80082837D7A82898F9494928C837D6F6969DF
:103CC8006C6F737B82838382827A787E83878B8E04
:103CD8008A8987847D808184827A716A696A6B6B3C
:103CE8006D748081818388878B9495918E908A8367
:103CF8007E7A7D8386898786827B7775706F747EEE
:103D0800878584888A86827F81808385827C7B7F81
:103D180080818489838180796C666461636D727740
:103D28007B8284808487909395948E8A8884878AFE
:103D380086888A8B89847A7373726D717A7F81849D
:103D480085817B7C7E787573717479808A8F969E65
:103D58009A90877A6E6B6865636973797A7D7C7EE1
:103D680081848B93989999938A817F7D7F7F7D7DCC
:103D78007F807D797A79787E8786848689857D8239
:103D88008A8C8A8682786E6C7276797F888D887E36
:103D980077736A6462686E73798288857E828A8D99
:103DA8009092918C898A88868A90938D89837D7474
:103DB800706F6D6D778186847E7A767572747C807B
:103DC800868887857F7E7F8286858386837D7773D5
:103DD8006D686C6F7173797F8286898D94979693DD
:103DE8008A848281868688898A89837A74717173C4
:103DF80075797D81828484838182858988848280A3
:103E08007E7C79797D7E82827E7A7B7C7872707204
:103E18007477767473777C848B8C9093918E8B8B6C
:103E28008E8A898B8C8A8684817B7A7A7B7F818251
:103E38008280797776736D6D7074767577777E8406
:103E480087898C8C888683807E7C7B7D7E7E7A7752
:103E580077726D70797E8589898A89878485808063
:103E68008489919292908F8D8E8B898A86888E9480
:103E7800989894928C817978716C6F6B71776D6476
:103E88005D5A565B67727572797D7C7E7B75766C40
:103E9800676562656B777F848C94969CA6ABAEB59C
:103EA800B8BAB9AFA69D9790866C594F403D372C4C
:103EB8002B3030383D414B5159656C717C8998A441
:103EC800A8B1BCBDC0C4C6CBD2D1CFCDC9CAC8C3A6
:103ED800C4C2C0BDBFBBB6AEA9A8A4A39A9188812D
:103EE8007874727174706C6A625855565552505392
:103EF800524B443F383636302F2B2E2E2F2F2D295C
:103F080027292D333235373C3D424D57626B737448
:103F18007574778088949BA0A8A9A9A8A8B2B6BFF1
:103F2800C5CBD1D1D1CCC6C4C5C7D0D0D6D6D4D2B2
:103F3800CBC8C4C4CACACCCCC8C5BFBDBBB8BBBC3F
:103F4800BBB5AEA49B9590908C8D908E887E6F6744
:103F58005F5A5755534F4A47413C3A393A3E413FD9
:103F68003F403A35332E30353737393938373539D8
:103F7800404046494E4F4B4C4F514F55595C5B5949
:103F8800585B575C666D7983898B8E898B88898DA0
:103F9800959EA2A9B1BABCBCBCC3CACBCBCACDC979
:103FA800C8CAC7CACBC8CDCED1D1CECCCDD1CCC949
:103FB800C2B8B0ACA9A59B999C9A999693908C8904
:103FC80085807D8081807977746B6251504C464042
:103FD8003E41484A4548494A48434144444242448C
:103FE800444A48453F3D434D5356585A5E5D625DCD
:103FF80061686E717276747D8384898B8C8E8887F4
:104008008585807D7F7E807D798083828692A0AD44
:10401800BDC4CBCED0CFCEC8C0C3C0BFBAB7B6BB65
:10402800BCBDC0C2C6C8CEC9C7C0BEC0BFC1BDB373
:10403800A4968B80746C6A6B707271787F7D7B7EBE
:104048008088928D8B877A665B50413A3733343556
:104058002F2F2A2A343D42444C5861645D555B5EDB
:1040680059554B493F3F373538393E4854565A5CC5
:104078006566636375818486868377655A5247418E
:104088003D464C5256616D788598A4ADB6C6D0CDE4
:10409800CCCDCFCBC4C3C1AFA9A3A09E999EA8B9CC
:1040A800C1C5C7CBCCC7C5CFCFCFD3D1C8B5A6A3C1
:1040B800978589848387959BA0A4A9B3B4B2B1B22C
:1040C800B0B3ADACA3A09A9188817065645C565575
:1040D800575766696E6F74787975777E818586889B
:1040E8007E72685F56504C44424A4945494D535D7B
:1040F8005F606667676D69625B4F44423E302C3291
:104108003634383C444B525D666E77828E96949670
:104118009C9F9A988E847D716B63615C60657174F5
:10412800727C868B8E969CA2A5AAA8A9A7A5A09802
:10413800928E8C878988878182898A8D9298999DA9
:10414800A5A4A4A6A3A2A19EA397888A8979747C12
:104158007D82848383888C93989FACB4B9BFBFB4A5
:10416800AEA6A59C8D888B867B817E746E6B6B67F3
:1041780061626B6B696D70707373767A7675717046
:104188006F736D707874726E706C6D6F7986878FCF
:104198009A97918D8A8B8384887D737A7765625F1D
:1041A800565355555D6168757E828989878C8B88E1
:1041B8008284898579797B746E6E67615D5C5F5DE9
:1041C8005F6470747A7F7F8387878B8E8C8E8C89EF
:1041D8008B8B86848586817F7C7C80868B8F94966A
:1041E8009A9B989292918E857F756E68655C5456FD
:1041F8005456555D60676D7A848B98A3A4A5B1B4B5
:10420800B4B0ADAFAEA39F988C8B8776707374797A
:104218007F8184868C9088879097969895969289C6
:1042280087867E7B7F76757274707275787C868BD4
:10423800838B90928A8C8783847976757067635AAA
:10424800595A59575F68676F7C7F818D94989C9FF6
:104258009B93908D86807D7A6F6A6C6D64606565CE
:10426800636A706C6C73736D7276716B72766E695B
:1042780070726E6D727772748287838B9297A0A327
:104288009F9EA3AAA190949B91868B82797172714B
:1042980068646B72767F858C93979C9B9BA69E998E
:1042A8009DA2958A8B8583797A736C6E75716F720E
:1042B8007B827D797F8484897A787B817675756D38
:1042C8006C697675747983888B8D9AA1A29BA3A457
:1042D800A7A3949B9A917B787170685F5B544F5148
:1042E80051525358656B69656F778986838C928DB7
:1042F8008988847F797A7A75787B7B817F878C8EB1
:104308008992999E9E8D8D948E817D7C7D7B797D11
:1043180078757C808586888F95908A8C8D8E87812C
:1043280084827C766F6C696361666569686E76768F
:104338007B84847D818B8F8B84888B8B8F8B858A04
:104348008D848784858886909B969BA59C93929262
:10435800847E7B7F72706A5E5653484247434B5156
:104368005A667177868986879BA19EA3A49B989796
:104378008884827F777C797E828392998F959188D1
:104388008996918284867E8084787A79767172752E
:104398007D83869093888A8F8A8996918486867C85
:1043A8007A79666A645D5D5F62676A67707578824C
:1043B800919093A39F9C9EA39596978783807976E7
:1043C8007675766F768284808486838C8B858677F3
:1043D80074756C5F565151524D555A5C60737F7FAE
:1043E800838E95A3AAA39E9E969293867E7D7C7BC0
:1043F8006F6B716E6E76807D7E868E999D97A3A475
:104408009CA3A8A098948782736C7273686D736C70
:1044180070767B82838893968B868F867F7D716C7E
:104428006C6466695E5F65676F7E7B8999909BA502
:10443800958FA09C949491918F8A878573747D78C9
:10444800787C797F8881858776727C6F5B615F591C
:104458005D5C5E5B59606E6A6C7B79859490959D16
:1044680092929B8D838689878580827D777E7E77F1
:104478007C86859397959DA0949D9F8F8789877E3D
:104488007772807B787B8078798081837C7E888254
:1044980072807E6E7074736B5E66746D6975777604
:1044A80080848C948E96A293929E9A91938D8A7F03
:1044B800767F7D72767F7A8180808A897F8C8F81F2
:1044C800848B807776646357505559535A66646D68
:1044D8007277808783938D808E97837C807C8078A9
:1044E800777D7F78898E8D959BA1A59C9FA48E92C0
:1044F8009E9A81828581786E767570707A7A7C7DD5
:10450800878A8382867B777F897D717C8279737EB7
:104518007F7D777676716870797A7C8A90868C96BA
:104528008C7C838D87848D8B89898E8C8A888A93ED
:1045380097888E96827F8686716769645851575E20
:1045480055565F6562626F797476918C848D978B0E
:104558007B7A7B78686E7B7A7B838589878C9D9B49
:104568008B9EAC9A969C9C8F86888F817A89887C52
:1045780074767A7675878F8186988A79838D88751F
:104588007A817C70787F71697079706B717E7971CE
:104598008586727E8F8E7A7C898C827C8C8A8688CE
:1045A80090878990989A8A9098898D92897B7C8146
:1045B80079786E7A75706561605E625F6B6770743A
:1045C8006966726C6664686C7778858D868A8B926A
:1045D8008B8A84968E8B8D868897938D8A8488891A
:1045E8008885908B908987838784928D868B8A8B28
:1045F80092867E7F72746D6C65767478768180851C
:10460800828C8C82897E7B7E7C71736569686E641E
:104618007374767B878B93A1ADB1A4ADA4A49D9A46
:1046280088897C7971746D737571726F706C707034
:104638007267706466666E5F6565636974747787B0
:1046480083878687818B8E8D808D84807D82747C24
:1046580080747C848B8B95909290918F908D9389A8
:1046680096928C8F9C8A888A7F838382757D7C7BD7
:104678007272757C797E70797D76767D716F7565DD
:1046880063697A707D8588848B9098969A929B9EB0
:104698008F939793848A817871756D6D7A7A757B1B
:1046A800868A8C8A868A86797572736667625B5C8D
:1046B80064645961696565737A8385888F8D898A91
:1046C8008A877E797B7573757E7E828683869697C8
:1046D800999D99A39E9A9397928E847B797D7E7DEE
:1046E800847F86837C80868085857F81848187829C
:1046F800747B756A6A6D68727976787E807C7D8055
:104708007E7B8383838A938B8A908F9591908F91F8
:10471800948B85888B807F8372707A746F78736DC1
:1047280072706E7176706F7071787A767B7C797939
:104738006D6A6D71696C726B787B70737B75787E4E
:104748007B8490909098999EA29A9B9690908B814A
:10475800848A86868C878A9289858A878888898BC5
:104768009290827D75726D69676969706F6A6F74FE
:104778007A7777797E868A8E8D8F908884848487ED
:10478800867D8284878887888C928C8582848784BA
:104798008386898E8E84817E77756F6B686A6B6776
:1047A80065616161616062676B6A7076767D7E7C47
:1047B8007D83888888898B888381818485838187A4
:1047C800868C8E8B8E8E8E8B88888D8E8E93969708
:1047D8009997908E867F7F7778797A7B7B7B7C7DB3
:1047E8007975727473737176797A817E808181812B
:1047F8007D797A7A797E838A8F918F8D90898C8A58
:10480800878B8A8D8B8C8D8F8C8983807F7D7B763F
:1048180079706C6D64636262616163696F74787CDE
:104828008182807A7B79757B77787B7B7A76706EEC
:10483800706D707A838790939599989C9B97999BB4
:104848009B9A989897938C847F7D7A7370726D6D1C
:104858007475797E808584858C908F8F908D8B86FA
:104868007C7B766E7069656B6D707376787E8483F9
:1048780088929799989A9995989288827F7B77756C
:1048880077787A7A7C7D7B7D7B777572747676779C
:10489800797B777777777678747374726F6D706DCC
:1048A8006D6C69686C7172777E81848B8D90969639
:1048B80096939190908F8A87847F7C7B7B82878A6E
:1048C8008B8C919392908E8B878B88858787848435
:1048D800817E7B787674757273737478787778775D
:1048E800767777797A7E868B8F929596938F89875C
:1048F8008483848382808080817F8180808080849B
:1049080085868483827E7C78747473717070737208
:1049180073716D6B6A67646969686E6E6B727675C0
:104928007A7E7E8187898D919396959494908D8BCC
:10493800868282817E83888B8B8B8A8A8A8C8D8CF7
:104948008A8989848383827C7B7B76797B75757C75
:104958007A797A7B7E807F7E807B78797B7A7C7F90
:10496800807F808281888A898B8F8C8D8E888687CC
:1049780086838887848586817F817E7A797C787C26
:104988007A787774756E6C6C736F6E726D696D7111
:104998006B707271717674757B817E7D858380887A
:1049A8008A838A8F89888D89888B847C8282848D8A
:1049B800949A959E9E9D9595917F7C7B787276754D
:1049C8006F71727072797673808582888F8C8B8D07
:1049D8008A7E7778726F706F6C7179787F87868935
:1049E8008D84889397999DA094928F89837C7E7CEF
:1049F8007876797878777A747D7F6F7274675D6678
:104A0800615C666D62666E6B70767E788289797F8E
:104A18008578797F82787A85827E898A7D828A857F
:104A2800879A918E9597888D9C8F939E998A968B5D
:104A38008D8585867E837E807A7F7B726D76696DB3
:104A48007774747A7E7D818284838B80847F81836E
:104A58007B84817F8683868780868782808B867C1D
:104A68008A8B82868A888683817A73786E74746B5F
:104A780073767A798183797F8384837D887F747262
:104A88007062605A625D5862666F6E7F868A8C9823
:104A98009A9799A899959A867E7A707169656D78C2
:104AA800817996919D9CA4ABA3A3A99C8B8E7B7ABC
:104AB8006B6B69646360706E6D827F8E8C90A1975A
:104AC800919895837A7978676B716A6A7082807E2B
:104AD80092919D969B9D93968C877D6C69695A5F90
:104AE800675F5F697A73808C8698969EA09BA29672
:104AF8009086747369665F635E58646E6265706CF5
:104B080076727B7C7D838581827A847580878082BA
:104B1800798A8C86898B898A858C8E91949DA19AB5
:104B280096A1949695917F808A817673716F6E674E
:104B38006B6B6F6A787B7873858281888C818189B9
:104B4800857977787D817E89878F848B908C808E1C
:104B58008E908B9288818785786F7472716E767566
:104B68007C757680816B7A7E7E787F7D7C7E7C7991
:104B7800716D706F6B7168736F70797B6875797C14
:104B88007683858188898A81878C858B908D8F8BA8
:104B9800908E917D8A8C8A848E8A868C8C86828976
:104BA800858487857E82797E7F7C68797773707B40
:104BB8007B777E8586858F91908E94888481848288
:104BC8007C6E7A7371727E79747D7F7C7C83818A36
:104BD800878C828A807F857A7081817A8292938A93
:104BE8008B878378767A776F7A7070666B685F5A8E
:104BF800645F5A6A737676797E817D808787828F33
:104C080086938F97989691929182858A8B82898EC6
:104C18008E8B9197908C92858C838C7D7D77726B2F
:104C2800646B6570666C727A7A86969597A0959B88
:104C3800949483847D75746F78738074778183828C
:104C48008F999494978C888079686A635C5F5D6AB1
:104C58006D7A79838D95949DA5A298998E827F7699
:104C680065655B4C514E555C66656E76807F858DBB
:104C780091868C8F8A8A847C7E776B787679818E10
:104C8800878D94918A9497978F96928E9789888624
:104C980080717A71726F7374717B82838B969E8D2B
:104CA80097948C90848987827280726E6A6C6A6627
:104CB8006F797B8392968994958F8E7E827C7267BA
:104CC8007C6C6B747C7B7B7F868A8D9EA89DA2AB57
:104CD800A09885816A614C574B4C50585F5C66655B
:104CE8006F6C818887829998908A8A7D766F716EB9
:104CF800636B77877D8F919896A0A09B8D949989F7
:104D080089827D74756E716668718580878E9291CF
:104D1800989E998E8F9983867C766A73676B6B678A
:104D2800738389859493919399958F8B8E7D7F73E7
:104D380069686E67666C676F75857F868D959197D4
:104D48009D9A9498928C887A797972676A6062637E
:104D58006B6C6A737A77788687888A8E8680756E98
:104D680069625B5B5F5F68737B7B818E8F929CA8B7
:104D7800ACAAB1A5998A8175685B525F6163748535
:104D88008F98A4A7A4A8A6B4A29F9D92807B7860C0
:104D98005B494C5251556D7C8C97A4A1AA9CA8A242
:104DA8008B8B827C6C7E66655F63636E69748D92A3
:104DB8009D9EA3A2A598A595877E806F6D70666459
:104DC8005F6564685D707679808088909192948A36
:104DD8007D7D7B726B666764636369616B787A81DA
:104DE800838A929B9C999A9788888A7F6E726E654F
:104DF80065676B6E7F818E97999EB1B4AFACAEA498
:104E0800928F817662655C59545E61656B747D89A9
:104E1800908DABA0AAA6AA9B978D7E7D68665F5FE2
:104E28005568697075818694918F9990978F92884B
:104E38008D7D7C7B6D676667666D71767E898E99E0
:104E480094938C938F85807F78696B63584F525405
:104E5800595A626A727D868D918D87928F84889067
:104E68008D848388837C7D8480797F8785898F94EE
:104E78009D95959F968A8E92887D7977776B6E6ED1
:104E88006D676C716E707687869194A19BA0ABA1BB
:104E98009B8C8579786E696D6D6B7478777883896A
:104EA8007F8B908B8A8F8A827878766F6D6E6F7021
:104EB8007A78797F86849291828A958C8691837795
:104EC800766E6D675D63666268736E737C81837BE3
:104ED80070777A7B7F7E7F7A7E80838485878B8DCF
:104EE8008C898B8B8A90938A848384868E8B858C1D
:104EF8008888888485867A77776B596C6E758488FC
:104F080095929691A19F9CA2A198938D8181796D8C
:104F18006B6A6267666368696065665F6F767184ED
:104F280090898F9998979C949592888A8E918F975B
:104F3800938D87796E6D5D545F5F595C67656E6FA1
:104F48007370747578807D8284817B7D7C797C79AF
:104F5800808A8D929497959C958C8D867D82837698
:104F68007C847C7B828280827C8089879093918BF1
:104F78008E857A7E736C73706B76827E81938B9349
:104F88009C8B8D968D849183727C726A6E726A7422
:104F98007A74798282828884868C82818A808488E5
:104FA800897E7B7579756C77757D848B8488887D1F
:104FB80078787B736F7674777A797A727170746D9A
:104FC8006967657173727D8380858F9690929897D3
:104FD80091909287827B777C7D71767E7D868F8E9D
:104FE800888F8780888783858B848385807C7E787B
:104FF8007B8984848E9798A1A39B9893837D7B6AF1
:10500800676D6962636363666F6F767A7D80828796
:105018008C91888488837B847F838D91968F8D87FC
:105028009184878B7F80837C6F7D786C6669625EF4
:1050380066656B737580827B767A796C7A72717625
:105048007B737B877F85867F7E8785828A8F8F9615
:1050580096908E908C888C8A878989838188857BB5
:10506800777776787D7C7D8B8886928F858B948602
:105078008A8D85828B7973826F60686F616E7B75AC
:10508800808F8E919B8F838D7F788180727C816DDC
:105098007A837673827E7F908E8796948E8E9080A8
:1050A8007A7B6B6D746C626F68626C7161636B663E
:1050B800717F787A857F80868984888284909086BB
:1050C800908E7F838379707973758589838C8F88B7
:1050D80090908F94897E8691877D887B7678756D90
:1050E80072726B7F8E9494A1A39CA19E98998980DB
:1050F8007D85756C72656461645B636563768A88B7
:10510800828B90868B8D8A8A868187988F8A8B88F6
:105118007F7B7570706A697A87807986837B7E7FEA
:105128007B777E7882877F76726E645F5C5858588A
:105138005E72888582949595939C9188918C8F8EC8
:105148008C807D7E716D6B6A6A6F78899B93939F63
:105158009C97959A89838A8688868B7D7E827B7BBD
:1051680080807A808A91978E8A89867D7B7A676C1F
:1051780071797479787172716B6669676874848BF8
:105188008E909A999B9CA093908F91938986817E0B
:105198006F6B696561656369797F7A8288818287C7
:1051A8007D6B6F6C71706E68676964676C6B6D7529
:1051B80079849095929B9C9898A0968A908C8E89D9
:1051C800857F817D72757772757A7A818F8C8992E5
:1051D8008E8D959F8E8D919098948D86877A717219
:1051E8006E636668666A706F777E80818E90838A48
:1051F80088858487817E7F79767C7C798083818CA1
:105208008E8A8D8B888A97877D827C757678737075
:105218006E6C6E716C6D727170736D7072716E7987
:105228008073757D7F7B7F88898783868B88858659
:105238008B8688878A867D7C7B8782808183827C37
:10524800838684818288888C878A97938B8F968BB4
:105258008586888C858081837676817E777476745E
:10526800777B7780867C7C86847474747379747495
:105278007C7F77828D86838D8B8A928D8B948E84AA
:10528800888D7E767A7272716E6F736C6876796FBC
:1052980071767072777980827C7D8684767C787668
:1052A8007976767679737B857E7C808385888D8F09
:1052B800908D8B90928B878581807E7B7B7C7A7C9E
:1052C800898A888D8F9391959A9A99949395918AC2
:1052D800827D7674736D686662656D706F6F7575C3
:1052E8007880827F828285878C8984878583818381
:1052F800817E7E838684828383818286858282857D
:1053080088888682817D7C7974706A666264666545
:10531800666667696D6F7175767A848787878A8C08
:105328008E8C8C8B8987898D8B86848484818383FA
:105338007F828384898D8B8D91908F918F8C8B89BF
:105348008A8B8983817F7B7877737172767C7E7F85
:105358007F818280817F7B7A78787D817A777A787D
:1053680075777873777C7F888D8A8D9796909694D9
:1053780089878B8682857E7877756D6D6E67677095
:105388007171767574777B7A7E7D7A7675767774A7
:105398007374706F737471767A7F84898B90949725
:1053A800989A9A92908F8A878A857E7F7D78787777
:1053B800777A7C7F8383878A8E90919392918D8F61
:1053C8008D88878482817C7A77706F747372737624
:1053D80074767B7B7F827F7F89898285867D7E7ECE
:1053E80078747B797881868A8C8E8A8584857D7BA2
:1053F8007D7C7F87868182807D7F7B74716C6B6901
:105408006B71756E6E6F6C676563626970788085A5
:105418008C91949A94928F8988888583898A8082CE
:1054280085807B7B7C7A81868D95989B9DA19B90BE
:1054380091897E7E7C75767E7A797A7B797B807F8E
:10544800818A8A8D846C6165695D67858E817F72CA
:105458005E555C5A505B727B87ABB7C7B59A978B22
:105468007B68675D64798891A6C0C7C0A68F7A708B
:105478007F756E70606C787D7E7A727275796A5607
:1054880058687965607A8F806364707B8994958D9C
:105498009696867E7E919F9B999186908DA4B29ECA
:1054A800947F7A799A867B9156485C6084905A42B8
:1054B800354269A2C5AD9F6439567DB7B1947979F3
:1054C800A69F8D8973565C516364787B708D989420
:1054D80080888E8A75778DBEB3ABB88372777B6A06
:1054E800545D62787B78857B72674E4A514B675F63
:1054F8005A7085A99693A1979A8E837D8279656261
:105508007A7C7988888895A2899E9B83807F868605
:105518008C76878EACC8C1C4A79E96B4AEA1B0A144
:105528007C71665B77676052675D69836A6F727AC0
:105538007A91726D726A7480928A7E6D726A6F65F2
:10554800575E5B6F6C7F846D9896A4A37B7274839F
:105558007BA0AE9E9A95988D816E5E58494D687273
:10556800737C696E6B65675C5F6C71687486939A0F
:10557800A4726982696A57384F6A727C8C857C9DEF
:10558800A59EA9A59397A7A8ABB3A9A9988380744A
:1055980066615B62777D8AA2A39D9E89808F8D86D6
:1055A80088838689897C7D807B79707A6D5D616767
:1055B80071788C9EA09F917C7E807883888895B036
:1055C800AEA39690867B737D8572877F8087878D53
:1055D8008E91887F66655F67767477868B7B7B7133
:1055E80068625A5A656C737173786F7D80806B6BD3
:1055F8006E6B8985797D858787858F8C837E7978A1
:105608007677748D9AA1A197867D7B768986877B2C
:10561800828B7F817B7B7976727B7C7581817F86AB
:1056280088838982777671737A7B7A7C88827678A8
:105638006C67636765717C8998A5ADA7A79A9C98E4
:105648008D857E7C7A7A82848386888688867C7734
:105658007071768A95959D99887F77726D65676C6C
:1056680070726C6C5D57626A6C626C707576809152
:10567800949E9F9C93848385787A7F7A7A888F8C8E
:105688008A8180837E7D89949298A19E9D99948F2A
:105698008788828684716F7B78747B786D6B6A6586
:1056A80068686D7D898B959687837E7B7A7A7C7B0B
:1056B8006F717A78786C707D85818499938D8F96D7
:1056C8009892968E8F8E89817B7B716B6C6F6562E9
:1056D800585A615C5D5E686F7A8085858281858CA9
:1056E8008F8B848A857C7A756E6D6F6E76858692CF
:1056F80091929BA3A9A7ACA6A4A39F948D83838012
:1057080076726E6C5E606870767B7F888E8D8F8C0B
:105718008E938C87918C7C7D7B706C615D636361FB
:10572800656969707A88989C9898999895938C86F9
:10573800848384898B7F786F6F6E6A6C70736F79DE
:10574800818589869196908E837674766E6B6E636A
:1057580060696261675F585E656A728285838B8B58
:1057680091978F8B8F918B8B8D8886878C8B8B8F66
:1057780086828987888E94939BA39A9F948A86862B
:1057880086878280837F7976716568686B747573A4
:10579800737A7E7A8293918E8F87848682818685BA
:1057A8007F83827D7878797A8381838B92908B8EC0
:1057B80087898B88818382767574756E7172707132
:1057C800706E6C6F6B6A6B717072787B7C787970B5
:1057D800707475787D7A73747274787A7C82878233
:1057E80084878D8E8F98979C9C948A8686818385E2
:1057F80083848B8A8A8586807E888787878989843F
:105808008482807C76747273717579797B868885D9
:10581800827F7C787C7874777E8383868382838199
:10582800818C93949A9C9C97948D858183807C7AB3
:105838006E6A6E7172787D7A7D7C78767678777309
:105848006E7274716F6D6D6B686D736E7174797C47
:105858007D7D848D8C93908F949896928F8E8F8D6A
:105868008D8A887D7B7E797C7D8387848687898401
:105878008588888F938B8684818080827B7A7874F0
:10588800767276747880828383848181838181842F
:105898007C7B83827F80786E6A6C6F73797C7E866E
:1058A8008684888D909397939497948E8B8C8A8313
:1058B8007E736A635C5957575F656E6F6B6E71755F
:1058C800777D7F7F817D7978737174747274777452
:1058D800737A838A939A9D9FA5A4A3A39D96949077
:1058E8008C8B878483827F7D757071757B7C817FCB
:1058F8007E7E7F84868B8C8884838484817A7B7D7A
:105908007C7C7A716B707273757D83858686888BD3
:105918008887909091959088878886857D746E7128
:10592800717174777E82898C8D8E8B847C76716C94
:105938006D696A6F6D6C685F5B5E6162656B6F72E3
:1059480074797B7C81858B8F908D8E9798969EA19C
:10595800999596928B87817F8182898985838287B1
:1059680085808487878C8F8A86807475797475732F
:105978006D6F737A7C7A7B7B7D848E8D898A8A8A27
:105988008F92908D868584837D75767B7E86877FD2
:105998007C7C7B7F837B7C7E7B7D8587847F7F850A
:1059A8008A8C888177746D6C6A636266676B6F6FC7
:1059B800737271777E7C7E7873797F7D7B797A7E4E
:1059C8008081807C777B80888D91989B999798952A
:1059D8008F868A8F908B8586837C7D7F7A72747799
:1059E80075797C7D8287868D8E8780828B8785827C
:1059F8007C7C817D796F5B5D656C7F949A9C9E9FB2
:105A08009F9D9B948E8C928E837C7D7E7C7C746D16
:105A18005D54514D555D697987929EA69F928B8DF5
:105A2800948A7F7B78747374726964686668646545
:105A3800675F5C617173757C818B9298938B8B8E99
:105A480093929189817D868B8D949CA39E9E9B8F3A
:105A58008377757F828786858181807B7A6F6A6E7E
:105A68007470757F888D919A9B968D807B6F615D30
:105A7800595C5F72777778777D8288848E979DA34B
:105A8800A5A2A4ABA29FA69E8A7D746961645A539D
:105A980051565D69706D73767E848D959590827C84
:105AA80087868185857A78766255473C3B474F558E
:105AB8006A7D8B98A8B5BBBBB3A9A29C918F8F8E2A
:105AC800918D8D887F746F665B596069757C858D53
