:020000040800F2
:100000000050002021020008270200082B020008EF
:100010009D020008A1020008E9020008000000009B
:100020000000000000000000000000003103000894
:100030003503000800000000390300084D0A0008DD
:100040004D0300084D0300084D0300084D03000850
:100050004D0300084D0300084D0300084D03000840
:100060004D0300084D0300084D0300084D03000830
:100070004D0300084D0300084D0300084D03000820
:100080004D0300084D0300084D0300084D03000810
:100090004D0300084D0300084D0300084D03000800
:1000A0004D0300084D0300084D0300084D030008F0
:1000B0004D0300084D0300084D0300084D030008E0
:1000C0004D0300084D0300084D030008E90900082E
:1000D0004D0300084D0300084D0300084D030008C0
:1000E0004D0300084D0300084D0300080000000008
:1000F0000000000000000000000000000000000000
:1001000000000000000000005FF808F100B583B0B7
:1001100000F0AAF9304B314A1360314A1360314B79
:10012000314A32498B4204D21168196004330432D7
:10013000F7E72A4B1A682E4B9A4200D0FEE7284B6D
:100140001A682C4B9A42F9D1234B2B4A13602B4A45
:1001500013602B4B02E000221A600433294A9342B9
:10016000F9D3254B1B6813B9244B1B6803B1FEE779
:1001700000F086F9694601A800F022F9224C234BD1
:10018000E41AA4100025AC4214DC214C214BE41AE3
:10019000A4100025AC4213DC0099019800F0FCFC8F
:1001A00005461D4C1D4BE41AA410002C0EDC2846FD
:1001B00000F0E2F8154B53F8253098470135E2E797
:1001C000144B53F8253098470135E3E7013C134BB6
:1001D00053F824309847E8E7BABADECA0000002096
:1001E0008400002000000020CCB50008880000201A
:1001F0007856341232547698880000202C01002062
:1002000088000020300100207803000878030008EF
:1002100078030008780300087803000878030008D2
:1002200008B5FFF773FF00BEFEE71EF0040F0CBF1A
:10023000EFF30880EFF309807146414A10472DE93A
:10024000F04182B004468846124B5E6B9F6B9D6AFC
:100250001B6B13F0020F03D00E4BDB6A002B0CDB81
:100260000D4800F0B5F8CDF800803B4632462946EF
:10027000204600F009F900BEFEE74BF6AB6100F046
:100280007DF90028ECD0034B4FF00042DA6202B057
:10029000BDE8F08100ED00E06C15000800BEFEE74F
:1002A0001EF0040F0CBFEFF30880EFF309807146D6
:1002B000244A10472DE9F04182B004468846084B95
:1002C0005E6B9F6B9D6A074800F082F8CDF8008056
:1002D0003B4632462946204600F0D6F800BEFEE7EF
:1002E00000ED00E07C1500081EF0040F0CBFEFF3DA
:1002F0000880EFF309807146134A10472DE9F04159
:1003000082B004468846084B5E6B9F6B9D6A074827
:1003100000F05EF8CDF800803B4632462946204684
:1003200000F0B2F800BEFEE700ED00E0881500081E
:1003300000BEFEE700BEFEE700BEFEE7704700001D
:100340003F020008B5020008FD02000800BEFEE7FB
:10035000CCB500080000002088000020CCB50008C3
:100360000000000000000000880000203001002094
:08037000000000000000000085
:10037800FEE7000008B503460C4A12685AB10B4A5A
:100388001068033323F003030344094A934206D851
:10039800064A136008BD054A06491160EFE700F0F8
:1003A80023FC0C2303604FF0FF30F3E78C000020A0
:1003B800004C00203001002001230360014B0B603A
:1003C800704700BF040000200FB400B583B004AB31
:1003D80053F8042B01938021064800F037FC0028CD
:1003E80003DD0146034800F037F803B05DF804EB7D
:1003F80004B07047940000202DE9F04385B004460E
:100408000F4643560BB10E461EE0042528462146EA
:10041800ABBE0446384605B0BDE8F08314F9011BAD
:1004280004AA1A4402F8101C0133AB42F6D304AAFA
:100438001344002203F8102C4FF00408E946404604
:100448004946ABBE8046761B002EE3D03546102EBB
:1004580028BF10250023E8E708B5FFF7CDFF08BD42
:1004680008B500F0FDF8024A024B9A6008BD00BFCB
:100478000000000800ED00E008B500F019F908BD1B
:10048800F8B504460D4617461E462748FFF79CFF59
:1004980021682648FFF798FF61682548FFF794FF11
:1004A800A1682448FFF790FFE1682348FFF78CFF15
:1004B80021692248FFF788FF61692148FFF784FF17
:1004C800A1692048FFF780FFE1691F48FFF77CFF1B
:1004D8001E48FFF779FF29461D48FFF775FF1D4C99
:1004E800E16A1D48FFF770FF216B1C48FFF76CFF9E
:1004F800E16B1B48FFF768FF15F0800F0AD115F470
:10050800004F0CD11748FFF75FFF06991648FFF711
:100518005BFFF8BD39461548FFF756FFEFE7314650
:100528001348FFF751FFEDE7501400086014000866
:10053800701400088014000890140008A014000823
:10054800B0140008C0140008D0140008E014000813
:10055800EC14000800ED00E0FC1400080C1500087D
:100568001C1500084C150008541500082C15000827
:100578003C15000883691A888A4201D00020704718
:100588000268033A012A03D80233836101207047C5
:100598000020704782B00023019300932C4A13680F
:1005A80043F4803313602A4B1B6803F40033009331
:1005B800019B01330193009B1BB9019BB3F5A06F0D
:1005C800F1D1234B1B6813F4003F06D0012300939D
:1005D800009B012B04D002B0704700230093F7E77B
:1005E8001C4B1A6842F010021A601A6822F00302C3
:1005F8001A601A6842F002021A60A3F580535A681A
:100608005A605A685A605A6842F480625A605A6856
:1006180022F47C125A605A6842F4E8125A601A6846
:1006280042F080721A600A4B1B6813F0007FFAD000
:10063800074B5A6822F003025A605A6842F00202D5
:100648005A60034B5B6803F00C03082BF9D1C2E72F
:10065800001002400020024008B5FFF79BFF08BDCC
:1006680008B5104B1A6842F001021A6059680E4A20
:100678000A405A601A6822F0847222F480321A60A2
:100688001A6822F480221A605A6822F4FE025A601C
:100698004FF41F029A60FFF7DFFF044B4FF0006230
:1006A8009A6008BD001002400000FFF800ED00E06D
:1006B8001F4B5B6803F00C03042B15D0082B17D0D5
:1006C8001BB11C4B1C4A1A6002E01A4B1A4A1A60EA
:1006D800174B5B68C3F30313184AD35CDAB21549A6
:1006E8000B68D3400B607047124B134A1A60EFE750
:1006F8000F4A53685268C3F38343023312F4803FAE
:100708000AD00B4A526812F4003F0BD00C4A02FB85
:1007180003F3084A1360DBE7094A02FB03F3054ABF
:100728001360D5E7044A02FB03F3024A1360CFE7DC
:10073800001002401C00002000127A000C0000206B
:1007480000093D0010B4012824D018B1022841D076
:1007580010BC7047072910D90F29F9D8A1F108044E
:10076800E4B2A4000F23A3402A48016821EA030346
:1007780002FA04F119430160EAE789000F2303FA3A
:1007880001F0254C236823EA000302FA01F119431A
:100798002160DDE7072910D90F29D9D8A1F1080070
:1007A800C0B280000F2383401C4C216821EA030358
:1007B80002FA00F119432160CAE789000F2303FAFE
:1007C80001F0174C236823EA000302FA01F11943E8
:1007D8002160BDE7072910D90F29B9D8A1F108036D
:1007E800DBB29B000F2098400E4C216821EA0000E4
:1007F80002FA03F101432160AAE789000F2303FAF3
:1008080001F0094C236823EA000302FA01F11943B5
:1008180021609DE70408014000080140040C0140E4
:10082800000C01400410014000100140012818D0BC
:1008380010B1022829D07047012A0AD0002A2FD1E6
:10084800012303FA01F11B4A136823EA0103136029
:100858007047012303FA01F1164A13680B4313602A
:100868007047012A09D0DAB9012303FA01F1124AC3
:10087800136823EA010313607047012303FA01F1A7
:100888000D4A13680B4313607047012A09D03AB91F
:10089800012303FA01F1094A136823EA01031360EB
:1008A8007047012303FA01F1044A13680B431360EC
:1008B800704700BF0C0801400C0C01400C100140AF
:1008C8001F291CD801280BD010B1022810D070475E
:1008D800012303FA01F10A4A13680B4313607047B6
:1008E800012303FA01F1074A13680B4313607047A9
:1008F800012303FA01F1044A13680B43136070479C
:10090800141002401C10024018100240064A1368D6
:1009180043F0010323F002031360043A136843F41D
:1009280010231360704700BF041002401E4B1A6862
:1009380022F040021A601A6822F400521A601A68FB
:1009480022F400621A601A6822F080021A601A689B
:1009580042F004021A601A6842F400721A601A68B7
:1009680042F480721A601A6842F002021A601A6829
:1009780042F001021A601A6822F008021A601A6826
:1009880022F008021A601A6822F008021A605A68EF
:1009980022F040025A605A6822F080025A601A68AF
:1009A80042F040021A6070470030014010B504461A
:1009B800002211461046FFF739FF084BDC60074B51
:1009C8009B6813F0800FFAD1012200210846FFF737
:1009D8002DFF024BD868C0B210BD00BF00300140E7
:1009E80008B5034BD868034B1B68C0B2984708BDCD
:1009F8000030014024010020064B1A6822F0010251
:100A08001A601A6822F004021A601A6822F00202B8
:100A18001A60704710E000E0094B58601A6842F00D
:100A280001021A60064B1B6813F4803FFAD0044B8E
:100A38001A6822F001021A6000225A609A60704710
:100A480010E000E008B50B4B1B78012B05D00A4BD2
:100A58001B689847094B1B6808BD084B1A6822F0A9
:100A680002021A601A6822F001021A6000225A6013
:100A78009A60ECE7140100202801002010E000E053
:100A880010B50446012202210020FFF7CFFE2046C0
:100A9800FFF78CFF10BD10B5044600220221104656
:100AA800FFF7C4FE2046FFF781FF10BD08B50122FD
:100AB80011460020FFF7BAFE6420FFF7ADFF0022C1
:100AC80001211046FFF7B2FE0120FFF7A5FF012222
:100AD80011460020FFF7AAFE6420FFF79DFF0022C1
:100AE80001211046FFF7A2FE6420FFF795FF0122BF
:100AF80011460020FFF79AFE0948FFF78DFF1120E5
:100B0800FFF7C9FF0748FFF787FF3A20FFF7C3FF42
:100B18000520FFF7B5FF2920FFF7BDFF08BD00BF7F
:100B2800C0D40100F049020038B505462A20FFF775
:100B3800B2FF0020FFF7A4FF0020FFF7A1FF00206D
:100B4800FFF79EFF7F20FFF79BFF2B20FFF7A3FFF8
:100B58000020FFF795FF0020FFF792FF0020FFF726
:100B68008FFF9F20FFF78CFF2C20FFF794FF0024B6
:100B78000AE035F81400000AFFF782FF15F81400A0
:100B8800FFF77EFF0134A4B2B4F5A04FF1D338BD0E
:100B980008B5FFF7BBFE02210846FFF791FE0C21BE
:100BA8000220FFF78DFE012211460020FFF7CAFD43
:100BB800012202210020FFF7C5FD0922052100209E
:100BC800FFF7C0FD092207210020FFF7BBFDFFF753
:100BD80013FFFFF7ABFEFFF769FF0248FFF7A4FF1B
:100BE800FEE700BF98150008014B1868704700BF62
:100BF8002000002030B5141E05469BB0184605DAC3
:100C08008B234FF0FF302B601BB030BD4FF40273C5
:100C1800ADF80C300CBF234604F1FF330293059363
:100C28004FF6FF7300910491ADF80E3002461E9BFB
:100C38006946284600F072F8431CBCBF8B232B6022
:100C4800002CE1D00022009B1A70DDE707B5009365
:100C580013460A46014603480068FFF7CBFF03B076
:100C68005DF804FB200000202DE9F0478E688246DD
:100C78009E420C469046994637D88A8912F4906F5E
:100C880031D00223256809696F1A656905EB4505A6
:100C980095FBF3F509F101033B449D4238BF1D461E
:100CA800530530D5294600F035FB064650B90C23CC
:100CB8004FF0FF30CAF80030A38943F04003A38106
:100CC800BDE8F0873A46216900F0B4FAA38923F415
:100CD800906343F08003A38126613E4426604E461C
:100CE8006561ED1BA5604E4500D94E46324641462A
:100CF800206800F0AAFAA36800209B1BA360236861
:100D08001E442660DCE72A4600F05EFB0646002803
:100D1800E2D12169504600F0B1FAC8E72DE9F04F59
:100D28009DB003938B8980461D060C4616460FD549
:100D38000B696BB9402100F0EDFA2060206128B9F9
:100D48000C23C8F800304FF0FF30C7E04023636140
:100D58000023099320238DF8293030234FF0010B0D
:100D68008DF82A3037463D4615F8013B0BB1252B47
:100D78003ED1B7EB060A0BD05346324621464046D1
:100D8800FFF772FF013000F0A480099B53440993D8
:100D98003B78002B00F09D8000234FF0FF32CDE917
:100DA8000523049307938DF853301A932F46052291
:100DB80017F8011B4F4800F02FFA049BD0B9D90649
:100DC80044BF20228DF853201A0744BF2B228DF8E8
:100DD80053202A782A2A15D02F4600200A25079A58
:100DE800394611F8013B303B092B4DD9B8B10FE01A
:100DF8002F46B8E73F4A3D46801A0BFA00F01843E1
:100E08000490D3E7039A111D12680391002A01DBAD
:100E1800079204E0524243F00203079204933B789E
:100E28002E2B0CD17B782A2B33D1039B02371A1D2A
:100E38001B680392002BB8BF4FF0FF3305932E4D6C
:100E480003223978284600F0E7F938B14023401BDF
:100E580003FA00F0049B0137034304933978062210
:100E680026487E1C8DF8281000F0D6F9002838D0C6
:100E7800234B13BB039B073323F007030833039368
:100E8800099B4B4409936DE705FB023201200F468D
:100E9800A6E700230A25194601370593384610F8B6
:100EA800012B303A092A03D9002BC8D00591C6E78F
:100EB80005FB012101230746F0E703AB0093224617
:100EC800104B04A94046AFF30080B0F1FF3F8146C4
:100ED800D6D1A3895B063FF536AF09981DB0BDE8AA
:100EE800F08F03AB00932246064B04A9404600F05E
:100EF80081F8EAE798B500089EB50008A2B5000891
:100F080000000000710C00082DE9F04791461F46CB
:100F18008A680B6906469342B8BF1346C9F8003081
:100F280091F843200C46DDF8208012B10133C9F84E
:100F380000302368990642BFD9F800300233C9F857
:100F48000030256815F0060507D104F1190AE36891
:100F5800D9F800209B1AAB4229DC94F84330226868
:100F6800003318BF012392062ED404F143023946F8
:100F78003046C047013021D02368E56803F00603F6
:100F8800042B18BF0025D9F800204FF0000908BF2E
:100F9800AD1AA368226908BF25EAE5759342C4BF64
:100FA8009B1AED181A344D451AD1002008E0012388
:100FB800524639463046C047013003D14FF0FF3022
:100FC800BDE8F0870135C2E73020E11881F8430019
:100FD8005A1C94F845102244023382F84310C4E79F
:100FE8000123224639463046C0470130E6D009F190
:100FF8000109D8E72DE9F04301F1430C0C46097EBD
:1010080085B06E291746064698460C9A00F0B380BC
:1010180022D8632936D00AD8002900F0B980582987
:1010280000F0838004F1420584F8421032E064291C
:1010380001D06929F6D120681368050603F1040177
:101048002AD51B681160002B03DA2D225B4284F835
:1010580043206F480A2239E0732900F09D8008D8A0
:101068006F2920D07029DDD1236843F02003236045
:1010780003E0752917D07829D4D17823654884F8F6
:10108800453055E0136804F14205191D1B681160CD
:1010980084F8423001238CE01B6810F0400F116087
:1010A80018BF1BB2CFE713682568181D1060280603
:1010B80001D51B6802E06806FBD51B886F2914BFA1
:1010C8000A2208225248002184F843106568002D3E
:1010D800A560C0F29580216821F004012160002BF1
:1010E8003DD1002D40F08E806546082A0BD123683B
:1010F800DB0708D5236962689A42DEBF302305F80A
:10110800013C05F1FF35ACEB05032361CDF8008008
:101118003B4603AA21463046FFF7F6FE01304DD183
:101128004FF0FF3005B0BDE8F083394884F845102A
:10113800136821681D1D1B6815600A060BD5CA07B0
:1011480044BF41F0200121601BB9226822F020022F
:1011580022601022B7E74D0648BF9BB2EFE765460D
:10116800B3FBF2F102FB1133C35C05F8013D0B46FA
:101178000029F5D1B9E713682568181D6169106061
:1011880028061B6801D5196002E06A06FBD519809C
:10119800002365462361B9E71368191D11601D68AE
:1011A80062680021284600F037F808B1401B6060EB
:1011B80063682361002384F84330A7E723692A463C
:1011C80039463046C0470130AAD023689B0713D45C
:1011D800E068039B9842B8BF1846A3E701234A4634
:1011E80039463046C04701309AD00135E368039A42
:1011F8009B1AAB42F2DCEBE7002504F11909F5E78D
:10120800002BACD1037804F1420584F842306CE736
:10121800A9B50008BAB5000810B5C9B20244904291
:10122800034601D1002303E01C7801308C42F6D13B
:10123800184610BD10B5431E0A44914200D110BD96
:1012480011F8014B03F8014FF7E7884210B501EB9D
:10125800020307D8421E99420AD011F8014B02F83E
:10126800014FF8E78342F5D98118D21AD34200D149
:1012780010BD13F8014D01F8014DF7E738B50546E3
:10128800002943D051F8043C0C1F002BB8BFE418C8
:1012980000F0D0F81E4A1368104633B96360146032
:1012A8002846BDE8384000F0C6B8A3420BD92168EB
:1012B8006218934201BF1A685B6852182260636023
:1012C8000460EDE713465A680AB1A242FAD91968D0
:1012D8005818A0420BD1206801445818824219605E
:1012E800DED110685268014419605A60D8E702D903
:1012F8000C232B60D4E7206821188A4201BF1168AB
:1013080052680918216062605C60C9E738BD00BF97
:101318001801002070B5CD1C25F0030508350C2DEB
:1013280038BF0C25002D064601DBA94203D90C2342
:101338003360002070BD00F07DF8214A1468214612
:1013480091B9204C23681BB9304600F063F820603F
:101358002946304600F05EF8431C24D10C23304661
:10136800336000F068F8E4E70B685B1B18D40B2BBC
:101378000FD90B60CC18CD50304600F05CF804F162
:101388000B00231D20F00700C31AD3D05A42E250A5
:10139800D0E74B688C4216BF636013600C46EBE7DE
:1013A8000C464968CCE7C41C24F00304A04205D0CD
:1013B800211A304600F02EF80130CFD02560DBE747
:1013C800180100201C010020F8B5074614460E46F7
:1013D80021B9BDE8F8401146FFF79CBF22B9FFF7D5
:1013E8004DFF25462846F8BD00F026F8A0420FD24A
:1013F80021463846FFF78EFF05460028F2D03146D1
:101408002246FFF717FF31463846FFF737FFE9E76F
:101418003546E7E738B50023054C054608462360FE
:10142800FEF7A8FF431C02D1236803B12B6038BD27
:10143800200100207047704751F8043C181F002B0A
:10144800BCBF0B58C0187047537461636B20667239
:10145800616D653A0A000000205230203D202025A9
:101468003038580A00000000205231203D20202545
:101478003038580A00000000205232203D20202534
:101488003038580A00000000205233203D20202523
:101498003038580A0000000020523132203D202503
:1014A8003038580A00000000204C52203D202025EA
:1014B8003038580A00000000205043203D202025E5
:1014C8003038580A0000000020505352203D202593
:1014D8003038580A000000004653522F4641523A0D
:1014E8000A0000002043465352203D202025303872
:1014F800580A00002048465352203D202025303805
:10150800580A00002044465352203D2020253038F8
:10151800580A00002041465352203D2020253038EB
:10152800580A0000204D4D464152203D20253038B4
:10153800580A00002042464152203D2020253038DC
:10154800580A00004D6973630A000000204C522FAE
:101558004558435F52455455524E3D202530385822
:101568000A0000005B486172644661756C745D0A2C
:10157800000000005B4275734661756C745D0A007B
:101588005B55736167654661756C745D0A000000A0
:1015980077A577A5779D579D579D779D77A5779DCB
:1015A800779D779D98A598A597A597A598A5B8A57F
:1015B80097A577A5779D579D579D779D779D5795BB
:1015C800579D579D579D579D779D579D579D779D33
:1015D800579D579D36953695579D579D579D579DB5
:1015E800579D579D379516951695169516951795E7
:1015F800159DF78C38953695129DF19C569D5995F9
:10160800389575ADF0AC8F9C35A538955895579D94
:101618003795379537953795379517953795379582
:101628003795379537953795379537953795379552
:101638005795579537953795379537953795379502
:10164800179537953895389538953795179517958F
:10165800F78CF68CF68CD684D684B684B684B68499
:10166800B684B684B684B67C967CB67CB67CB67CEA
:10167800D67CD67CD67CD67CD67CD784D67CB67CE9
:10168800D684D684D684D67CB67CB67CB67C967C4A
:1016980077A577A5779D579D779D77A577A577A59A
:1016A800779D779D779D779D97A597A597A5979DFA
:1016B80077A5779D579D569D579D579D579536956C
:1016C8003695369537955795579D579D379D379D34
:1016D80037953795369536953695579D579D579D2D
:1016E800579D579D37953695379516953795379564
:1016F800159D58957995579D74AD12A556A5599580
:10170800389555AD72BD11AD159D3895589D1695F6
:101718003795379537953795379537953795379561
:101728003795379537953795379537953795379551
:101738003795379537951795179517951795178DE9
:10174800F68C178D179537951795178DF78CF68C9E
:10175800F78CF68CF68CF684D684D684D684B68438
:10176800B684B684B67CB67C967C967CB67CB67C11
:10177800D67CD67CD67CD67CD784D784D784D684AE
:10178800D684D684D67CB67CB67CB67CB67CB67C51
:1017980098A577A577A577A577A5779D579D579D98
:1017A800779D579D579D779D779D98A5779D779DA8
:1017B800779D579D369D3695369536951695168D97
:1017C800F68C168D16953795369536951695169589
:1017D80036951695169536953695579D579D579D6E
:1017E80036953695379536953795169516951695F7
:1017F800159D589D388D3695B5B5D19C359D599513
:10180800789D34ADAFA4ED83928C58955895579D2B
:101818003795169537953795579557953795179561
:101828003795379537953795379537951795179590
:1018380017951795168D168D168D168DF68CF68CB8
:10184800F68CF68C178D178DF78CF78CF68CF68C3A
:10185800F78CF68CF68CF68CF684D684D684D684EF
:10186800D684D684B684B684B67CB67CB67CB67C80
:10187800D67CD67CD784F784D784D67CD684D68485
:10188800D684D67CB67CB67CB67CB67CB67CB67C78
:1018980077A598A598A598A577A5579D579D579D75
:1018A800579D579D579D579D779D97A5779D779DE8
:1018B800579D369D3695169516951695168DF68C68
:1018C800F68CF68C168D1695169516951695169512
:1018D8001695169516951695369536953695369528
:1018E8003695369536951695169516951695169538
:1018F80036A5589D5895779D94AD2E8C149D99A525
:10190800589D14A54D948B7B518499A53795569D68
:101918003795369536953795379537953795169582
:10192800379537953795379517951795168D168DE1
:10193800168D168D168D168D168DF68CF68CF68CEA
:10194800F68CF68CF68CF68CD68CF68CF68CF78C9E
:10195800F68CF68CF68CD684D684D684D684D68437
:10196800D684D684D684D684B684B67CB67CB6842F
:10197800D67CD784F784F784D684D67CB67CB67CAC
:10198800D67CB67CB67CB67CB67CB67CB67CB67C9F
:1019980077A598A5B8ADB8AD98A5579D579D579D03
:1019A800579D579D779D779D779D779D779D579DEF
:1019B800369D36953695369536951695169516951F
:1019C80017951795168D168D1695169516953795A4
:1019D8001695169516951695369536953695369527
:1019E8003695369537953795369537953795379592
:1019F800369D589D999D97A512A5CD83149D99A5AF
:101A080098A513A58E9CCC83AF733795779D56A563
:101A1800579D579D579D57953795369536953795C8
:101A28003795379516951795168D168DF68CF68C75
:101A3800178D178DF68CF68CF68CF68CF68CF68C4A
:101A4800D684D684D684D684D684D684D684F68C96
:101A5800D684D684D684D684D684D684D684D684AE
:101A6800D684D684D684D684B684B684B684D684FE
:101A7800D67CD784D784D784D67CB67CB67CB67C13
:101A8800B67CB67CB67CB67CB67CB67C967C967CFE
:101A9800779D97A5B8A5D8ADB8A577A5779D97A543
:101AA80077A597A597A597A5779D579D569D569D70
:101AB80036953695369537953795379537953795C1
:101AC800379537951795179517951795379537952E
:101AD80036953695369536953695369536953695A6
:101AE800369536953695379537953795579D579D41
:101AF80036A53795789D76A533AD909C75AD579DE5
:101B080078A575ADF1AC8F9C718498A598A556A55C
:101B1800579D779D779D579D36953695379537957F
:101B28003695169516951695168D168D168D168D55
:101B3800F68CF68CF68CF68CF68CF68CF68CF68C8D
:101B4800D684D684F68CF68CF68CD684D684D68445
:101B5800D684D684D684D684D684D684D684D684AD
:101B6800D684D684D684D784D684D684D684D6849C
:101B7800D67CD67CD784D67CB67CB67CB67CB67C44
:101B8800B67CB67CB67CB67CB67CB67C967C967CFD
:101B980097A597A598A5D8ADD8ADB8A597A5B8A588
:101BA80097A597A597A597A577A5579D569D369D67
:101BB8003695369536953695369516951695379504
:101BC800379517951795179517951795179537956D
:101BD800369536953795369536953695369D369D94
:101BE8003695369D369D36953795379D379D579D49
:101BF80057AD579D579D76A573B511AD75AD98A591
:101C0800779D74AD2D94CC830F7C779D569D56A5FA
:101C1800579D579D579D579D3695369536951695E0
:101C2800168D168D168D168D168D168D168DF68CB5
:101C3800F68CF68CF68CF68C178DF68CF68CF68C6A
:101C4800F68CF68CF68CF68CF68CF68CF68CF68C7C
:101C5800F68CF68CF68CD684D684D684D684D68434
:101C6800D684F684F78CF78CF784F784F784F78C9E
:101C7800D784D784D67CB67CB67CB67CB67CB67C5A
:101C8800B67CB67CB67CB67CB67CB67CB67CB67CBC
:101C9800D8AD98A597A5B8ADD9ADD8ADB8A5B8A514
:101CA80097A597A597A597A577A5779D569D369D46
:101CB800579D369516951695168DF68CF68CF68CDE
:101CC800168D168D168D168D1795179517951795D0
:101CD800369537953695579D3695369D369D579D41
:101CE800579D579D579D579D579D579D379D379D8C
:101CF80036A5579D779D75A512AD2E949294B8ADD3
:101D080097A533A50D942E940F7C979D97A5159DA7
:101D1800569D569D369D3695369516951595F58C96
:101D2800D58CF58CF58CF68CF68CF68CF68CF68CBE
:101D3800168D168D168D168D178D178DF68CF68CC3
:101D4800178D178DF68CF68CF68CF68C178D178DF3
:101D5800178DF68CF68CF68CF68CD684D684D684C1
:101D6800D684D684D684F684F684F684F784F78CF1
:101D7800F784D784B684B67CB67CB67CB67C967C71
:101D8800B67CB67CB67CB67CB67CB67CB67CB67CBB
:101D9800B8A597A597A597A5B8A5D8ADD8ADB8AD5E
:101DA800B8A5B8A597A5779D579D569D569D369D74
:101DB800369516951695F58CF58CF68CF68C168D51
:101DC800168D379537953795179517953795379514
:101DD8005795579D779D579D579D77A577A5579DF3
:101DE80097A577A577A577A5579D579D579D579D8B
:101DF80036A578A5569575AD909C6B7B308477A5F4
:101E0800569D75B5B0A4F1A4B294769D369D56A59D
:101E1800569D369D36951595569D369DD58C1695AD
:101E2800F5941695F58CF58CD58CF58CF68CF69486
:101E3800F68CF68CF68CF68C168D168D168D168D06
:101E4800168D168D168D168D168D178D168DF68C92
:101E5800178D178D178D178DF68CF68CD684F68C0A
:101E6800D684D684D684D684F684F78CF78CF68408
:101E7800D784D784B684B67CB67C967CB67CB67C90
:101E8800B67CB67CB67CB684B684B67CB67CB67CAA
:101E980097A597A597A5B7A5B8A5B8A5B7A597A5D8
:101EA80097A597A597A577A577A577A577A5569D13
:101EB800579D369D369516951695169537953795EF
:101EC80037953795379537953795789DB9A5D9A51D
:101ED800D9ADB8A5B8A598A5B8A5B8ADD8ADD9ADB0
:101EE800B8AD98AD98AD97A577A5579D579D579DC7
:101EF800169D77A5769D54A5B0A4CD8BEF83569DEE
:101F0800569D54ADB0A4D1A4B294B7A51595F59C2F
:101F18001595569D369D15951695569D77A5579DF1
:101F28003695369516951695F594F594F594F58CA1
:101F3800168D168D168D168D169516951695379540
:101F4800168D179517951795379557955795379572
:101F580037951795168D178D178DF68CF68CF68C90
:101F6800F68CF68CF68CD684D684D684D684D68421
:101F7800F784D784D784D784B684B684B684B684E5
:101F8800B684B67CB67CB67CB67CB67CB67CB67CB1
:101F980077A597A5D8ADD8ADB8AD97A597A597A5BE
:101FA80077A597A597A597A597A577A577A5569DF2
:101FB800569D569D369D569D579D579D57953795CD
:101FC800579D579D579D579D98A5D9AD1AB63BB6B5
:101FD8005BBE3AB61AB63AB61AB619B619B63ABECA
:101FE8003ABE19BEF9B5D8AD98AD77A577A577A54E
:101FF80078AD77A5769D74AD12AD6F9C0F8497A5CB
:1020080097A555AD12ADB1A4EF7B769D77A598B590
:1020180097A5369D159DB8AD77A5159D57A5F5943F
:10202800579D579D569D369D369D369D16951695FE
:1020380016951695169516951695169537953795FE
:1020480037953795379537955795589D57953795BF
:102058003795379537953795178D178D178D178DB8
:10206800178D178D178DF68CF684D684D684D68472
:10207800D684D684D684D684D684B684B684B684E8
:10208800B684B684B684B67CB67CB67CD684D68450
:1020980077A597A5B8ADD8ADB8AD97A597A597A5DD
:1020A800B8ADB8ADB8ADB8ADB8ADB8AD97A577A572
:1020B800569D569D369D569D579D579D579D5795A4
:1020C800579D779D989D98A5B9ADF9AD3AB63AB6A2
:1020D8003ABE3ABE5ABE5BBE3ABE19B6F9B5F8B5B5
:1020E80019BEF8B5B8ADB8ADB8ADD8B5F9B519BE23
:1020F800D9B5D9ADF8ADD6B5709C8C83AE7BB7ADEC
:10210800D8ADF39C0F8CCD836D6B559D169D538C6C
:10211800D494169D369D159D56A556A5369D97AD0A
:1021280077A577A556A5569D569D57A557A5579DA2
:10213800369D3695369516951695169516951695D7
:1021480036953795579537955795579557953795A8
:102158003795379537953795379537953795379517
:10216800178D3795178D178DF68CF684F684F78CB6
:10217800B684B684D684D684D684D684B684B68407
:10218800B684B684B684B684B684B67CB67CB67C8F
:1021980097A577A597A5B7A5B7A597A597A597A537
:1021A800D8ADD8ADD8ADD8ADF9B5F9B5D8AD97A5F6
:1021B80077A577A5769D579D579D579D579D579D08
:1021C8003695779DB8A5B8A5D9ADD9ADF9ADF9AD16
:1021D800F9B51AB63ABE19BEF9B5D8B5B8ADB8ADA5
:1021E800D8B5D8B5B8AD97ADB8ADD8B5F9B519BEAD
:1021F8007CC61AB6D7ADF6BDD1AC2F9C719497ADFD
:10220800569D55AD509CAD7BEB524E5B8C4AC939FF
:102218006B4A4A42CD52E939AC4A159D97AD77A52C
:1022280056A556A5369D369D369D56A576A576A506
:10223800569D569D369D369D16951695169516955E
:1022480016953695379537953795579557955795E8
:102258003795379537953795179537953795178D5E
:10226800178D178D178D178DF68CF68CF684F68CD6
:10227800D684D684D684D684B684B684B684B68406
:10228800B57CB684B684B684D684B684D684D6841F
:10229800B7A597A597A597A5B7A5B7ADD8ADD8AD5C
:1022A800F8B5F8B5D8ADF8B519B639BE19BEF8B550
:1022B800D8ADD8ADB7AD97A577A5779D569D579D55
:1022C800579D97A5B8A5B8A5B8A5B8ADD9ADD9AD4E
:1022D80019B63ABE3ABEF9B5B8ADD8B5F8B5F9B53C
:1022E80039C619BEF9BDF8BDD8B5F8B5D8B5D8B551
:1022F800DAB5F9ADD7A5D6BDB0A490A4D2A4D7AD10
:10230800B7A5F49CAA628639E7312932C931CA399E
:10231800C8316B42C931E93987294B42169D56A508
:10232800369D36A5369D369D369D56A556A576A56D
:1023380077A577A5569D569D569D369D369536951B
:102348001695369537953795379537953795379547
:10235800579557955795379537953795378D178DE5
:10236800178D178D178DF78CF68CD684D684D68466
:10237800D684D684B684B684B584957C957C957CC1
:10238800B57CB684B684D684D684D684D684D684DE
:10239800B8AD97A597A5B7A5B8ADB8ADD8ADF8B500
:1023A800F8ADD8ADD8ADD8ADF8B5F9B519B6F9B519
:1023B800D8B5F8ADD8ADB8AD97A577A5779D779D79
:1023C800779D98A5B8A5B8A5B8A5B8ADD8ADD8AD2E
:1023D80019B619BEF9B5D8B5B8ADD8B5F8B519BE9E
:1023E800F8BDF8BDF8BDF8BDF9BD19BE19BE19BED6
:1023F8001BBE1AB6D7A5D5B5F1ACB1AC308C56A575
:10240800769D2D636539E320852187216721482939
:102418004621472947212621A831A8312A3A738C19
:10242800F59C159D36A536A536A556A556A556A5DF
:1024380077A577A577A577A5579D569D369D369D97
:102448003695579D379D3795169517951795179576
:102458003795579557953795379537951795178D1C
:10246800178DF68CF68CF68CF68CF68CD684D68482
:10247800D684D684D684B684B584B584B584B58428
:10248800D684D684D684F684F684F684F684F684D4
:10249800B7A597A597A5B7A5B7A5B7A5D8ADF8AD22
:1024A800D8ADD8ADD8ADB7AD97ADB7ADB8ADD8AD9F
:1024B800B7ADB7ADD8ADB7AD97A577A5779D779DE3
:1024C800779D97A597A597A598A5B8ADD8ADD8AD90
:1024D800D8B5B8ADB7ADB8ADB8AD97AD97ADB7B5E0
:1024E800B7B5B7B597AD97ADB7B5D8B5F9BDF8BD20
:1024F800B9ADF9ADF7ADB5B590A4CD8B0B6B55A5BE
:102508001595A73145316531041905114721E62094
:102518000619E51806212621061906218729C8313A
:10252800B494F594359D56A556A556A556A556A519
:1025380097A597A577A577A5569D569D369D16957F
:10254800369D37953795179516951795379537957D
:10255800168D169516951795168D1795168DF68C5A
:10256800F68CF68CF68CF78C178DF78CF68CD68457
:10257800D68CD68CF68CF68CF68CF68CF68CF68C83
:10258800F68CF68CF68CF684F684F684F684F6845B
:1025980076AD96ADD7B5D7B5D7B5D7B5D7B597ADCD
:1025A800B7A5B7A5F8ADF8ADD7A596A596A5B6ADCC
:1025B800B7A5B7A597A597A577A5779D569D569DCD
:1025C800779D779D779D77A577A597A597A5B7A5BB
:1025D800B7A5B8A5B8ADB8ADB8AD97AD97AD77AD5F
:1025E80097AD77AD77AD97AD97AD77AD97ADB8AD02
:1025F800D5AD96ADD8ADB6ADD194CD738E63979D5C
:10260800979D8B4A0529C420252924292529E628B0
:102618004629A731A829A829C931893167296729F5
:102628002942939476B555AD76A5B7A577A516A595
:1026380077A577A5579D569D569D569D569D579DA6
:10264800579D779D579D37953795169516951695ED
:102658001795F694168D3795178D178D1685D68490
:10266800368D168D168D168D168D378D178DD68451
:10267800D594D594F694F68CF68CF68CF684F6847C
:10268800D684378DF68CF68C369DF594169DD594A8
:1026980030849194139D54A5D6B5D6B518BEF8B517
:1026A800D7ADD8ADB8A5B7A5D8ADD8ADB7AD76A5D7
:1026B80076A5769D569D569D769D779D779D769DB0
:1026C800569D569D569D569D569D77A597A597A5AF
:1026D80097A597A597A597A597AD97AD97AD77AD12
:1026E80077A577A577A577AD77AD77A577A577A5F2
:1026F800B5AD96A597A576AD32A56F8C0F74B7A525
:10270800B8AD929466418A62EE8B2B73E7492639FD
:102718004631C831093288296829A9398831A83150
:1027280087292D6B15A5D7B5559D569D56A598ADEE
:1027380056A556A556A5569D579D579D579D779DBD
:102748003695B8A53695779D579D3695579D16951C
:10275800F69436951695F68CF68CF68C168D37957C
:10276800F68C168D1695168DF68CF68CF78CF78CE4
:10277800F694F694F78CF78CF78CF78CF784F6843C
:10278800178DB584F58C1595117410745184EF7BF1
:102798008B6B6B6BCD73CD7B2F849194D29C75AD75
:1027A800B7B5D8B5D8B5B8AD98A578A598A5B8AD3A
:1027B80076A5769D569D569D569D769D769D569DF1
:1027C800569D569D569D569D569D569D769D76A521
:1027D800769D76A576A577A577A577A577AD77AD0C
:1027E80077A556A556A577A577A556A556A556A5A6
:1027F80095A577A557A555A573ADB09CEF7B76AD8C
:10280800B6B5F3AC0FA433CD6FB4AFB46FB44872A0
:1028180088316729872147196829893147218829FB
:10282800A829E839118476AD359D96A556A536A513
:10283800369D369D569D569D569D569D569D569D38
:1028480097A5769D569D97A597A5369D369D569D2D
:10285800569D369D369537955795378D378D3795D3
:10286800168D37953795F68CF68CF68CF68CF78C9A
:10287800F78CF78CF78CF78CF78CF78CF78CF78C38
:10288800178DD584769DAE63EA52684287422A5BEB
:102898006C6B88524B6B4B6B6B73AD7B4B6BCE7B0E
:1028A8003084728CB394159D97ADB8AD97AD77A56C
:1028B80097A597A576A5769D569D569D569D569D9E
:1028C800569D569D569D569D569D569D569D569D68
:1028D80056A556A556A576A576A576A576A576A578
:1028E80077AD56A556A556A556A556A556A556A5DF
:1028F80055A577A558A556AD73B56F9C8D7B75B555
:1029080075BD53C56FBC0DB40CB46CBC4DBCE99A15
:1029180087314621471968216829272927218721D6
:102928008729A831728C35A5149D96A577A556AD33
:10293800369D36A556A556A556A5569D569D56A50F
:10294800569DB7AD56A556A515951074F494B38C3D
:1029580076A5359D569D779D779D37955795179503
:10296800179537951795D68CF68CF78CF68CD684F8
:10297800F78CD78CD78CD78CD784F78CF78CF78CBF
:10298800F68C369514958D634B5B0532C331864AB8
:102998000B6B6539E641E649685A885A6C7BAD7B12
:1029A8002F8C0F848D73CE73D294B6ADD7B5B6ADD8
:1029B800B7A5B7A5B7A597A577A5769D779D779D68
:1029C800769D769D779D779D77A5769D569D569D9C
:1029D800569D569D56A556A556A556A556A556A527
:1029E80076A556A556A536A536A556A556A5569D2F
:1029F80055A578AD79AD97B574BD4E9C6C7B75BD0A
:102A0800B5CDF1C4CCABCBB32CC4C9ABCAB3458AE2
:102A18006731872967216829682968316829461933
:102A28002519093AF49CF49C359D76A576AD76ADCA
:102A380056A556A556A556A536A556A556A556A5D6
:102A480076A5159D97AD55A50F74AA4ACA520F7C55
:102A580076A5B6AD76A5F4943695369557953795FF
:102A680016951795F694F68CF68CF68CF68CD6841B
:102A7800D684D684D684D684D784D78CD78CF78C42
:102A8800D68C579DB38CF3944B5BE4316542654219
:102A98003094EB6AAA62E64927522339AD83AD83A5
:102AA8000E8C2B6B88528C7333A5F6B5B6ADD6B5A4
:102AB800F8ADF8B5F8ADD8ADB7A597A597A597A582
:102AC800779D77A577A577A577A577A576A576A528
:102AD800369D569D569D56A5569D569D369D369DAE
:102AE80056A5569D359D359D359D369D569D569DC1
:102AF80096AD98AD78AD97BD94C54F9C6C7B75BD70
:102B080095C590B42EBC2DC42BBCC9B348A3668A06
:102B18006731462946214729272927294721461968
:102B280025118B4A15A515A5D7B5B7A576A556AD18
:102B380076AD56A555A5359D369D36A556A556A5FF
:102B480055A555A555A596AD4C63C631063A6B6B90
:102B58005084339D7184AE6B359D97A5369D579DE6
:102B6800579D379D379D379DF68CD68CF68CD6842D
:102B7800F484F584F584D584D684D68CF68CF68CCA
:102B8800F6941695369D317C273A273A6B63CC73B9
:102B9800909C709CB0A44F9C0E94E9724E9CCD8B77
:102BA800ED8B2652C120484AF39C38BE18BE39BE68
:102BB80039B619B619B6D8ADB7A597A577A577A52B
:102BC800779D779D77A577A577A597A597A597A5CD
:102BD80056A556A5569D369D359D359D359D359DE9
:102BE800159D359D359D159D159D359D569D569D6B
:102BF80096AD98AD79AD97B594BD6F9C8D7B75BD3D
:102C0800F7CD70ACCDAB299B499BEAAB6AA34AA32D
:102C18008639E4206631463106314731052187215E
:102C280046198F6B97B5B7B5F8B596A596ADB7B5F4
:102C3800B7AD96AD76A556A556A556A556A535A504
:102C480035A555A5B6B5718CC952E95A674AC85217
:102C580088524B630B5BEB52F39476A556A577A588
:102C680077A5169D369D579DF694D68CF68CD68CF6
:102C78001485F48C158DF58CF58CF68CF68CF69401
:102C8800379DF594159D2D5B0C5B307CF29474A5F3
:102C98002D946E9C4E9C6E9C6E9CD0AC6E9C2E941B
:102CA8008FA42A738539074A728CF9BDF9B5D8AD56
:102CB80019B618B6D8ADB7AD97A577A5769D569D28
:102CC800769D569D769D769D76A597A597A597A501
:102CD80097A597A5769D569D359D359D359D359D26
:102CE80015953595359D359D359D569D569D569D19
:102CF80075A598AD98ADB7B573BD8F9CCE83B6BD9D
:102D0800D2A42B83A561A461867AA67A6A9BCDABEF
:102D1800696204312431E430C851CC72A7390519ED
:102D28006519F07B77B5B7B596AD76A5B7ADF8BDA3
:102D380018BED7B5B7AD97AD97AD97AD76AD56A5DB
:102D4800B7B5B294F39C8D6B0A63E95AA852674AE7
:102D5800A852A8522A638C6B918C928C159D97ADC2
:102D680056A5B48CD494369D169516953695F58C43
:102D7800158D158D158D15951595F594F594F59476
:102D8800F594159DB38C72841495349596A5759D0C
:102D9800ED8B0D942D942E940D940D944E9CED8BEB
:102DA8002E9C0E94AD836D73EF7B159D19B6D9AD2E
:102DB800D8ADD7ADD8ADB7ADB7A577A5769D769D7B
:102DC80077A5769D569D769D76A577A597A5B7A5F7
:102DD800B7AD77A5569DB8AD3595769D769D369D50
:102DE800369D569D769D769D569D569D769D569D03
:102DF80075A597A598ADB7B552B5B0A4AD7BF3A4AA
:102E0800D2A40A7B687A4359257265726B9BCDAB55
:102E1800AD9364492341244149728E93695A241918
:102E2800A621B394F5A436A535A5359D559D55A580
:102E380075A5D7B519BEF8B5F8B5F8B5D8B5F8BDC4
:102E480039C6AE7389528852684A874A8752875270
:102E5800E862E85A09638852684A0F7C5184149DD5
:102E6800107CEC5AB39497AD56A5569D77A5369528
:102E7800579D579D379D369D369D369D159D1595B9
:102E8800159D359D14951495769D769D359D559D7A
:102E98004F9C27522752CD8B2E940E94CD8BCD8BE1
:102EA800ED8BED936B7BCD830F84B28CF8B5B7A512
:102EB800B7ADB7ADB7ADB7ADB7A597A577A597A58A
:102EC80097A597A576A577A577A576A576A597A5BD
:102ED800569D97A5569D97A597A5569DB7A5769DEE
:102EE800769D769D779D779D769D779D77A5569D56
:102EF800959D569D77A596ADF1A42D942B73919C25
:102F080094BD70AC0993A88A499B2CB42DBCCDB351
:102F1800AC9BC87A84596C9B07726D93CA6AA110DE
:102F2800493A359D15A515A556A5559D559D96ADAE
:102F3800D7B539BE39BED8B5D7B519BE39BE18BE52
:102F4800F7BD4C634842684A474A05422642464A0A
:102F5800E862C85A8752474A684AA952EA5ACF7B58
:102F6800EB5A8E6BF7BD35A576AD96A597A5B7A597
:102F780078A578A557A557A556A556A556A5569D33
:102F8800559D559D569D96A576A5769D569D36953B
:102F98002F94485AA6418D7B5094CA6A23314B7BA3
:102FA800ED93ED8BA862A85AAC73B18C17B6D6AD69
:102FB800B7ADB7A5B7A5B7A5B7A597A577A597A5A1
:102FC80097A597A577A577A576A576A576A576A5DD
:102FD800769DB7A597A577A5B8ADB7A5B7A5B7A5A9
:102FE80097A597A5B7A5B7A5B7A5B7ADD8ADB7A508
:102FF800B5A5769D77A5B6B552ADAFA4ED8B13AD4B
:10300800D5CDEDA3EDBB4DCC4CC4ADCC0BBC6BB357
:10301800099309932A938CAB4782CEABE651C21829
:103028000B5376AD15A5F5A476AD96A575A5B7B5E0
:10303800F8BD39BE18BEB7B5D7B518BE59C658C6FB
:10304800F7BD5084484A88526752464A8431A85A84
:10305800C862A75A875A6752C539684A2B63684AB3
:10306800684AEE7B508C8D6B0C5B75A596A597A571
:1030780078AD77AD77A576A576A576A596A596A51C
:1030880096A5769D97A5769D569D98A5B8A5579D1A
:10309800CE8B0F946C7BAD83709C8C7BC5490A7377
:1030A8000D940D94675A4331C95AB294D6ADD7AD31
:1030B800B7AD97A596A576A596A5769D769D769D9E
:1030C800769D769D769D76A577A597A597A597A5D4
:1030D80076A576A597A597A5769DD8AD769DB7A533
:1030E80097A597A5B7A5B8ADB7ADB7ADD8ADB8ADED
:1030F80017AEF8ADD9ADF7BDD3C551BD8FA474BD1A
:1031080012BDD0C42DC48EDCCDDCC9BB68B3A7A268
:10311800C78AC78AE8924AA30EC44B9B4341E21868
:10312800AE6B55A515A5F5A476AD96AD75ADB6B53E
:10313800B6B596ADB6B5B7B5F7BDF7BD17BED6B53A
:10314800F7BD54ADEE7B684A8852C53906420A6B12
:103158002652C86246524752E541274A484A274AFA
:10316800274A6852EA5A0B63894AD394F8B596AD50
:1031780097AD96AD96AD96AD96ADB6ADD7ADD7AD8C
:1031880018B6B7A5B8ADF9B5D9AD98A598A5B9AD94
:10319800EC8BCC8BED8B2E94EE8BEE8B0E8CAC8364
:1031A800AC8B0E942A732752EB62518C76A597A5A7
:1031B80076A5559D359D359D559D559D569D569D8C
:1031C800569D569D569D769D77A597A5B7ADB7ADEB
:1031D800B7AD97A597ADD7AD96A5D7ADF8B5D7AD8F
:1031E800F8ADF8AD18B618B6D8B5D8B5D8B5D8B5BD
:1031F800F7AD19B6F9B5F7BDD4CDF0B40D9412BD3D
:103208004A8BA782C79A0BCC2ACCA8BB27ABA69A15
:10321800A682E792868A2AA3E9A2E671234123219E
:10322800B18C75AD76B556B576B596B596AD95B5FE
:1032380096B596B5B6B596B595B575ADF6BDB5B5B1
:10324800D19C94B5B5BDED83885AC541274A064A35
:10325800E649685A4752E649E641E641E641064AE8
:10326800274A0642C95A8952E639107C75A5359D08
:10327800F7B5F7B5F7B5F7B5F7B5F7B5F8B5F8B5E4
:10328800F8ADF8B5D8ADB8ADD9B5B8AD98AD98AD7D
:103298008EA46A7BA7626B7B2E8CCD7BCD832E940C
:1032A800CD8BED8BAD8BCE83AE83F07BB7B577A599
:1032B800769D559D35953595359535951595359565
:1032C8003595369D569D569D76A597A5B7ADB7AD54
:1032D80055A5359D149D76A5D7ADD7AD1CDFBBCEC2
:1032E80018B6F8B5F8BDF8BDD8B5D7B5D8BDF8BD8E
:1032F800F6B519BEFABD18CED4CD6EACCC93F2B4E7
:10330800B0B4C4696AAB2CCCA9B388AB079BA79AA5
:103318000893C78A4582E579A471888A234164297C
:10332800749D75AD97BD97BD76B596B5D6B595B56F
:10333800D7BD95B555AD75B517C637CE37CEF2A4FE
:10334800885294B5D9E6B4BD685284398439E649BF
:10335800C6498541E7498541C641064A6852E54163
:103368008439E541A95A2B6BCA5A75AD718C35A5BC
:1033780017B617B6F7B5F7B5F8ADF8ADD8ADD8ADFF
:1033880097A5D8AD97A576A5B7B576AD928CCF7B26
:103398002EA4AB8B634184390E8C2F8C4852885AEB
:1033A800ED8BED93AC836B7B6C7BCE7BD7BDD7B5B8
:1033B800B7AD96A576A576A576A5769D569D569D1C
:1033C800569D569D769D769D76A5B7A5B7ADB7ADAA
:1033D80075A5359D349D96AD59BE39BE7DE75DE72F
:1033E80038BEF8B5F8B5D8BDD7B5B7B5B7BDB7B518
:1033F800B6B597B5B8BDD7C573C58EAC2EA4D2B433
:1034080094CDACA34AA3E89A69A3E68A499BC892DB
:10341800A682667A6682468A6892888A84490A5BA6
:1034280016B6B6AD97BD77BD96BDB6BDD6BDD6BDF1
:10343800B6BDF7C558CE57CEF6C5F1A4D19CED83DD
:103448008B7311A573B5909CAD83EA6AEA6AEA6A40
:10345800CB6A695A495A495A074AA539A539064AC9
:10346800064A064A274AEA62508C718C0C6355A5B5
:10347800B7ADB7ADB7A597A598A598A598A5989DF8
:10348800B8A5769D75A5D6B554ADED7BE85AA7527B
:103498002FA4EE93275AE749AE837194E649433146
:1034A800AC832E9C8B83E549875AAC7B74AD17BEE1
:1034B800F8B5D8ADD7ADD8ADF8ADD8ADB8ADB7ADD6
:1034C80097A597A597A597A5B7ADD8ADF8B5F8B5C1
:1034D800D7B575A596AD96ADB7ADB6AD149D75A526
:1034E80076AD35A5149DF49CD39CB39493947294B3
:1034F800B2947394949CB2A48FACAFB4F2BCF2B4FF
:1035080013BD8C9B4782C892499B078BC88AA88A9F
:10351800867A2572457A26826892888A275A908CFC
:10352800549DD39472943194729C91947194B19CEB
:1035380013ADB19CD2A433AD33AD4F8CF1A4D09C64
:10354800F1A4D09C8F9CD1A4F2ACD2AC33B513AD0E
:10355800D4B414B5F4ACB2A4C641A539074A064A96
:10356800C541C962885A274A308C0C634D63B7B588
:1035780076A577A5579D579D789D789D789D789DD0
:10358800369576A575A57084095B86520763686BC6
:103598004C9CED93AD83AD83EC8B2D942A73C8625C
:1035A800EC8B0D8CCD83C541C339897352AD38C6B8
:1035B800F5ADD6ADB6ADB7ADD7B5D8B5F8B5F7BD9D
:1035C800F7BD91947094B0A46F9CB0A490AC70A413
:1035D8008FA44E946F9CB0A4D1ACB0ACB0AC6F9C2F
:1035E8006FA46FA46EA48EA48EA48EA4AEA4CFAC38
:1035F8008EAC8EACCFACF0ACF0ACF0AC10AD0FB57F
:1036080030C56DB4699BCAAB08938782A78A267AAE
:10361800267226724682A68AE89A6682887AAD93CE
:10362800D2B4D1B46EAC698B8A9B6A9B6A9B8CA31B
:103638008B9B6B936B936B8B6B8B2D9CCFACAEACD6
:103648008FA490A4B2A4D2ACD2ACD0A40FAD0EADCE
:1036580011B511B532B5B0AC6B8B2A832A8B098BA7
:10366800098B498B097B6B83CD7B6C63559596954C
:10367800969D3595769556955695769D5595359D95
:10368800549D95AD129D8752C75AC762A662865A45
:103698002B94ED938D830F942D94EC8B2E94ED8BBE
:1036A8000D8CAC830F946C7B296BCB7B12A5F8C572
:1036B800F6B5D6ADB6ADB7ADD7ADD8B5D8B5D7B5E3
:1036C800B6B5B19CAD7B8C7B2E94B0A490A490AC85
:1036D8008FA42E946E9C8FA4D0ACD0ACD0ACB0ACE0
:1036E800D0ACD0ACD0ACF0ACF0ACCFACCFACCFACB5
:1036F800EFB4CFB4EFACF0ACF0A410AD30B510B56A
:1037080030C56DB4AAA3499BA78A467AE4690572B5
:10371800067205724682A792A78AA88A276A8D939D
:1037280070A4709C12B5CC930DA40DA4EEA32FAC7D
:103738002DA4ED9BED9B4FA40E9C6EA4F0B4CFACD2
:10374800F0ACF1B4F2ACD2ACF2ACF1ACF0AC30B558
:1037580011B511B532BDD1ACED930EA42EAC4EAC63
:103768004EB4ECA3CC93D0ACAD7B4C63D7A5D7A516
:10377800969D979DF9AD1AB63AB6F9ADB8A5D8ADEC
:10378800D7ADB28CEB5A27426752C862675A465285
:103798002C9CED93EB728962AC830D8C8C83AD838A
:1037A800CD8BCD8BEF936D7BCD838B7BD29CF9C575
:1037B800D5ADB5ADB6ADB6ADB7ADB7ADD7B5D6B578
:1037C800F6BD12A5AC736B736E9CD0ACD0ACD0AC0C
:1037D800D0AC6E9C6E9C8FA4D0ACB0ACF1ACF0AC0D
:1037E800F0ACD0ACD0ACF0ACF0ACCFACCFA4CFA4A4
:1037F800AFACCFAC10B510ADCFA4EFA410ADF0B402
:1038080051C56DAC498BA7822572C469A461467203
:10381800E569257A868AC792878AA8822762B2AC28
:10382800EF8B284AEE830F9470A491ACD3B451A4C3
:10383800AFACD0B490ACB1AC4F9CD1AC52BD31B5AB
:10384800F0AC31B511B511B512BDF1B4D0B411B5A4
:1038580031BD11B552BDB0ACCD932EA40D9CEDA3D6
:10386800CC9B4DAC0D9C2E944B73273A1395D7A542
:10387800B7A5979D779D7795989D789D3695779D67
:1038880097A5D38C083A4842A9520642E541064A10
:10389800EB932EA4CA72C23088626FA44B7BA541F9
:1038A800A96A0F9410944D7BEA6A6B73B29CF9C5B0
:1038B800D6ADB5AD95AD96AD96AD96ADB6ADB5AD4B
:1038C800D5B5F19CED830D84AFA4CFA4F0B4D0ACF2
:1038D80011B58FA48FA4AFA4F0ACB0ACF0AC11B507
:1038E80011B5F0ACF0ACF0ACF0ACF0ACF0AC10ADA5
:1038F800F0B4F0B4F0ACF0ACCFA4CFAC10B531B5A7
:1039080052C58FACC87A266A266A066A0672A4610E
:10391800267A878AA792E89AE9924872AA7276BDAF
:1039280056ADC839A731E841094A4A52CD628C5A86
:10393800895A2B734D7BAE83AE83519C91A411B5EC
:10394800F0ACCEACADA48EAC8EAC8FACB0B4F1BC48
:1039580010B511B573C5D0AC0E9CB0AC8FAC6FACC4
:10396800AFB42DA40D9CB0A46752A95295AD96A5ED
:10397800769D55951595F58C158D158DF58CF48CD2
:10398800F494B6ADAE6BE631E539E5392642E5414A
:10399800CA93ED9B0A7B065AC86A0D94CD8B644185
:1039A800265ACE8BCE8B6D7B0231A85A7094F9CDF6
:1039B800F6B5D6B5B6B5B5AD95AD95AD95ADB5ADD4
:1039C800D5B573AD8F944D8CEFA4CFA410B5F0ACE2
:1039D80031B5AFA4AFA4AFA411B5F0AC11B531B5F2
:1039E80011B5F0B4F0ACF0B410B510B510B510B511
:1039F80011B5D0ACCFAC10B510B5F0ACF0ACF1B49B
:103A080032B5D1ACEE930F9C50ACEA82C5612772F7
:103A1800668A8792A792099B099B687A109C56B57B
:103A280057AD0E5B47216829EA39A9318931CB396D
:103A3800E941E941A939A939A9410A4AC8498C7B10
:103A480011B56C9C4A9C6AA42AA40BA4ECA3AB9B5A
:103A5800F0B411B552BD0D946762C86AC86A876A26
:103A68006762E872097BCC8B0E8CCD7B918CD294EB
:103A780016B6D5AD16B679BE59BE18B618B617B66D
:103A880016B6F5B553A5A8524642A7522542C439E1
:103A9800A98B4983297B4A7B497B4A7B6B7BC96A13
:103AA8000973ED8BCD8B6C7BC541875A2F8C79D6EA
:103AB80098CE78CE78CE78C678C678C678C698CEAE
:103AC80097CEB7D672AD0C84F0A431B510B510B549
:103AD80031B5F0ACCFA4AFA411B510B510B531B560
:103AE800F0B4F0ACF0AC10B510B5F0ACF0ACF0AC94
:103AF800D0ACD0AC10B531BD10B5F0AC11B532B505
:103B080053B5B2A4519C1094F3B40B7B8138887AD6
:103B1800658A658AC79A09A3C8920B8B76CD76B554
:103B280078AD137C6829AA31AA31AA31CB31EC3996
:103B3800AA31CB39EB39EC41EC41CB412731295241
:103B480011AD8CA4AAA4CAB4CAB4ABB46CB4CBA348
:103B580010BD52BD52BDCC8B8339C541675A265220
:103B68000552E86AAB83E86AF1ACC9624B7390947A
:103B7800DCF75AE719DF9CEF9CEF5BE77BE77BEF0D
:103B8800BCEFB7D6CC73454A496B296B45528A734B
:103B9800E993EA93EB938983AA830C948A83AB8392
:103BA800EC8B4E9C4E9CED8B0D8C8B7B2E8CB9DE5A
:103BB8003AEF3AEF3BEF5BE75BE75BE75AE75AE739
:103BC80019DF39E7F4BD0C84CFA451B531B511B56F
:103BD80051B510ADCFA4AFA431B511B510B510B51E
:103BE80010B510B511B531B510B510B510B510B583
:103BF80031B531B531B510B5CFACF0B432B533B558
:103C080054B531942D6BE849109450A46549C659B0
:103C1800658A869208A329A3C992EEA314BD56B556
:103C2800D8BD33848929CA3969290C426D4AAA3119
:103C3800AC31EC39CC31AC318B318B39693147310E
:103C48000E8C8DA4CBAC89A427A408A40AA4CAA36B
:103C5800F0B431BD52BD2E94264AC862ED834A7332
:103C68004652CC838FA42E94F0ACA862A8620E8C26
:103C780015C656CEF5C5D4BDF5C5D5BDF5C536C6F0
:103C880056CE73B5E862E44146524A734A73A76256
:103C9800E993C88B677BC98B687B697B697B2873D1
:103CA800AA83EC8BAB83EC8B8B7B8B7BCC7B77D623
:103CB80019EF1AEF3AEF3AEF39E719E718DFF8DEAC
:103CC80039E7F8DE35CE8E94CFA452B572BD31B542
:103CD80030B5F0ACAFA48EA431B531B531B531B53E
:103CE80010B5F0B410B510B510B510B530B551B564
:103CF80011AD10B510B5F0B4F0B411B590A4CE83E1
:103D0800CC62A8398831E941939C55BDAA72855186
:103D1800868A089B099B4AA36BA390B46D83519430
:103D280097B5B594EA41A9398931EE62EF628931D4
:103D38000C3ACB316A29CB318B314A29CB39072947
:103D480025314A7BADA48AA449A429A40AA44CAC71
:103D5800EC9B2D9C4E9CAC83254A09632E84E9621A
:103D6800C862ED8B8FA42E9C8FA42652054AE54984
:103D7800AC83D5CD57D6F6CD16CED5C5B5BDD5C5F0
:103D8800D5C557D6F1AC475AE96A4E9C096BE96A22
:103D98000994467BC88B0A8C076B076BE76A655AE0
:103DA800E349C341455A2973E449E5496A7356CE44
:103DB800F4CD72BDB3BDD3C596D618E718E755CE76
:103DC80055CE76D6F4C56F9C4E948B7B4B7BED8B92
:103DD80051B5CFA48E9C4D9C10B531B510B510B51A
:103DE80010B510B531B510B510B510B531B531B540
:103DF800F0AC11B5F0B4D0AC11B590A42752E7419E
:103E0800C939C939CA390A423294B3A4B2ACEF9B52
:103E18008A9B6A9B0993CDAB91BC50AC509C108493
:103E2800728CD5940B42AA39CA412B4A2B4A883145
:103E38000A3AC931A931C931AA31AA316A312829C6
:103E480006292431AC83AEAC6CA40B9C8DAC4DAC74
:103E58002DA42D9CAFA44A73833187524B6BC95A4A
:103E6800C5410D8CD0A46F9C8FA4AB834A7B4A7B41
:103E7800097393C553BD53BD73BD12AD53BD32B560
:103E880032B573BD11B54E9C2E944F9CCD8B6B8370
:103E980064628462C56AEA8B034A865A4552E762BD
:103EA800044A865ACB836A7BA3416331096B31ADDF
:103EB800CFACCFAC2C94EB8BCEA434CE34CE54D62E
:103EC800D3C515CE15CED1AC4A7302316439A96277
:103ED80072BD10B5EFAC8EA410B530B510B531BDBC
:103EE80031B531B531B510B510B510B510B511B53E
:103EF80031B5F0ACD0AC11B512B5EA72A639E841CB
:103F08000A428931EA3988314F7335B592A4D2AC67
:103F180052C54FA42FA495D595CD519C929C75ADB3
:103F280035A577AD8D528939CA41EA490A428831A7
:103F3800093AE831E831E831C831A931693128292D
:103F480069394731CF8373BD11B552BDF0B432C55D
:103F580031BD10B572BD8B7BC4398B6B12A58C73C8
:103F6800E95A0D84B0A48FA46FA4EC93D0ACAFA48D
:103F7800D0A4B0A44E948F9CB0A44F94CC832E941C
:103F8800F0AC8E9CCFA4D0A46E9CAC832E94CC8B2A
:103F9800E351445AE66A0B8C2973EC8BAB830D8C86
:103FA8006A7B0552A762AB83CD8B8C83ED8B2D8CFE
:103FB8002C940C946D9C6C9C4C9C6C9C4C9C2C94F0
:103FC8008EA40D944E9C12B54F9CC541E649EA6AF1
:103FD80051BD51B531B5CFAC10B531B510B531BD06
:103FE80031B531B531B510B510B5F0B410B510B55F
:103FF80010B511B5F0ACF1ACF2AC074AA739E941FC
:10400800C939CA390B42CA39D18397BDF3ACD2AC8E
:10401800919C34B5B6C596C593A4729455AD96AD2A
:10402800B7ADB9B50F638939CA41CA410A42A83147
:10403800E839C831E839E839A8318831693129299E
:104048004931CA414B52D3A4F2AC32B511B5F0B4E0
:1040580011BD51BD52BDAB7BA7524E8432A58B73A7
:104068002A6B4F94F1AC90A4ED93665AE86A2973D1
:104078004E946E948F9C8F9C4E94AB83E862EC8335
:104088006E9CF0ACEB8B286B0C8C8A7BEC8B4A73A8
:104098002A7BE76A697B0C948C7B6B7B8B7B6B7BC5
:1040A8006B7B633942394A7B0E946C7B6B7B4D94F6
:1040B8008EA4CFAC6DA4EEB42B9C6CA4CA93AEAC0A
:1040C800AEACCC8BCC8BD1AC709C274AC541885206
:1040D80011B551B531B5CFAC10B551BD31B531BD04
:1040E80030B531B531B531B511B511B511B531B5F9
:1040F800CFB431BD11B5D1ACD2AC084AE841C93909
:10410800EA390B420B42C939B49C97BD75B513AD5A
:1041180055ADD39C7394B4A4F5A456ADF8BDF8B5C9
:10412800B7ADB9B591736A39EC49EA412B42C93147
:10413800A931A831A839A8398831883189318A311B
:10414800EB41AA3948312A4A895A909C32AD10ADC0
:10415800F0B452BD52B5CC83A7520D844F8C4B6B33
:10416800E95A6F94F1AC0E942A73875A2973CB835A
:1041780032AD11A5D09CD0A4ED83ED83AF9CD0A423
:1041880051B510ADCFA4AB8329738A8310AD4A73A0
:10419800265A455A27730C8C4752A541C549475A98
:1041A800E5490652C86A6A83A96A2439C549CB8B8E
:1041B8000C944D9CEEB4EEB4CDB4ADAC8DACAEB4B5
:1041C8000C9CCB8B0D94B0A44F946852C539C95A36
:1041D80011B551B510B58FA4EFAC51BD31BD31B596
:1041E80031B531B531B531B531B531B531B531B597
:1041F80010BD10B511B512B5B19CC841A839CA395E
:10420800EB41EB410B420A4256B5D7BD75B595BD9A
:1042180076ADD8BDD9BD98BD78B597B5B7AD96ADD3
:10422800B7ADB8B5138C8A390C4AEB392B3AE9315A
:1042380089318931A939A93988318831A931A93118
:10424800482928294729262946298D7373B511A598
:10425800F0B4F0AC72BD4A73C4390963ED7B4B6BA3
:104268000A6B909CF2AC8C83465A6A7B2D942D8CF9
:104278004F94B19CEE834F942F94AC83ED8BEC8BD1
:10428800EC8B8A83AB838A836A83AB8BEC8B8762E4
:10429800275A0873CA8B0D94275AE64906520652C4
:1042A800A449C86ACB8BAB8B4B7BA549055A687B65
:1042B800C76A4D9C8DA40FB590CD2EBD0B9C70CDBB
:1042C800EB9B49838B836F9C4F94674AC5394B633B
:1042D80031B572BDF0AC4E9C8EA451BD31B531B52F
:1042E80031B531B510B510B511B511B511B511B558
:1042F80030BD10BD11B533B5EF8387318931EB3946
:10430800CA392B4ACA416F73F8C5D7BD75B575B59B
:1043180097B5B7B577B578BD98BD97B596B5D7B504
:1043280096AD77B574948A41CC41CB390B3AC929FB
:104338008939A939AA39CA3989318831883187290F
:1043480006194729E62027298831C7392F8474ADF3
:1043580032B511AD52B5E86225422542E95AC95A2B
:10436800EA62D1A4F2ACCD8BA8626A73496B497337
:104378006C7B0A732B736B7BC96AE9724A7B097B76
:1043880065626562E77A856AE351287BCB93498346
:1043980048626A83CA8BE86A685A485A0973C86AC5
:1043A800A86AE872077B487BCC93EA7A4983E99349
:1043B800865AE86A0C946CA470C58CACADB471CD07
:1043C800CFB42D9C2E9CD0A44E8CE95A4A63B08C55
:1043D80011AD52BD10AD4E9C6E9C31BD51BD51BD4D
:1043E80051BD31BD31BD31B531B531B531B531B55D
:1043F8000FBD10BD11B533B58E736731EA39EB398E
:104408000C426D52C941B4A4D8C596B5D6BD95B570
:1044180096B556B557BD57BD77BD76BD75B554AD84
:1044280054AD36B595A4AB41AB41AA390A3AA8298F
:1044380089398939AA39AA398931682967296621C8
:10444800462147218931CA39EB418831C839AF7BC8
:10445800F1AC93C532B54A73E862E5390642264A9B
:10446800EA62F2AC709C0E8CED8BEC83AB7B8E9485
:10447800EC8BEC8BEC93AB8BAB8B4DA44CA4ADB419
:10448800E99B4AACACB409A4678B6BAC0AA4C57AA7
:10449800E651297BA98B2873E96A275AC86A6A8377
:1044A8008B836A830673A98BAB936C8B8A8B099475
:1044B8002A73665AA662445A067347830A9C0BA459
:1044C8002CA4CFB431B552B58F942E84D094F094E7
:1044D800D0AC72BD31B58FA48EA472BD72BD72BD51
:1044E80072C572C572BD72C572C592C572BD72BD04
:1044F80030C510BD11B574B58E7367290B3ACA392A
:104508000C4AEA416C5A77BDB7C5B6BDB6BDB6B55B
:10451800B6BD55B577C577C515BD55BD75BD53B580
:1045280054B535B5B5ACCB49AB41AB39EA3988217F
:104538008831683188318931682967296629452198
:10454800E831E939CA31CB39E820492968310621EF
:104558002A73D0A46F9C4A6B2542C43987524752AC
:10456800A9620E94A9620652064A054A664A454A55
:10457800A249C249E351E3516049C151A472678B12
:10458800C89B29AC6AB4AABCCBC4ABBC08ACA79B7B
:104598008462A762EA6AAB626A6268624752E8624A
:1045A800E7624873C772C872AC8B297B067BA793F6
:1045B800465AC5498431A5312742073AEA5AAD7BA4
:1045C800B19C54B534ADB19C909CB0A4AEA42C9CC5
:1045D8000BA46DB48A936A8BCC93D1AC8F9CF1A455
:1045E80010A5EF9CEF9CAE9CAE9CCFA4B0A44F9CB2
:1045F800AEAC51BDF1AC13AD4A528839CA39EB4162
:104608002B4A2A4A6F73B7BD76B576BD96BD76B587
:1046180077B5F4A435AD76B577BD97BD56B556B523
:1046280036B536ADF5A44B4AA939A939EA41682906
:104638008731A83988318831883126292729A9392D
:10464800A9398931482906216729E9396729C939EA
:104658008831AB5A4C6BCA5AA63109422A4ACC5AFD
:104668002C6BC95AA95A284A294A294A4952895AAF
:10467800463AE6316942CB4A28420852CC72A949E7
:10468800CD62494A274A285AE851C951295A0B7319
:104698004B9CEC8B6C7B0D73CB6ACA6AEA6A096324
:1046A800496BAA838A8BAB8B2E9CEC93698B2683F0
:1046B800CB8BCB8B296B0D7C0D748B6BB09452AD6F
:1046C80052B5D1AC0F948C8B4FACAFBC6EBC69A308
:1046D80049A308936682477A6B930A834B836A7B64
:1046E8008A7BAA7BCA7BEB834973AB836B7B88622B
:1046F800487B51BD73BDF3ACC84168310B42EA41F8
:104708002B4A0A426F7376B555B596BDB7BDB7BD8E
:1047180097BD97B5B7BD76BD56B597BD97BD56B58C
:1047280056B536AD16AD6C528831A939CA396829E3
:104738008831A839A8318831883126290621672986
:104748006831883168298831A831E939C931883117
:104758008931A839294A694A284A084246314952C2
:10476800885AE8626652264AC641C649E549054A5A
:10477800EA39E739C339C241C449C651A651834908
:10478800C249C662C44902312762C77A8472E061AD
:1047980010BDF1B42F943094CF8B8D83AD830E8CE4
:1047A8002E8C4D9CCB93EC93F0B411B52BA4A8930D
:1047B8004B9CCA8BEB830C7C4D84309D51AD10A56E
:1047C80031B58A83CC9BB0BC4EBC4ECCE8AA08B3AA
:1047D800CBBB8AB3ACB34BA32A93AC9BD1BC4A8363
:1047E8000D940D94CC8B31AD4E9C6A7B0D946B7BF4
:1047F800497B31B553B50F8CC8416831EB410B4249
:104808004C4A0A42328CD8BDD7C5D7C5D7C5B7BD23
:1048180076B576B576B576BD36B556B597BD77BD5E
:1048280076B536AD36ADCD5A8831A939A939683152
:104838008931A939A93188318731462905210621CD
:104848004729883168296831E939C9396829062131
:104858006831472987318631E8398631C220C54118
:10486800A239603920316141255A655AC66AA0418A
:10487800CA2044310373E07AE1692151C261238B74
:1048880086ACA8B42362A351C572C59B24B4C1B336
:104898002C9CD0AC8C7B8D832F9CED936C7B6C73A4
:1048A800CC830C940773277BADACCEAC888BA893D4
:1048B800E99BC98B8A83CB7BF094D09471ADEFA42C
:1048C800AA7BAB8B0D9C2DA48BA3E479258AE48964
:1048D8004582A78AC88AE98A2A8BC97A2A832A7BC9
:1048E800AC83AC8B0D94ED8BCC8BAC8B0D940A7395
:1048F800297352BD53B5495205296831CA39EB416C
:104908004C4A0A42B49CD8C5F8C5D7C576B555B542
:10491800F8C597BD56B5B7C597BD56B597BD76BD11
:1049280076BD35AD57B52E6B8831A93988316831D8
:104938008931893188318729672966292521E51830
:10494800E51806218831C939A93107210621A9317D
:10495800A93927296731E9418B5266310329045265
:10496800ACA46683878BC993EA9B2A9CECB4C26A81
:104978006939834905A407D569CC27A387A366BCF1
:1049880002ACA39B216AC99BA051839B44CC02CC57
:10499800A99330B52D94CB834E9C4E9CAC834B731E
:1049A8006B730C8C688367838CA48CA4467BA89358
:1049B800C99B077BCB8BB09C12A5F29C11A5296BD8
:1049C8000D8CAF9C8E948F9C4A7BA0280141E4619A
:1049D800A351834966620973AB83465A0552A8629C
:1049E800885A885AC541C649A9622B730E948C838C
:1049F800E96A73BD919C084AA839EA41EA39EA4153
:104A08006C522B4A15ADB7BD96BD76BD55B555B59B
:104A1800B8C556B5F4A415AD15AD15AD76BD35B50B
:104A280035B5F5AC36AD6F736731883167296831B4
:104A38008931893188296729672966292521E41858
:104A4800052105210521673126290621A931C93902
:104A58008931EA410A42883187310421E549A2496E
:104A68008BAC0BC50CC56ED58FD52DC568A4E58B51
:104A78002B9CC893A59BA9C469C4C8B3C492407AA7
:104A88000293859B4593A382A38229BC89CC03A367
:104A980066832A946C9C4C944C9C4D9C2E940E8C52
:104AA800ED830D94CB93898B2C948EA4EB93EA9B86
:104AB800688BAA93CC8B2F9434AD55B54C73485260
:104AC8004F9452AD11A5AC6B2219E531674A2642C5
:104AD800064A464AA85A09632A6B8752464A2B6BEC
:104AE800A95AA95A084A653985394C732B73AD837D
:104AF8006B7B33B54952873926296831CA392B4A25
:104B08006C524B5256B5B7BD76BD76B555B576B530
:104B1800F4ACB39CD4A497BD77BD15B515ADF4AC72
:104B280015ADF4AC15ADD1836731673147294729F5
:104B38008931883188296829472946292521C318B8
:104B4800EB62CA5AA218E420873106216831CA39B3
:104B580088312721A518E620683165314B7B267BF3
:104B680049AC68B4A6A3E8ABACC4ECC4AAACC9B45D
:104B780066A4A593C89BC89B09A4A38267A3C68AF9
:104B8800AAA3689329ACACC4A9ABEBB3AAAB27938F
:104B980045838362066B27732B94AEACAFA4B09C9D
:104BA800D1A48FA44EA4EB938EA4D0AC2C9C0B9CC8
:104BB8002A9C4C9CEC8B12AD13AD929C0F8CEE8B07
:104BC8008C7B12ADF19C6B63473AA94A918CE6390C
:104BD800284A8539E649EA62064AE541885A0B6B54
:104BE80069526952E8416A5A284A0B634B6B0E8432
:104BF8000B6B719C084AC84106216831EA39EA41C1
:104C08002B4A4B5236AD77BD35B535B535B535B5CB
:104C180097BD939C729CD4A4B3A4729C93A415AD25
:104C2800D4ACD4A4F5A4328C8731472967314729FD
:104C38008931682988318829472947292521E3208E
:104C48002A6BF0A4296B6431E32067318831472946
:104C580005218831CA39A931472965310C946BA4DB
:104C6800EBBCA9C40CD5CCCC068B05832DBD4CBDA3
:104C780069B449A4299C2EBDC993078B699B6A9B7B
:104C88000CA42CA48DBC6CBC0CBC6DBC2BAC889348
:104C9800257B435A655AA341497BCFACF0AC11A59B
:104CA800F0A410ADCFAC6D9C30B58D9C477B878B45
:104CB8002894677B8D9C93B5F29C34A513A55094DA
:104CC800909C11A50E84CD7B0F8449524E73E84900
:104CD8004641C849C749285A2B7B685A8862CA6A1C
:104CE80048520852A639453165314B6B2E844E8C9B
:104CF800EF8B2C734531673127296831CA390B424C
:104D08004B4A6C5216AD56B5F4AC14AD35B534B546
:104D180076BDB3A4B3A4B3A4D4A4F4ACD4ACD4AC3B
:104D2800B4A4D4A4D4A432946731262947292629C7
:104D38006731472987298829482927292629E220F0
:104D48000863A97B4B944973E1202429C520E620F8
:104D5800C83988316829692927292429697B4AA4FF
:104D6800CABCAEE549BC2ABC4893688B6BA42DBD70
:104D7800F2BCCEB4499C499C0EC56EB4AFC4CDBC40
:104D8800EDBC0FC531C531CDEFC42ECD0CC50CC55A
:104D9800267BA662265284412A73AFACCFA410A505
:104DA80030AD30AD0FB52C942FAD2EAD8A9CE9AC4B
:104DB8004CB58B9C0FA552A5908CD29474A5909459
:104DC8004E8CD09C8F94CE7BAE7B0952263988516D
:104DD80005316641654185416C834B7B0A73C96A1D
:104DE800685A485A0329A1186331A852AF9410A5EC
:104DF800F4A4AB5A66316731E5204829EA41EA4113
:104E08002B4A0A4AD5A4F5AC36B5D3A4B2A434B516
:104E1800F4ACF4AC15AD15B5F4ACF4ACF4ACF4AC3E
:104E2800B4A4B4A4B3A4949CA83926294729472933
:104E3800673167316729472928292829062902293E
:104E4800887B499448946B9C665A61180529C94126
:104E5800494A2A4AC939693147296431EB8B6AA41E
:104E6800A9B4CAC4869B637A68930A9CA049098C32
:104E7800F293AFB48AAC48AC2BB40DAC2CAC49ACB3
:104E880089AC4AAC2DAC2DA46CAC8AB428ACE7AB89
:104E9800267BA662A4416441A96A6FA4D0A4CF9CD2
:104EA80010A56E9CB0AC2E9C4F94CFA4EDAC699C21
:104EB800C793CCACAD9CEC7B2E7C9084B08CF194E9
:104EC800D094119D908CCE738E73094A0110A43032
:104ED8008539853984398339865A455AC76A0873AA
:104EE800A762C86AE44987622552A65AB1BD0FADC8
:104EF8005294C8416731673167292721CA390B4263
:104F08004B4A8839739C36B5F5AC96BDF7CD35B5A7
:104F180035B597BDB7C556BD15AD15B515B5D3A4EF
:104F2800F5ACF4ACB4A4B49C094A462967312629E7
:104F3800663166294729472928290829E628E228C9
:104F4800A8834794469CE78B2C94895A25310A4AB2
:104F5800C73909426831683105294752CDAC69A47F
:104F680068AC28ACA79B058B8893E993E56A098C04
:104F7800709CAEAC49ACE7AB0AB44CB4EDC42CC5DC
:104F8800A9B44AAC0BA4CA93E99309A487A306A3BE
:104F9800E4720673054AE549E9724E9CAFA4D0A4B1
:104FA8004E940E8CEF93CC7209528E83D0AC0B9436
:104FB80008A46AA40A946A736A6B2A636A6B2D84CC
:104FC8006E8CCF948F8C0A5BC9526D73284A295214
:104FD8000121E0188231A65A88734773E56A235283
:104FE8002673067388834883E672C98B6BA40DB554
:104FF8008F7BA839A839062126212721EA390A42B8
:105008006C5247314F7397BD56B576BD14ADD3A4D6
:10501800B8C576BD76BDB7C5D7C597C596BD76BDAB
:1050280076BDF5AC739C939C6B5226296731262973
:105038006631662966294729282909290629022966
:10504800A78387A4C7ACA9A4AEAC2B732531C841EC
:105058002942E94147316731E32045520A94E793F1
:10506800C6938593A693668B878BA783A783A77B15
:10507800A783C893A793A89BC8A3C8A309A408A4F7
:10508800E89BE99BE99BC893E8934AAC0BACEBB36C
:10509800C049A3622452A3418662856AA562486B0F
:1050A80069734A7BE972AA6A2C73919CCFAC277BFF
:1050B800248B0483267B0673E76A697B0B94EB9346
:1050C800EA934452286BCB7B2963AB73096366521E
:1050D800E66AC66A0673677B267BE472257B457B96
:1050E800257B868B668B4583A78BE8936683499CD3
:1050F800CD62094AC9390621A4182629E941EA419D
:105108004B4AE5204B5277BDB7C514AD34AD18CE28
:10511800F5AC56B5B8C597BD56B556B576BD56B5B6
:10512800729C32943294B49C0E6BE52047298731E7
:10513800463166296629472928292929062902315D
:105148008783E9AC87A4CBAC0C94E749C841E94113
:10515800294267314731052964396562C47244833D
:10516800237B24834583047B457B04732473046B6E
:10517800C072C172C36AC472A36A826AA372A3723C
:10518800C472E57A258304830483468B478B688B36
:10519800E0518362E56AA562267B0473E36A867B35
:1051A8008673A78366838883677BA77B4794259448
:1051B80006A448AC289CA78B888BA893C89BA89B5F
:1051C800A89B09A46BACEA93EA8BC983877BE98B1C
:1051D8000AA4E9A3A893E89B09A428A408A407A4FF
:1051E80027A448AC069C68A448A469A48AAC69A40E
:1051F8006B52E94188396731E5182621C9392A42B5
:105208006B52C520CD6236B5F4AC729476BD34B518
:10521800D4A436B597BD76BDF4ACB3A493A4529C80
:10522800729C729C939CF5A4F183673147292629C7
:10523800473146294629462928290829E628E22807
:105248000573A8A4E6932A9CCC8B2431C841673106
:10525800662926292631C4280A7B2B9CC793C79325
:10526800868BA793A7936683A68B8683457B467B0D
:10527800238B237B647B657325730573057B4683CA
:1052880067834783678B66936593658B447B6573F8
:10529800089CC88B09944A9CE793479C2694268CC3
:1052A800C583A483C48B0594C483C383C5A4E4AC19
:1052B800438BE69B089CC78BA78BA793C79B08AC1F
:1052C80008AC29AC49AC099C6AA4289C48A4279C32
:1052D800E8A329AC08AC08AC29AC28AC28A427A4BE
:1052E80026A4C59347A4279CA58B289C299C089491
:1052F8002B52EA41883147290621873109424A4A17
:105308002A4AE6286B5A36B5D4A476BDD7C5D2A4A6
:1053180077BD56B556B577BD56B535B5F5ACF4ACD1
:1053280035B576BD56B5D4A4B07B4729472947295A
:10533800472967296629462947212729E628E22897
:10534800C56A89A4299C6CA4CA6A8741C83987316F
:1053580066298731052944396B8BC9938793458B17
:105368004683067B478346834683678B478B078341
:10537800E682057B857BA67B887B488327836783BA
:10538800467B277B2883478B468B448B447B867BD5
:10539800668B6683667BC78B848BE5930694C6838E
:1053A800E683A583848B237B447B647B0594A38B52
:1053B800A37A668BC78B667B2573667BA68B658B0A
:1053C800448B858B658345838683858BA593C59B95
:1053D800A58B079407940794289C0794479C279CBF
:1053E800469C87A4669C26942794289C6AA4A88B2C
:1053F8000B4A0A4A88310621E520CC5A4A4A2A4AE9
:10540800094247316739B39CD4A4D7C514AD34AD2C
:1054180036AD97BDB8C556B5F5AC56B5B7C597BD49
:10542800B7C515AD5294F183F1832A4A8731E52037
:10543800482947296629662147212729062903295A
:10544800E34909944A9C297B25398839A839093ABE
:10545800873166310531EA72EC9BA993E89B09A470
:10546800CA9BAA93EB93EA9B0A9C0BA4ECABCCA334
:10547800CC93CB93CA93CA93EC9BEC9BCB932B9C7A
:10548800EA9BCB9B0DA40C9CEA9BE99BEAA34CAC42
:10549800C37AC793A78385830694858BE793C88BC4
:1054A80088836783678B067BA98B6883077BA472D5
:1054B8008372836A8362E56A466B0463036B657B68
:1054C8008583657B667BA783667BC68BC693C593FE
:1054D8004684478C68946894488C278C88944794B1
:1054E80046946694E58B068C4894499C8BA4067B6D
:1054F800CA41EA41473147290521F17B4A4A2A4AEC
:10550800A8396731E949B49C97BD96BDF3A4D7C5BE
:1055180015AD36B556B515ADB3A4939C93A4B3A4F5
:10552800B3A4939CB4A4D4A473942A4A46294729C3
:1055380008292729452145214621472126290329CC
:1055480061396BA4EEB4E551E851C9418831E939B4
:10555800A8312629A74191AC8EB48CB44AAC6BB45F
:105568004DAC8FB44EA42DA48EB42CAC0DACEEB3C0
:105578002F9C0E9CEDA3CDAB2FB42EACCC9B2CA4B2
:10558800CB9BAC9BCD9BCC93EB930C9CCDABCFB37F
:10559800647BC68BE68BA5838583A583A583857BE2
:1055A800857B447B0373447B65838583247B047BF1
:1055B800857B647BA5838583858385838583E79342
:1055C800E68B079428940794C78BC78BE7930894B6
:1055D800469C2694E68BC58BE58B068CE68BC48BA4
:1055E800C48BA4832694C58B8583489C8AA4667B38
:1055F80029420C4A4B31C420244A4D8C0A520D4A88
:105608008839A739494AB59C78BD14B596C535BDC2
:1056180056B5D8C5B7BDF4A4B3A4B4A4B3A4D4A450
:10562800F4ACF5ACB4A48F83939C6F7B2631262908
:105638004721472127214721472946212621462955
:10564800E5203294D1838739E949C841C841A8394E
:105658004531C220AD8B4EA4EC9B4CAC0BA40CACDA
:10566800ECA3ECA30DA40DA42EA44EAC2DA40DA464
:10567800ECA30CA42DA42EA42EA42EA44EA46EAC90
:105688002DA4AFB4AEAC8EAC8EAC8EAC8EAC6DAC83
:10569800647B8583A583A583A583A583847B447BBD
:1056A800647BA583A68BA68B658365838583A68B80
:1056B80086836583A68BA6838683A6838583C68B0C
:1056C8000794279C289C0794E693E693E69307940F
:1056D800E68B84838483C68B078C078C0794489C4D
:1056E80068A488A4279C289C499CA88B6B9C06735B
:1056F8006A4ACB414B310529865AF0A42A528A417D
:10570800473145298A52B59C949C35B5B7C576C5AD
:1057180056B576BD76BD15AD15AD56B556B556B56B
:1057280035B593A46F7B939C56B54F73473126319B
:1057380006214729A8316729262926292629E5206F
:1057480026290A4AA841E949094A673946310529FB
:10575800E22807526FA4B0B40CA46DB48DB42CAC7D
:105768006DB48FB4B0B4B0B48FAC6FAC8FB4AFB409
:10577800CFBCD0BC11BD11C531C531C532C532C58C
:1057880052C551C510BD10BD10BD10BD31C510C5E5
:10579800E68BC583A583C583C583A583857BA58340
:1057A800E68BE68BE68B8583657B447B657B457B57
:1057B8006683668387838683868386838683A68BB0
:1057C800A68BC68BC58BA58BC58BC58BC58BA58BAF
:1057D8008583A68BA78BA683C78B299C299CE893D6
:1057E800099C08946BA4EA934CA46DA4AFAC09730C
:1057F8002942CB396B39E4280C8C10AD4A5AAB419D
:105808004739A6390C63739416ADF8CD14AD729C64
:10581800F4A4D7C555B5F4AC35B576BDB7C576BDD6
:10582800939C118C93A4B7C5F18B0D6B294A05295C
:1058380046310529262925292629262946310529DB
:10584800052988392A4A2A528839A839673167319F
:105858002339ED8B6FAC0C9C2CA46CB4ADBCEFC49D
:105868008EB4AFB4B0B4F1BC32BD52C552C531C567
:1058780051C552C552C552C552C532C532BD11BDFA
:1058880011BDF0B410BD51C5CFB46EACAFB4CFB438
:10589800C583A57BA57BA57B857B6473857BC68338
:1058A800647B247324730473657B658386836583B3
:1058B80086838683A68B86838683A68BA78BA68BF7
:1058C8008683868B868B868B868B868B66834583C1
:1058D800A78BA78BC8930A9C2A9C0A9C0A9C2B9C82
:1058E8002BA48DACCFBCCFB4B0B4B1B4D2B4686A79
:1058F8000842EB41E828E428CB8331B56A5A2839B5
:1059080026316531CF7B77B53ACE55B5719C55B503
:1059180055B576BD76BD15ADF4AC76BD56BD529481
:10592800F08BF4ACD8C5D4A42D6BB0832D73873914
:1059380026310529263146314631E420E42005295F
:105948008739A8390A4AA839473167310529E52036
:10595800097B11BD6DA4EB9B2BA4EBA3EBA36DB44A
:105968006EACAFB411B532BD12BD11BD31BD31BD84
:1059780052C531BD32BD52BD52C553C553C552C5BE
:1059880052C531BD71C572C5AFAC4DA4F0B411BDDF
:10599800236B436B44736473447324734473447379
:1059A800046BE36A046BE36A24730473457B667BC8
:1059B800237B247B047B0473047B457B66834683BB
:1059C800878B888B888B888BA993EB9B4CA46DACB9
:1059D8008DAC8DACAEB4CFB4CFB4AEACAEACCFB4AE
:1059E80010BD8EB46EACB0B490B491B430A42C8316
:1059F800B5C577BDCE726120EB8B11B52A5ACB495C
:105A0800A941A63934AD5ACE36AD519492A4B3A467
:105A180096BD55B555B514AD97BD97BD118C31944C
:105A280076BDB7BD35B5F083B083939C7294A73922
:105A38002629673125290529252946312529663151
:105A48004A4A2A4A0942E9418739463166392531A5
:105A58008FB4AFB44CA46CAC0BA44CACADB4AEB426
:105A6800EFB411BD52BD52BD32B511B531B531BD1E
:105A780031BD31BD11B511B512BD32BD52BD52BDDA
:105A880052BD11B511B510B54D9C4DA4F0B4F0B48C
:105A9800036B036B0363E362E362E362C362A362C3
:105AA800046BE46A046BE46AE46AE46AE572057309
:105AB8006683868B8683A78BC88BE9932B9C2BA444
:105AC8006DA48EACCFBCF0BCD0BCB0B46FAC4FAC46
